:020000040002F8
:10300000D06B00204D3302005533020057330200CD
:10301000593302005B3302005D3302000000000000
:103020000000000000000000000000005F3302000C
:1030300061330200000000006333020065330200C8
:10304000D93E02006733020069420200553F020088
:103050006733020067330200013D0200673302005C
:1030600067330200673302006733020067330200F0
:1030700067330200673302006733020067330200E0
:1030800067330200313F02006733020067330200FA
:10309000653F020067330200693F020067330200A8
:1030A00067330200673302006733020067330200B0
:1030B00067330200673302000000000000000000D8
:1030C0006733020067330200673302006733020090
:1030D000673302006733020067330200000000001C
:1030E00000000000000000000000000000000000E0
:1030F00000000000000000000000000000000000D0
:1031000000000000000000000000000000000000BF
:1031100000000000000000000000000000000000AF
:10312000000000000000000000000000000000009F
:10313000000000000000000000000000000000008F
:10314000000000000000000000000000000000007F
:10315000000000000000000000000000000000006F
:10316000000000000000000000000000000000005F
:10317000000000000000000000000000000000004F
:10318000000000000000000000000000000000003F
:10319000000000000000000000000000000000002F
:1031A000000000000000000000000000000000001F
:1031B000000000000000000000000000000000000F
:1031C00000000000000000000000000000000000FF
:1031D00000000000000000000000000000000000EF
:1031E00000000000000000000000000000000000DF
:1031F00000000000000000000000000000000000CF
:10320000DFF80CD000F0EEFC00480047E1C10200FE
:10321000D06B002030B4044654E8000F0D4644E85B
:103220000053002BF8D1156030BC704730B4044611
:1032300054E8000F40EA010544E80053002BF7D1A1
:10324000156030BC704730B4044654E8000F00EA03
:10325000010544E80053002BF7D1156030BC7047DE
:1032600030B4044654E8000F80EA010544E80053F6
:10327000002BF7D1156030BC704730B4044654E8D9
:10328000000F00EB010544E80053002BF7D1156057
:1032900030BC704730B4044654E8000FA0EB010581
:1032A00044E80053002BF7D1156030BC7047000094
:1032B00030B4044654E8000F0D4644E80053002B98
:1032C000F8D1156030BC704730B4044654E8000FA4
:1032D00040EA010544E80053002BF7D1156030BCEB
:1032E000704730B4044654E8000F00EA010544E892
:1032F0000053002BF7D1156030BC704730B4044642
:1033000054E8000F80EA010544E80053002BF7D190
:10331000156030BC704730B4044654E8000F00EB31
:10332000010544E80053002BF7D1156030BC70470D
:1033300030B4044654E8000FA0EB010544E8005304
:10334000002BF7D1156030BC70470000064880475D
:1033500006480047FEE7FEE7FEE7FEE7FEE7FEE77A
:10336000FEE7FEE7FEE7FEE76D3F020001320200E6
:103370002DE9F05F0546002092469B4688460646AA
:10338000814640241BE0284641464746224600F03D
:1033900060F853465A46C01A914110D31146184658
:1033A000224600F047F82D1A67EB01084F462246E7
:1033B0000120002100F03EF817EB00094E41201ECD
:1033C000A4F10104DFDC484631462A464346BDE805
:1033D000F09F2DE9F0410024061B254671F10006FF
:1033E00005DA01240027D0EB070067EB0101161E68
:1033F00073F1000605DA0027D2EB0702012567EB1F
:103400000303FFF7B5FF86460E4617469C46AC42BF
:1034100004D00025D0EB050E65EB010624B1002099
:10342000D2EB000760EB030C704631463A46634628
:10343000BDE8F081202A04DB203A00FA02F10020E6
:1034400070479140C2F1200320FA03F319439040E2
:103450007047202A04DB203A21FA02F0002170474D
:1034600021FA02F3D040C2F12002914008431946EC
:1034700070470000004870477CFC020040EA0103EE
:103480009B0703D009E008C9121F08C0042AFAD21A
:1034900003E011F8013B00F8013B521EF9D27047DE
:1034A000D2B201E000F8012B491EFBD27047002286
:1034B000F6E710B513460A4604461946FFF7F0FF33
:1034C000204610BD421C10F8011B0029FBD1801AB8
:1034D00070472DE9FE4F804681EA0300C00F0C467D
:1034E000009021F0004123F00045B8EB0200A94113
:1034F00005D24046214690461C460B46024623F024
:103500000040104347D0270DC7F30A00C3F30A5108
:103510000290401A019040286BDAC3F3130040F484
:10352000801B0098924620B10023D2EB030A63EB84
:103530000B0B01985946C0F140025046FFF77AFF45
:1035400006460D4650465946019A00F053FA10EBD4
:1035500008006141002487EA115284EAE7731A43A4
:1035600040D0009A62B3019A012A4FEA075215DC53
:10357000001B61EB02014FF0004202EA0752CDE965
:103580000042001C41F5801132462B4600F0A8FA9B
:1035900003B0BDE8F08F40462146F9E7001B61EB20
:1035A0000201001C41F5801300185B412018A2F5B0
:1035B000001747EB030140EAD570B6196D4111E0E1
:1035C0006D084FEA360645EAC0754FEA0752001B00
:1035D00061EB0201001C41F5801149084FEA3000FF
:1035E0000019514132462B4603B0BDE8F04F00F0C0
:1035F00068BA0098012240000023D0EB020263EB7E
:10360000E073009821464FEAE074B8EB000061EBEC
:103610000401E9E783F000435BE781F0004158E7EC
:103620002DE9FE4F81EA030404F0004421F000413B
:1036300000944FF0000B23F0004350EA01045ED0E9
:1036400052EA03045BD0C3F30A54C1F30A552C4475
:10365000A4F2F3340194A0FB0254C1F3130141F42A
:103660008011C3F3130343F4801301FB024400FBF6
:10367000034E840A970A44EA815447EA8357A4FB1D
:10368000076802958D0A05FB07854FEA932C04FB1A
:103690000C542705029D4FEA065847EA1637B5EB4A
:1036A00008056EEB070C870E920E47EA811742EA77
:1036B0008312A7FB0201B6EB0B0164EB00042B0D98
:1036C00043EA0C335E1844EB1C50DA465146E7FBE4
:1036D0000201C5F313044FEA0B3343EA14534FEAD4
:1036E0000432019C43EA0603A4F10C040294009CFA
:1036F000CDE900B400F0F4F903B0BDE8F08F00208C
:103700000146F9E72DE9F04D81EA030404F0004B8E
:1037100021F0004514464FF0000A23F0004150EA22
:10372000050220D054EA01021DD0C5F30A57024613
:10373000C5F31303C1F31300C1F30A5640F4801517
:1037400043F48013A7EB0608101BD64608F2FD3899
:1037500073EB050002D308F1010801E092185B4108
:10376000B8F1000F03DA00200146BDE8F08D00201B
:103770004FF48011064684460EE0171B73EB0507D5
:1037800005D3121B63EB050306434CEA010C490801
:103790004FEA300092185B4150EA0107EDD152EA3E
:1037A000030012D082EA040083EA0501084305D031
:1037B000101BAB4106D20122002306E000224FF08D
:1037C000004302E06FF0010253101AEB06004CEBCD
:1037D000085110EB0A0041EB0B01BDE8F04D00F081
:1037E00070B9F0B4CA17CB0F50405140C61841F120
:1037F00000054FEAC372314628004FF0960303D00C
:10380000B623F0BC00F011B930460021F9E70EB53F
:10381000C10F80EAE0700844CA07002140F2334338
:103820008DE80E000A460B4600F05AF903B000BDC1
:103830000EB540F2334102910021CDE900110A4654
:103840000B4600F04DF903B000BD70B5C1F30A524C
:1038500001F000450024C1F3130140F2FF3341F4AD
:1038600080119A4201DA002070BD40F233439A423F
:10387000A2F2334203DC5242FFF7EBFD00E090403E
:103880002C43F1D0404270BDC1F30A5210B5C1F3D0
:10389000130140F2FF3341F480119A4201DA002013
:1038A00010BD40F233439A42A2F2334203DC52424B
:1038B000FFF7CFFD10BD904010BD70B5C1F30A52A7
:1038C00001F000450024C1F3130140F2FF3341F43D
:1038D00080119A4202DA0020014670BD40F2334363
:1038E0009A42A2F2334203DC5242FFF7B2FD01E0FA
:1038F000FFF7A0FD2C43F0D00023D0EB030063EBD7
:10390000010170BDC1F30A52C1F3130140F2FF334C
:1039100041F480119A4202DA00200146704740F2D9
:1039200033439A42A2F2334202DC5242FFF791BD86
:10393000FFF780BD00F0004230F000400AD0C10D1A
:1039400001F56071C0F3160042EA0151C208400758
:1039500011437047002001467047000030B5041E37
:1039600071F1000404DB4FF00044404264EB0101BC
:10397000141E73F1000405DB1C464FF00043524255
:1039800063EB04038B4208BF824230BD30B5041E96
:1039900071F1000404DB4FF00044404264EB01018C
:1039A000141E73F1000405DB1C464FF00043524225
:1039B00063EB0403994208BF904230BD01F000431D
:1039C00030B421F0004150EA010206D00A0DA2F500
:1039D0006072C1F31301002A02DC30BC0020704782
:1039E000440F44EAC104C100E01830BC00EBC250EF
:1039F00000F012B8202A06DBCB17203A41FA02F079
:103A000043EAE07306E041FA02F3D040C2F120023B
:103A100091400843194670470029A8BF7047401CD1
:103A2000490008BF20F00100704710B4B0FA80FCD4
:103A300000FA0CF050EA010404BF10BC704749B111
:103A4000CCF1200421FA04F411FA0CF118BF012181
:103A500021430843A3EB0C01CB1D4FEA00614FEA61
:103A6000102042BF002010BC704700EBC350104430
:103A70000029A4BF10BC7047401C490008BF20F0BB
:103A8000010010BC704710B541000CD0C0F3C75105
:103A9000962908DC7E2909DC06DB410204D000F00F
:103AA000004040F07E5010BD002010BDC1F19604D2
:103AB000C4F1200100FA01F1E040FFF7ADFFA040A2
:103AC00010BD10B5141E73F1000408DA401C41F15A
:103AD000000192185B411A4301D120F0010010BD92
:103AE0002DE9F04D92469B4611B1B1FA81F202E008
:103AF000B0FA80F220329046FFF79CFC04460F4655
:103B000040EA0A0041EA0B0153465A46084313D0E3
:103B1000114653EA010019D0C8F140025046FFF7A0
:103B200098FC05460E46504659464246FFF782FC31
:103B3000084305D0012004E020463946BDE8F08D59
:103B40000020054346EAE0762C4337430A98630594
:103B5000E40AA0EB08000022FD0A44EA47540A30B8
:103B600002D500200146E9E7010510196941DDE9A8
:103B7000084500196941BDE8F04DA2E770B521F094
:103B8000004303430CD0C1F30A550024D5EB0405D0
:103B900064EB0403D617AD1AB34102DB00200146E3
:103BA00070BD201841EB025170BD002801DBC0F14F
:103BB0000040002901DBC1F10041814202D24FF0F7
:103BC000004004E04FF0005001D14FF0C0404FEAF8
:103BD0002062EFF3008162F31F6181F30088704778
:103BE00000207047064C074D06E0E06840F00103F6
:103BF00094E8070098471034AC42F6D3FFF704FB73
:103C000030030300500303002DE9F04D00231A4652
:103C10001B1A8A4103DB00200146BDE8F08DC1F389
:103C20000A52C1F3130141F480154FF0000BD10784
:103C300002D100186D41521E0027044640F2FF11C8
:103C4000384601EB620A3E468046024600204FF4A9
:103C50008011FFF7FEFBC2197141BB1846EB010052
:103C6000B4EB030C75EB000C04D3E41A65EB000510
:103C700017460E46241908F101006D41804634288C
:103C8000E3DDF91946EB0600091BA84103D24FF00A
:103C9000FF32134601E0002213461BEB070046EB00
:103CA0000A51BDE8F04DFFF70CBF70B58C1810F845
:103CB000015B15F0070301D110F8013B2A1106D171
:103CC00010F8012B03E010F8016B01F8016B5B1E8B
:103CD000F9D12B0705D40023521E0DD401F8013B66
:103CE000FAE710F8013BCB1A921C03E013F8015BD2
:103CF00001F8015B521EF9D5A142D8D3002070BD56
:103D00002DE9F04700268CB0DFF86091B0464FF403
:103D10008075012437460696284609F0A5FA38B181
:103D2000D9F80403204203D0284609F093FA264329
:103D30002D1D64007F1CADB2082FEDD34FF4BE746F
:103D4000204609F091FA48B1204609F083FA46F07E
:103D5000004606AA0121002009F068FA444D16F039
:103D6000FF0F15D00127002437420DD009EB840145
:103D7000D1F81005D1F81015C0F3042055F824200F
:103D8000C1F3014102B190477F00641C082CEBD3C2
:103D9000002E67DA4FF0FF30CDE908800026344668
:103DA000281910F8507F90F9000027F0C008401C37
:103DB00044D009A9404608F022FD58B34FEA9719AC
:103DC000404607F031FE55F820701FB1B9F1030FDE
:103DD00003D00FE0B9F1030F30D108A84FEAD802A1
:103DE00008F00703815C4FF0010C0CFA03FC41EA78
:103DF0000C0181544FF0A04101EB8800D0F800077E
:103E000006A9C0F3014A404608F0F9FC18B1BAF11E
:103E1000020F03D012E0BAF1030F0FD1B9F1030F73
:103E200008D1BAF1020F1BD00221404609F0DAF99D
:103E3000761CF6B217B149464046B847641C042CBC
:103E4000AED3002E0ED06A460121002009F0EEF913
:103E500006990098884205D00690089809909DE739
:103E60000321E2E70CB0BDE8F087000000600040ED
:103E70003825002000F01F020121914040098000F8
:103E800000F1E020C0F88012704700F01F0201210D
:103E900091404009800000F1E020C0F80011704717
:103EA00000F01F02012191404009800000F1E02054
:103EB000C0F8001270474907090E002806DA00F022
:103EC0000F0000F1E02080F8141D704700F1E020A1
:103ED00080F80014704700002DE9F0414FF480771E
:103EE000384608F049FD0124104EA50748B1384670
:103EF00008F049FD0120C5F808037470002007F0A0
:103F00009BFD4FF48277384608F036FD00280BD031
:103F1000384608F038FD0220C5F80803B470BDE843
:103F2000F041012007F088BDBDE8F0812425002084
:103F300007480021C0F84011C0F84411C0F84811EA
:103F4000C0F84C11C0F80011C0F804110AF076BD99
:103F5000001001400149024807F018BFB0250020B9
:103F6000003000400AF0B8BC09F026BEF0B5AE48FB
:103F70000023021D01780125101D4FF080540629F1
:103F80000BD11678360708D10678C6F30316032E30
:103F900006D0042E04D0052E02D0062907D00EE04C
:103FA000B4F82463A14FC6F304263E6002E01678FD
:103FB000360704D10678C6F30316032E02D006296D
:103FC00004D00FE09B4F9A4E7E670EE016783607BE
:103FD00008D10678C6F30316032E06D0042E04D0AB
:103FE000052E02D0062907D00EE0D4F84462924F85
:103FF000C6F342363E6002E01678360704D10678F2
:10400000C6F30316032E02D0062906D011E08B4E0C
:10401000376827F0807737600EE01678360708D1CA
:104020000678C6F30316032E06D0042E04D0052E00
:1040300002D006290AD011E04FF08046C6F80C31B4
:10404000C6F810317C4E361F336002E01678360712
:1040500004D10678C6F30316032E02D0062905D034
:104060000CE0754F032664373E600AE01678360789
:1040700004D10678C6F30316032E02D006290DD00C
:1040800014E06F4F05263E606D4E783635606C4EFD
:10409000083633603F263F1D3E6002E01678360743
:1040A00004D10678C6F30316052E02D0062957D090
:1040B00062E0644E3668644F3E60624E361D36687C
:1040C0003F1D3E605F4E083636683F1D3E605D4EC8
:1040D0000C3636683F1D3E605A4E103636683F1D1E
:1040E0003E60584E143636683F1D3E60554E1836B9
:1040F0003668554F20373E60524E1C3636683F1D9D
:104100003E60504E203636683F1D3E604D4E243690
:1041100036683F1D3E604B4E283636683F1D3E6078
:10412000484E2C3636683F1D3E60464E3036366867
:10413000454F40373E60434E343636683F1D3E6043
:10414000404E383636683F1D3E603E4E3C3636683F
:104150003F1D3E603B4E403636683F1D3E6002E0EC
:104160001678360708D10678C6F30316032E06D054
:10417000042E04D0052E02D0062907D019E0D4F869
:104180005812324A01F04F01116002E0117809071C
:104190000FD10078C0F30310032803D0042801D006
:1041A000052806D12A480168C90702D06FF001012D
:1041B000016022487438016841F470010160BFF366
:1041C0004F8FBFF36F8F4FF01021D1F800020028FE
:1041D00003DBD1F80402002822DA1E4A15601E48CB
:1041E0000468002CFCD01524C1F800420568002D9D
:1041F000FCD0C1F8044201680029FCD013600168BA
:104200000029FCD0BFF34F8F0C48F0380168134AE7
:1042100001F4E06111430160BFF34F8F00BFFDE780
:1042200010490F480860F0BDE00F00F04035014034
:104230000DF0ADBA00C007403C050040FCED00E0C9
:10424000105600400404001020C50040E40E004059
:104250000004004004E5014000E401400400FA05C8
:104260000090D003402200200448017F0448002928
:10427000024901D00AF07FBE0AF0EEBD9025002071
:10428000002000400FB4084B10B504A902AA0398FF
:1042900002F0B0F8044602A9002002F0DCFA204641
:1042A00010BC5DF814FB00005768020003B40198CD
:1042B0004100009850EAC12018BF04204A0D18BFE1
:1042C00040F0010040F2FF72B2EB515F08BF40F0D6
:1042D0000200012808BF052002B070474100080213
:1042E00018BF04200A0E18BF40F001004FF07F42B3
:1042F00032EA010108BF40F00200012808BF052092
:1043000070470000000000002DE9F0412DED020B88
:104310009FED3D0B2DED028B9FED3D8BDDE90254B2
:10432000C4F30A50A0F2FF36142E37DA002E18DA42
:1043300053EC102B9DED020B51EC100BFFF7C9F85D
:1043400053EC182BFFF722FB57D2002CBCBF4FF0C9
:104350000044002551DB54EA050018BF2E4C1BD148
:104360004BE02E4820FA06F704EA070028431FD046
:1043700053EC102B9DED020B51EC100BFFF7A9F83D
:1043800053EC182BFFF702FB37D2002C03DD4FF460
:104390008010F0400444BC4300252EE0332E07DC9F
:1043A000A6F114004FF0FF3121FA00F73D4206D18B
:1043B0009DED020BBDEC028B02B0BDE8F08153EC29
:1043C000102B9DED020B51EC100BFFF726F953EC6F
:1043D000182BFFF7DBFA10D2002C0DDD142E08BFCE
:1043E000641C09D0C6F13400012101FA00F0284410
:1043F000A84238BF641C0546BD43CDE902549DED7B
:10440000020BD7E7000000009C7500883CE4377E73
:1044100000000000000000000000F03FFFFF0F0060
:1044200010B510EE104A4FF019406849002200EB19
:1044300044002DED028B884257D8DFED650A14F059
:10444000004F60EE200A14BFBEEE001AB6EE001A4E
:1044500071EE200AFDEEE00A10EE900A00EE900ADE
:10446000F8EEE00A9FED5B1A00EEC10A9FED5A1AC2
:1044700000EEC10ADFED590A9FED591A00EE201A2D
:10448000DFED580A40EE010A9FED571A574B00F036
:10449000030100EE201A21EE000A7B4403EB8103A6
:1044A000D3ED000A524B7B4403EB810393ED001ADA
:1044B000504B41EE000A7B4403EB8101801091EDEB
:1044C000000A70EE800AEABB00EE100AB8EEC01ACD
:1044D000DFED491A9FED490ABDEC028B01EE210A7E
:1044E000BCEEC00A20EE200A10BD4FF0FF40A043F2
:1044F0001BD04FF0CE40B0EB440F82BFB7EE000AA6
:10450000BDEC028B10BD3E48B0EB440F28BF01222A
:1045100093D2022001F068FF14F0004F15D0BDECDB
:10452000028BBDE8104001F08BBE14F5000F02BFF6
:104530009FED340ABDEC028B10BDBDEC028BBDE8D3
:10454000104000E007E001F065BEBDEC028BBDE865
:10455000104001F06DBE00EBD07359104FF07E5249
:1045600002EBC15100EE101AA0EB630002EBC05049
:1045700060EE200A00EE100A20EE208A18EE100AE3
:1045800088B118EE100AB0F1FF4F15D018EE100ADE
:10459000FFF7A4FE042808BF01F052FEB0EE480A5F
:1045A000BDEC028B10BD022001F01EFFBDEC028BA2
:1045B000BDE8104001F044BE022001F015FFBDEC43
:1045C000028BBDE8104001F033BE00000000501E19
:1045D0003BAAB8400070313EF4FD053712BB2A3DBE
:1045E00012BB2A3EFFFFFF3EFFFF7F3FEEB40000FD
:1045F000F2B40000C2B400000000004B00007E4E88
:104600000000A085000000002DED020B019820F0B5
:10461000004001909DED000B02B0704700000000CB
:104620002DE9F0412DED020B9FED3D0B2DED028BA1
:104630009FED3D8BDDE90254C4F30A50A0F2FF3632
:10464000142E37DA002E18DA53EC102B9DED020BE6
:1046500051EC100BFEF73DFF53EC182BFFF796F9CA
:1046600057D2002CA4BF0024254652DA24F0004083
:10467000284318BF2E4C4CD01AE02E4820FA06F7DB
:1046800004EA070028431FD053EC102B9DED020BCA
:1046900051EC100BFEF71DFF53EC182BFFF776F9CA
:1046A00037D2002C03DA4FF48010F0400444BC43AE
:1046B00000252EE0332E07DCA6F114004FF0FF3169
:1046C00021FA00F73D4206D19DED020BBDEC028BB5
:1046D00002B0BDE8F08153EC102B9DED020B51ECC4
:1046E000100BFEF79AFF53EC182BFFF74FF910D27F
:1046F000002C0DDA142E08BF641C09D0C6F134005A
:10470000012101FA00F02844A84238BF641C054684
:10471000BD43CDE902549DED020BD7E70000000038
:104720009C7500883CE4377E00000000000000001B
:104730000000F0BFFFFF0F0010B52DED028BB0EEB3
:10474000608AF0EE408A18EE101A18EE900AFFF711
:104750002CFA00F07040B0F1005F0CD018EE100A97
:1047600020F00040C0F1FF40C00F02BFB0EE480A89
:10477000BDEC028B10BDB0EE680ABDEC028B10BD23
:1047800010B52DED028BB0EE608AF0EE408A18EE87
:10479000101A18EE900AFFF708FA00F07040B0F116
:1047A000004F0CD018EE100A20F00040C0F1FF407E
:1047B000C00F02BFB0EE480ABDEC028B10BDB0EED8
:1047C000680ABDEC028B10BD31B504462DED020B1D
:1047D0000023019A00982360194B22F0004199426E
:1047E00028DA084326D0B1F5801FA8BF206811DA67
:1047F0009FED150B53EC102B9DED000B51EC100BA6
:10480000FEF70EFFCDE900010A466FF0350021F0FA
:10481000004120600E4B6FF31E5203EB2151084400
:10482000206042F0FF5040F0005001909DED000BE1
:1048300003B030BD9DED000B03B030BD00000000A3
:104840000000F07F00000000000000000000504366
:1048500002FCFFFF10EE100A10B5A0F500014FF0AA
:10486000000CB1F1FE4F6CD200F500216FF07E021A
:1048700002EBE153C1F302524FF07E5101EB0251C2
:1048800000EE901AA0EBC3500CEB030100EE100AEF
:1048900051EA020036D030EE601A30EE200AC1EE46
:1048A000000A20EEA00A60EE801A9FED3D2A9FEDDF
:1048B0003D1A3D48DFED3F2A00EE021A784400EB36
:1048C00082009FED3A2A21EE810A01EE101AD0ED06
:1048D000001A3748B8EEC11A784400EB820041EE66
:1048E000021A01EE101A90ED002AB8EEC11A01EE7C
:1048F000222A9FED311A32EE000A00EE810A31EED3
:10490000800A10BDF7EE000A9FED2D1A70EE600AC6
:104910009FED2A0A00EE801A9FED2A0A60EEA01A87
:1049200000EE810A9FED281A00EE801A21EE810A1E
:104930009FED261A00EE810AB5EE0B1A00EE810AF1
:1049400010BD4FF07F41B1EB400F03D2BDE81040E6
:1049500001F060BCB0F1FF4F08BF10BDB5EEC00A5A
:10496000F1EE10FA06D2012001F03EFDBDE8104044
:1049700001F056BCB5EEC00AF1EE10FA07D10220E4
:1049800001F032FD01F03CFCB1EE400A10BDDFED5C
:10499000100A6FF0160C20EE200A10EE100A63E7E2
:1049A000DE02323E3B3D943EECB0000000209A3ED9
:1049B000F0B00000FC849A36D95B5E3F924FA93D6F
:1049C0007279DEBD2D3E143ED85B5EBE157B4B3C3E
:1049D0000000004B10EE100A10B50023A0F50001F6
:1049E000B1F1FE4F67D200BF00F500216FF07E02EB
:1049F00002EBE15CC1F302524FF07E5101EB025138
:104A000000EE901AA0EBCC5003EB0C0100EE100A64
:104A100051EA020036D030EE601A70EE200A9FEDA7
:104A20003D2A3E4881EE200A9FED3B1A60EE000AC7
:104A300000EE821A60EE201A61EE810A784401EEDF
:104A4000101A00EB82009FED362AB8EEC11AD0EDA5
:104A5000001A344841EE021A784401EE101A00EBB5
:104A60008200B8EEC11A90ED002ADFED2F2A01EE88
:104A7000222AB0EE001A72EE200A40EE010A31EE50
:104A8000A00A10BDF7EE000A9FED291A30EE600A69
:104A9000DFED260A00EE201ADFED260A60EE001A8E
:104AA00040EE010A9FED241A00EE201A61EE810A01
:104AB00030EE200A10BD4FF07F41B1EB400F03D222
:104AC000BDE8104001F0A6BBB0F1FF4F08BF10BD1C
:104AD000B5EEC00AF1EE10FA06D2012001F084FC16
:104AE000BDE8104001F09CBBB5EEC00AF1EE10FA33
:104AF00007D1022001F078FC01F082FBB1EE400A00
:104B000010BDDFED0E0A6FF0160320EE200A10EE46
:104B1000100A69E766F1CC3EAAAA2A3FACAF0000B2
:104B20000070313FB0AF0000F4FD053821ED423E8A
:104B30000A1180BEC1ABAA3EFFFFFFBE0000004BC2
:104B40002DE9F04D2DED040B2DED0E8B96B0DDE92A
:104B50002550279CDDF890A025F0004624F0004861
:104B6000BAF1000F14BF0121002101EB4502FC49FD
:104B700053184A1093422AD3002814BF012300235C
:104B800003EB44030B44F7498B4220D358EA00015E
:104B90009FEDF59B76D0DFF8D8B35D4503D1BAF130
:104BA000000F05D188E0BAF1000F08BF002100D046
:104BB000012101EB450111F5001F08D8002814BFA1
:104BC0000121002101EB440111F5001F0BD99DEDDE
:104BD000261B9DED240B16B0BDEC0E8B04B0BDE87A
:104BE000F04D01F0D1BA0027002DBCBFE149884546
:104BF00021DAE1498845A8BF02271CDAC3451ADC3F
:104C0000DE4901EB2851142908DDC1F1340220FAF4
:104C100002F101FA02F282420DD108E058B9C1F165
:104C2000140228FA02F101FA02F2424503D101F01E
:104C30000101C1F1020756EA0A0124D1002C22DA4F
:104C4000002D18BF022F01D0012F0AD0022001F041
:104C5000CBFB16B0BDEC0E8B04B0BDE8F04D01F0FF
:104C60007BBA022001F0C0FB01F076FA51EC100B88
:104C700081F0004141EC100B16B0BDEC0E8B04B07E
:104C8000BDE8F08D18E09FEDBEAB9FEDBF8B002817
:104C900071D1B848804522D105F1804010F58010CF
:104CA00008BFBAF1000F07D0B3450ADC002CA8BF3B
:104CB0009DED260BE0DA0DE0B0EE490AF0EE690A50
:104CC000DAE7002C06DA9DED260B51EC100B81F093
:104CD00000416FE0AE48784490ED000BCCE7D8453A
:104CE0004DD1002C48DA2EB186423AD1BAF1000FEC
:104CF00042D126E0BAF1000F13D0022001F074FB7C
:104D000001F05EFA8DED020B9DED240B8DED000B95
:104D100010EE900A039961F31E0003909DED020BC3
:104D2000AAE78DED02AB9DED240B1AEE901A10EE62
:104D3000900A8DED000B61F31E0003909DED020BB8
:104D40009AE78DED028B9DED240B18EE901A10EE74
:104D5000900A8DED000B61F31E0003909DED020B98
:104D60008AE709DA9DED240B51EC190B53EC102B5B
:104D7000FEF7C8FC1EE020E09DED240B7CE7864298
:104D80001BDAB4F1804F0DD0A4F10050B0F1FF5008
:104D900013D1002D11DB9DED240B51EC100B09F00C
:104DA00018FD07E09DED240B53EC102B51EC100B7C
:104DB00000F0C2BC41EC100B5EE79DED240B51EC02
:104DC000100B06F02DFFBAF1000FCDE90E0142D114
:104DD0009FED710B46B3A6F1E040B0F17F600CD0BF
:104DE0005E4538D1002D00DAA7B3022F0CBF012099
:104DF0004FF0FF30FEF70BFDDCE7002D01DD002C4E
:104E00000DDA002D01DD002C1FDB002D16DA002C41
:104E100014DB012F08BF9FED620B3FF42DAFB0EE06
:104E20004A0AF0EE6A0A27E7022F18BF002D0CD0BD
:104E3000012F0AD1002DFFF61FAF06E0002DB8BFED
:104E4000002C08DA012F3FF417AFB0EE480AF0EE5D
:104E5000680A11E71BE0012000EBE57050EA07014A
:104E600015D0791EB0EE498AF0EE698A084308BF72
:104E70009FED4D8B4E480025804570DD4D494E48D5
:104E8000884514DDB0420DDB002C19DB2FE001203A
:104E900001F0AAFA16B0BDEC0E8B04B0BDE8F04DDF
:104EA00001F07EB9B34502DC002C09DC1FE086422C
:104EB00002DA002C1BDA03E05E452BDD002C16DD48
:104EC000022001F091FA01F07BF98DED020B53EC19
:104ED0001A2B51EC180BFEF7A3FBCDE90001039947
:104EE000019861F31E0003909DED020BC4E60220C1
:104EF00001F07AFA01F074F910EE901A18EE900AA7
:104F00008DED020B8DED008B61F31E0003909DED86
:104F1000020BB1E69DED0E0B53EC192B51EC100B6F
:104F2000FEF778FB9FED260BCDE9080153EC102B23
:104F30009DED080B51EC100BFEF772FB9FED221B51
:104F400053EC112BFEF769FB9DED081B53EC112B65
:104F5000FEF766FB9FED1E1B53EC112B3CE08CE033
:104F6000FFFF1F00FFFF0F00000000000000F03FE8
:104F70000000F03F0000F07F0000404301FCFFFF15
:104F8000000000000000F07F0000000000000000B2
:104F9000A6AF00000000000000000000000000803C
:104FA000000000000000F0FF000000000000F0BF63
:104FB0000000E0410000F043FFFFEF3F0000000071
:104FC000000000000000D03F555555555555D53FC0
:104FD000000000000000E03FFEF71FFB9DED080B06
:104FE00041EC1A0B53EC102B51EC100BFEF718FB95
:104FF00053EC1A2BFEF714FB41EC1A0B9FEDFE0B42
:1050000053EC102B9DED080B51EC100BFEF708FB39
:1050100041EC1B0B9FEDFA0B51EC1A0B53EC102BD0
:10502000FEF7FEFA41EC1A0B9FEDF70B53EC102B39
:105030009DED080B51EC100BFEF7F2FA53EC1A2B16
:10504000FEF7E8FA41EC1A0B51EC1B0B53EC1A2B50
:10505000FEF73FFA0690CDE906519DED060B53ECA5
:105060001B2B51EC100BFEF7D5FA53EC1A2BFEF765
:10507000D4FA41EC100B00F0A1B90020B6F5801F66
:105080000EDA9FEDE30B53EC102B9DED0E0B51EC64
:10509000100BFEF7C5FACDE90E016FF034000E4695
:1050A00000EB2650A0F2FF37C6F31300DA4940F0B8
:1050B0007F6646F040568842D8BF002408DDD749B5
:1050C0008142C8BF012403DC0024A6F580167F1CA2
:1050D000D348784400EBC4000F9690ED00CB9DEDD3
:1050E0000E0B53EC1C2B51EC100BFEF793FA9DEDBD
:1050F0000E0B41EC1B0B53EC1C2B51EC100BFEF771
:10510000E8F941EC100B51EC190B53EC102BFEF7A6
:10511000F9FA41EC1D0B51EC1B0B53EC1D2BFEF768
:105120007FFA41EC1A0BBF488DED10AB7844109517
:1051300090ED000B4FF0005040EA660000EB844019
:105140008DED080B00F5002009909DED080B53EC48
:105150001C2B51EC100BFEF75DFA9DED0E1B53EC72
:10516000112BFEF75AFA41EC100B53EC102B9DED6E
:10517000100B51EC100BFEF753FA9DED080B41ECB0
:105180001C0B53EC102B9DED100B51EC100BFEF78C
:1051900047FA53EC1B2BFEF740FA53EC1C2BFEF79F
:1051A00039FA53EC1D2BFEF73BFA41EC1C0B53EC88
:1051B0001A2B51EC1A0BFEF733FA41EC1B0B9A48F1
:1051C0000621B0EE4B0AF0EE6B0A784400F045FF82
:1051D000B0EE401AF0EE601AB0EE41DAF0EE61DAAD
:1051E00053EC1B2B51EC1B0BFEF71AFA53EC1D2B47
:1051F000FEF716FA9DED100B41EC1B0B53EC1A2B2E
:1052000051EC100BFEF765F953EC1C2BFEF708FA76
:1052100053EC1B2BFEF75DF99DED100B41EC1B0BC6
:1052200053EC102B51EC100BFEF7FAF941EC1D0B6F
:105230009FED7FEB53EC1E2BFEF74BF953EC1B2B32
:10524000FEF747F90890CDE908519DED080B53ECA6
:105250001E2B51EC100BFEF7DDF953EC1D2BFEF766
:10526000D9F953EC1B2BFEF7D8F99DED080B41EC57
:105270001D0B53EC102B9DED100B51EC100BFEF79A
:10528000CFF941EC1B0B53EC1A2B51EC1D0BFEF725
:10529000C7F99DED080B41EC1A0B53EC102B51ECA8
:1052A0001C0BFEF7BDF953EC1A2BFEF712F941EC7B
:1052B0001A0B51EC1B0B53EC1A2BFEF70AF90C904E
:1052C000CDE90C519DED0C0B53EC1B2B51EC100B4D
:1052D000FEF7A0F953EC1A2BFEF79FF941EC1B0BDC
:1052E0009FED550B53EC102B9DED0C0B51EC100B5F
:1052F000FEF796F941EC1A0B9FED510B51EC1B0B8D
:1053000053EC102BFEF78CF941EC1B0B9FED4E0B71
:1053100053EC102B9DED0C0B51EC100BFEF780F9AC
:1053200053EC1B2BFEF7D5F841EC100B48487844A2
:1053300000EBC40090ED001B51EC100B53EC112B53
:10534000FEF7C7F841EC1B0B3846FEF760FACDE9D3
:10535000080153EC1B2B51EC1A0BFEF7BAF841EC89
:10536000100B3C48784400EBC40090ED00CB51ECAE
:10537000100B53EC1C2BFEF7ACF89DED081B53EC07
:10538000112BFEF7A6F80690CDE906519DED080B0E
:1053900053EC102B9DED060B51EC100BFEF73AF978
:1053A00053EC1C2BFEF736F953EC1A2BFEF732F9AF
:1053B00053EC1B2BFEF731F941EC100B9DED261B36
:1053C00053EC102B8DED001B00959DED260B51EC41
:1053D000100BFEF725F99DED000B41EC1A0B53EC79
:1053E000102B9DED260B51EC100BFEF713F99DEDE4
:1053F000061B53EC112B2FE0000000604715F73F10
:10540000FE822B654715F73F44DF5DF80BAE543E37
:1054100000000000000040438E9803007AB60B00A5
:105420005AA9000050AB000092A800000000000044
:105430000000000000000840000000E009C7EE3F47
:10544000FD033ADC09C7EE3FF5015B14E02F3EBED9
:105450001EA70000D8A60000FEF7E2F853EC1A2BB6
:10546000FEF737F89DED060B41EC1A0B53EC102BB1
:105470009DED000B51EC100BFEF7D2F8CDE90C01BD
:105480009DED0C0B51EC1A0B53EC102BFEF721F891
:10549000CDE902010C46AA498C422FDB611A084370
:1054A00018D19DED0C0B53EC102B9DED020B51EC24
:1054B000100BFEF7AFF841EC1B0B9FEDA30B51EC6B
:1054C0001A0B53EC102BFEF704F853EC1B2BFEF7D2
:1054D0005DFA2DD2022000F087FF00F071FE10EE81
:1054E000901A18EE900A8DED020B8DED008B61F392
:1054F0001E0003909DED020BFFF7BEBB944A24F003
:105500000041914214D39349214408437FF4EFAC06
:105510009DED0C0B53EC102B9DED020B51EC100B81
:10552000FEF778F853EC1A2BFEF730FA7FF6DFAC73
:1055300024F000408849894A002601EB205182422C
:105540002BDA481C4FF4801121FA00F02044844AE1
:10555000C0F30A517A44A1F2FF3192ED000B814A67
:105560008DED080BCA4020EA0202C0F3130040F49C
:105570008010C1F1140120FA01F60992002CB8BF85
:1055800076429DED080B53EC102B9DED0C0B51EC6E
:10559000100BFEF73FF8CDE90C019DED0C0B51EC23
:1055A0001A0B53EC102BFDF794FF9FED6F0B089037
:1055B000CDE9085153EC102B9DED080B51EC100B6D
:1055C000FEF72EF841EC1B0B9FED690B53EC102BF3
:1055D0009DED080B51EC100BFEF722F89DED0C0B26
:1055E00041EC1C0B53EC102B9DED080B51EC100BF8
:1055F000FEF710F853EC1A2BFEF70FF89FED5E1B29
:1056000053EC112BFEF70CF853EC1C2BFDF761FF4C
:1056100041EC1A0B51EC1B0B53EC1A2BFDF759FF05
:10562000CDE902019DED020B53EC1B2B51EC100B4D
:10563000FDF7F0FF53EC1A2BFDF7EFFF9DED020B8A
:1056400041EC1A0B53EC102B51EC100BFDF7E8FF5B
:10565000CDE908014A489DED080B0521784400F08A
:10566000FCFC9DED081B51EC100B53EC112BFDF7CE
:10567000D7FF9DED021B53EC112BFDF7CEFFCDE9BB
:1056800006019DED020B53EC1A2B51EC100BFDF7AC
:10569000C7FF53EC1A2BFDF71CFF9FED3B0B41ECB2
:1056A0001A0B53EC102B9DED060B51EC100BFDF774
:1056B000B1FF9DED060B41EC1B0B53EC102B9DED48
:1056C000020B51EC100BFDF7ABFF53EC1B2BFEF75D
:1056D00019F853EC1A2BFDF79DFF9DED021B53ECBF
:1056E000112BFDF797FF53EC192BFDF796FFCDE932
:1056F000020101EB065001150029C8BF039015DC1B
:105700009DED020B324651EC100BFEF737FAFEF717
:10571000CDFD042808BF00F063FD32469DED020B6D
:1057200051EC100BFEF72AFACDE902019DED020BB8
:1057300051EC180B53EC102BFDF772FFFFF73ABB3F
:105740000000904000000000FE822B654715973C4A
:1057500000CC904000346F3F01FCFFFF0000E03FB1
:1057600028A70000FFFF0F0000000000432EE63FC7
:10577000396CA80C615C20BEEF39FAFE422EE63F80
:1057800030A4000000000000000000000000004005
:1057900010B510EE100A2DED068BB7EE001A10EEC4
:1057A000901AB0EE418A0022A0F5000CDFEDFE9ABF
:1057B0004FF00073BCF1FE4F4FF07F4403EB410C00
:1057C00080F0B481BCF1804FC0F02082F7490144E1
:1057D0009FEDF73AB1F5005F40F2D48200F58021E9
:1057E000CB0C03F00F0101EE901AC3F307137F3BBC
:1057F000A0EBC350B8EEE12A00EE100A1A44DFED28
:10580000ED2AF0EE411A42EE221AF0EE613A70EE05
:10581000232A30EE632A12EE900A00F500606FF33F
:105820000B0001EE900A73EEE13A33EE804AC1EECE
:10583000223A22EE230A10EE100A00F500606FF300
:105840000B0000EE100A00EE612A00EE442A62EE20
:10585000232A70EE221A21EEA12ADFEDD73A02EEBA
:10586000233A23EE023A20EE012A22EE811A03EEB9
:10587000211A32EE010A10EE100A00F500606FF3F3
:105880000B0000EE100A72EE401A31EE812A9FEDF5
:10589000CB1A60EE011A9FEDCA1A20EE011A9FED95
:1058A000C90A02EE001A31EE810A10EE100A00F564
:1058B00000606FF30B0000EE100AC34871EEC01ACF
:1058C00031EE812A784400EBC10090ED003AD0ED32
:1058D000011A100101EE100AF8EEC12A32EE211A67
:1058E00031EE001A31EE031A31EE221A11EE100ACF
:1058F00000F500606FF30B0009EE100A39EE621A32
:1059000031EE431A31EE400A30EE610A32EE40AA1F
:1059100010EE900A002100F500606FF30B0008EE16
:10592000900A084670EEE8AAFEF75AF929EE280A0E
:1059300000F00C01F0EEC00A10EE900AB0F18B4FAF
:105940000DDD10EE900AB4EB400F08D310EE100AF4
:105950004FF08B4262F31E0008EE900A13E069EEEE
:105960002A0A38EEAA1A4AEE010A30EE201A11EE7F
:10597000100A00F500606FF30B0008EE900A30EE9D
:10598000680A70EE209A0C20FEF72AF938EEA90A70
:10599000B5EEC00AF1EE10FA34BFFEEE000AF6EEE4
:1059A000000A30EE800ABDEEC00A10EE100A0111A6
:1059B00000EE101AF8EEC00A00EE100AB8EEC00AA7
:1059C00038EEC00A30EE290ADFED801A9FED801A0A
:1059D00000EE211ADFED7F1A7F4900F00F0040EE44
:1059E000011A21EE800A794401EB800191ED001A41
:1059F0007A49794401EB8001D1ED001A784901EE32
:105A0000801A794401EB8000764990ED000A31EE6E
:105A1000001AB0EEE00A10EE100A884215DA10EE15
:105A2000100AB4EB400F10D39FED6F0A30EE800ADE
:105A3000DFED6E0A20EE200A68EE010ABDEC068B4F
:105A4000BCEEC00A20EE200A10BD10EE100A684914
:105A5000884243DA10EE100AB4EB400F3ED3BDEE9D
:105A6000E00A68EE010A10EE100A00EBD072511045
:105A7000C90501F17E5100EE101AA0EB6200C005CD
:105A800060EE200A00F17E5000EE100A60EE808A7F
:105A900018EE900AB4EB400F0FD1022000F0A4FCE6
:105AA00000F0C6FB10EE101A18EE100ABDEC068BC3
:105AB00061F31E0000EE100A10BD18EE900A4000BF
:105AC00011D018EE900AFEF709FC042808BF00F078
:105AD000B7FBB0EE680ABDEC068B10BDF5EEC00A50
:105AE000F1EE10FA0FD2022000F07EFC00F0A8FBCD
:105AF00010EE101A18EE100ABDEC068B61F31E00B2
:105B000000EE100A10BD022000F06EFC00F090FBC9
:105B100010EE101AB0EE480A10EE100ABDEC068B1B
:105B200061F31E0000EE100A10BD00BFBCF1804FF3
:105B30006CD300BF00F1FF43B3F1FE4F24D200BF8E
:105B4000B0EEC00A10EE100AC1F3C7537F2B0DDB75
:105B5000972BBFF63BAEC3F196034FF0010C0CFA46
:105B600003F3A3F1010C1CEA010F08D0012000F09F
:105B70003BFCBDEC068BBDE8104000F051BB0B4276
:105B800018BFBFEE008A21E643001CBF4FF08073B0
:105B9000B3EB400F34D96FF01A02DFED161A20EE86
:105BA000210A10EE100A27E000000000001080C05B
:105BB000ABAAAA3E0000803D7EE24C3E00B03842D7
:105BC000D49AB8BB3BAA3842F0A10000FC59633715
:105BD000C9FF753A1872313D8EA10000C2A10000C4
:105BE00032A100000000FC420000FE420000004B19
:105BF000000040430000004D10F0004FA0D1E5E54B
:105C0000A0F50003B3F1FE4F21D2DFE503EB410322
:105C1000B3F1007F11D3F5EEC00AF1EE10FA05D111
:105C2000430018BFB4EB400F76D883E701F0004182
:105C300041F0FC5100EE901A7CE7B3F1807F06D270
:105C400010EE903AA3F5000300EE903A72E720F0D0
:105C500000426FF0FF4C604C02EB0C03A34210D3E8
:105C600021F000439C44A4450BD3B0F17E5F18BFE4
:105C70005FEA410C50D0B2F1FF4F98BFB3F1FF4F34
:105C800005D9BDEC068BBDE8104000F0C6BAB0F1F6
:105C9000FF4F0FD0C1F3C7527F2A09DB972A11DAD1
:105CA000C2F19602012303FA02F2531E0B4205D001
:105CB000002208E011F0004F55D128E00A4218BF39
:105CC000012200D1022210F5000F13D028B3B0F149
:105CD000004F26D010F1814F4FD04FF0FE42B2EB73
:105CE000400F94BF01200020012202EBE1718842A5
:105CF00039D10CE011F0004F02D0012A38D032E047
:105D0000012A02BF9FED350ABDEC068B10BD9FED49
:105D1000340ABDEC068B10BD2FE011F0004F0CD102
:105D200021E0B1F1FF4F1ED011F5000F05D011F0A9
:105D3000004F15D00AB1012A08D0022000F054FB10
:105D4000BDEC068BBDE8104000F05ABA022000F00E
:105D50004BFB00F055FABDEC068BB1EE400A10BDCE
:105D60000AB1012A04D0B0EE690ABDEC068B10BD61
:105D7000BDEC068B9FED1B0A10BDBDEC068BB7EE8C
:105D8000000A10BD30EE410AB5EE001A9FED172A49
:105D900000EE413AB6EE001A60EE001A00EE431A29
:105DA00061EEC11A9FED101A20EE011A20EE020AD0
:105DB0009FED0F2A01EE820A71EE001A11EE900A91
:105DC00000F500606FF30B0009EE100A31EE491A7E
:105DD00031EE00AA9CE50000FFFF3F00000080FFBD
:105DE0000000807F0000008000B0B841D49A38BB2A
:105DF0003BAAB84110B52DED028BB0EE408A18EEEB
:105E0000100AFDF740FE01EE100A18EE100AB7EE78
:105E1000000A78EE410A10F0004F4FF07F4010EE7C
:105E2000901A12D0B1F13F4F24BF10EE901AB0EB90
:105E3000410F12D210EE901AB1F17C5F1CDD10EE12
:105E4000901AB0EB410F17D314E0B1F13F4F07D9CF
:105E500010EE901AB0EB410F02D331EE401A0BE076
:105E600010EE901AB1F17C5F06DB10EE901AB0EBE9
:105E7000410F01D331EE001A18EE100ABDEC028B6F
:105E800011EE101A61F31E0000EE100A10BD0000A2
:105E900000B510EE101A2DED028B81B0524A684603
:105EA000B2EB410F2ED94FF0E640B0EB410F94BF5B
:105EB00000204FF0FF3000900098B0EE408A00289C
:105EC0006ADB10F0010F4BD068EE080A9FED471A0D
:105ED0009FED470A00EE810A9FED461A10F0020F6F
:105EE00000EE801AB7EE000A00EE810A02BF01B090
:105EF000BDEC028B00BD00BF01B0B1EE400ABDECAD
:105F0000028B00BD3C4B21F00042934241D911F07D
:105F1000004FDFED3A0A20EE201ADFED390A19BFF3
:105F200031EE601A71EE200A31EE201A71EE600A2D
:105F3000BDEEE01A11EE100A9FED321A00F00300D8
:105F400000EEC10A9FED301A009000EEC10A9FEDED
:105F50002F1A00EEC10A9FED2E1A00EEC10AABE720
:105F600028EE080A9FED2B1ADFED2B0A10F0020F26
:105F700040EE410A9FED291A00EE201A61EE000A58
:105F8000B0EE480A08EE200AB6D101B0BDEC028B93
:105F900000BD00F05DF98FE718EE100A4000B0F187
:105FA0007F4F0DD218EE100AFEF798F9042808BFAB
:105FB00000F046F9B0EE480A01B0BDEC028B00BD1E
:105FC00009D1012000F010FA01B0BDEC028B5DF8A0
:105FD00004EB00F025B901B0B0EE480ABDEC028B2D
:105FE0005DF804EB00F016B9B61F927EB93AB2BA6A
:105FF000CA9F2A3DDDFFFFBE490E494683F9223F75
:106000000000004B0000C93F00A0FD390020A23372
:106010001A61342C336D4C39DA82083CA0AA2ABEAE
:1060200010B52DED028BB1EEC08A18EE100A20F0EB
:106030000040C0F1FF40C00F0AD010EE100A20F05F
:106040000040C0F1FF40C00F04BF012000F0CCF9B8
:10605000B0EE480ABDEC028B10BD70B504462DEDC4
:10606000028B4D1E00EBC500B0EE408AF0EE608A58
:1060700090ED000B35F0060017D053EC182B51ECC7
:10608000100BFDF7CDFA41EC100B6D1E04EBC500B3
:1060900090ED001B51EC100B53EC112BFDF719FA8E
:1060A00041EC100B35F00600E7D1022D36D0042D5F
:1060B0001CD0062D1CBFBDEC028B70BD53EC182B01
:1060C00051EC100BFDF7ACFA94ED0A1B53EC112BBD
:1060D000FDF7FFF953EC182BFDF7A2FA94ED081B1E
:1060E00053EC112BFDF7F5F941EC100B53EC182B89
:1060F00051EC100BFDF794FA94ED061B53EC112BA9
:10610000FDF7E7F953EC182BFDF78AFA94ED040B31
:1061100053EC102BFDF7DDF941EC100B53EC182B71
:1061200051EC100BFDF77CFA94ED021B53EC112B94
:10613000FDF7CFF953EC182BFDF772FA94ED001B25
:1061400053EC112BFDF7C5F9BDEC028B41EC100BA4
:1061500070BD0000000000009FED070B10B553EC70
:10616000102B9FED070B51EC100BFDF7CBFA41EC18
:10617000100B10BD00000000000000000000000037
:10618000000000000000F03F10B553EC112B51EC63
:10619000100BFDF79EF941EC100B10BD0000000044
:1061A0009FED050B10B553EC102B51EC100BFDF7C8
:1061B000A9FA41EC100B10BD000000000000000027
:1061C0009FED050B10B553EC102B51EC100BFDF7A8
:1061D00027FA41EC100B10BD000000000000007019
:1061E0009FED050B10B553EC102B51EC100BFDF788
:1061F00017FA41EC100B10BD000000000000001069
:10620000DFED030AB7EE001A81EE200A70470000A6
:106210000000000030EE000A704730EE200A7047A0
:10622000DFED020A80EEA00A7047000000000000C7
:106230009FED020A20EE000A704700000000007087
:106240009FED020A20EE000A7047000000000010D7
:106250002DE9F0014FF07F42B2EB410F9FBF4FF0AD
:10626000FF310160BDE8F00170474FF0004242EAA3
:106270000123C1F3C752783A551112F01F0C434C59
:10628000CCF120067C44C1F3C752A2F178024FEA58
:10629000621204EB820254F8254008BFD2E901568D
:1062A00012D0556804FA0CF425FA06F73C439768B7
:1062B00005FA0CF527FA06F8D26807FA0CFCF2404A
:1062C00045EA08054CEA0206A4FB034CA5FB035271
:1062D000A6FB03631D449D4234BF0126002613190B
:1062E000334416B1934202D903E0934201D2012212
:1062F00000E00022624402F1200C9206DC0C42EA2B
:10630000443200EE102A5B03DFED210AF8EEC01ADA
:1063100000EE103A4FEA9C1C11F0004FB8EE400A14
:10632000C0F800C020EE201A00EE105ADFED190A66
:10633000B8EE400A20EE200A71EE810A70EE800A63
:1063400010EE902A02F500626FF30B0200EE902A25
:1063500070EEE11A31EEC11ADFED101A30EE411A7B
:106360009FED0D0A20EE800A01EE210A9FED0C1A26
:1063700000EE810A04BFBDE8F0017047CCF1805106
:106380000160BDE8F001B1EE400A7047009A0000DC
:10639000000000360000802C22AAFD29DB0FC92F47
:1063A0000000C92F02E008C8121F08C1002AFAD154
:1063B00070477047002001E001C1121F002AFBD185
:1063C000704700000121202803DA81400548014080
:1063D00003E0402802DA2038814009B101207047EB
:1063E00000207047FC06FFBD0149086070470000AF
:1063F000442200202DE9FF4F8DB00F4605460026B0
:1064000006E025280BD0DDE90F1290476D1C761CA5
:1064100028780028F5D111B03046BDE8F08F00246F
:10642000A246A1460122EC4900E0044315F8013FD1
:10643000203B02FA03F00842F7D128782A2810D02E
:106440006FF02F022878A0F13001092914D80AEB47
:106450008A0102EB410144F0020400EB010A6D1CC9
:10646000F0E701CF5FEA000A03D544F40054CAF113
:10647000000A44F002046D1C28782E2817D115F864
:10648000010F44F004042A280ED06FF02F02287860
:10649000A0F1300109290AD809EB890102EB410179
:1064A00000EB01096D1CF2E757F8049B6D1C28787E
:1064B0006C280FD006DC4C2817D068280DD06A282D
:1064C00014D104E0742810D07A280FD10DE044F4E0
:1064D00000140AE044F4801401E044F440146978A4
:1064E000814202D104F580146D1C6D1C2A786E2A3D
:1064F0001FD00CDC632A31D004DC002A8BD0582A50
:1065000011D1A3E0642A68D0692A0CD165E0732A0E
:106510002ED004DC6F2A73D0702A04D19BE0752A38
:106520006FD0782A6ED01046DDE90F129047761CA6
:1065300050E1C4F30250022806D0032809D00428F1
:1065400001CF09D0066045E101CFF117C0E9006134
:1065500040E101CF06803DE106703BE117F8040BF6
:106560008DF8000000208DF80100EB46012003E0CB
:1065700057F804BB4FF0FF3061074FF0000102D421
:106580000DE008F10101884649450FDA8045F8DB46
:106590001BF808100029F4D108E008F10101884631
:1065A0008142FADB1BF808100029F6D1DDE90F2340
:1065B000AAEB08008146214600F036F9304400EB92
:1065C000080604E0DDE90F121BF8010B9047B8F153
:1065D0000108F7D221464846F7E00A21C4F30253E6
:1065E0004FF0000B0891022B04D001CFC117032BF1
:1065F00009D00AE0FF1D27F00707F7E8020108E0CD
:1066000032E01FE020E000B2C117042B01D140B2FC
:10661000C117031E71F1000307DA4FF0000CD0EB35
:106620000C006CEB01012D2302E0230504D52B2384
:106630008DF82430012303E0E30701D02023F7E79E
:10664000984658E00A2110E010210EE010204FF08B
:10665000000B08900CE010214FF0000B44F00404F4
:106660004FF00809089103E008214FF0000B089152
:10667000C4F30253022B04D001CF0021032B06D018
:1066800006E0FF1D27F00707F7E8020103E080B2EC
:10669000042B00D1C0B24FF0000823072BD5702A7D
:1066A00007D0DDF820C08CF0100C5CEA0B0C05D094
:1066B0000EE040238DF82430012308E050EA010366
:1066C00006D030238DF824308DF8252002239846FB
:1066D000DDF820C08CF0080C5CEA0B0C0BD150EA02
:1066E000010301D1630706D530238DF824304FF024
:1066F0000108A9F10109582A04D038A20B9208AA6E
:106700000A920BE03AA2F9E75B46089AFCF730FEE2
:106710000B9B9B5C0A9A521E0A92137050EA01026C
:10672000F2D10A98ADEB000000F1200B600702D512
:1067300024F4803401E04FF00109D94502DDA9EBD2
:106740000B0000E0002000EB0B0141440890AAEB95
:10675000010AE00306D4DDE90F232146504600F08C
:1067600063F806444FF0000908E009A911F8090090
:10677000DDE90F12904709F10109761CC145F4DBF0
:10678000E0030CD5DDE90F232146504600F04CF81C
:10679000064404E0DDE90F1230209047761C08998A
:1067A000481E08900029F5DC08E00A980A9900784C
:1067B000491C0A91DDE90F129047761CBBF10001DC
:1067C000ABF1010BF1DC21465046DDE90F2300F06F
:1067D00019F806446D1C1BE60928010030313233DC
:1067E000343536373839616263646566000000000D
:1067F00030313233343536373839414243444546F7
:10680000000000002DE9F041044600251E46174611
:10681000880404D405E039462020B0476D1C641E6E
:10682000F9D52846BDE8F0812DE9F0410446002560
:106830001E469046C80301D5302700E02027880473
:1068400004D505E041463846B0476D1C641EF9D5B5
:106850002846BDE8F0810A68531C0B601070704731
:106860001FB5002000900290019003908DF8000069
:106870008DF80800A020ADF80A000520ADF80C0046
:106880000121684673DF08B100F06AF8002004F0C7
:10689000A5FF1FBD70B50024084D05E0686810F81D
:1068A000340006F069F9641C28788442F6D3044861
:1068B0000068BDE8704000F0DFB80000B42100209F
:1068C000F0F3020070B50024064D06E0686801216F
:1068D00010F8340006F074F9641C28788442F5D36B
:1068E000002070BDB4210020134C0121208801EB51
:1068F000004012A106F070FE06F038FF06F094FD8D
:106900000028FBD10F480068C00700D000BE2088D7
:10691000032101EB00400CA106F05EFEBFF34F8F98
:106920000848E43801680D4A01F4E0611143016050
:10693000BFF34F8F00BFFDE79C22002046617461CA
:106940006C000000F0ED00E0486974207765616B31
:106950002068616E646C6572000000000400FA0536
:106960000EB500210091CDE901106A4644F2010004
:10697000FFF7BAFF0EBD0000074B9B7823B12AB189
:1069800020B10068037C1BB10820704707207047C6
:106990004174426100207047F825002070B507F06F
:1069A00035FD104800240B21047044700E4D817099
:1069B00014206C602C706C70FDF75CFA07211420B9
:1069C000FDF779FA1420FDF760FA08480460072102
:1069D0001120FDF770FA0548001F0068A86000202C
:1069E00070BD0000F8250020C821002008150140D6
:1069F0002DE9FC47DFF8789099F8023073B368B35B
:106A0000052902D20720BDE8FC87436933B3437CE4
:106A1000012B25D0002704460025884616468DF810
:106A20000050684600F038F801A808F0AFFBC8B184
:106A3000012101700F4944600968C0E90218C0E9EA
:106A400004769DF8040089F801009DF8000000F02C
:106A500047F81420FDF724FA2846D4E70820D2E7A7
:106A60000F46D8E704259DF8000000F039F8F3E759
:106A7000F8250020041501400649897839B130B164
:106A8000416921B100210174022107F0B3BF082040
:106A900070470000F825002030B5EFF3108172B682
:106AA0000D4A9468012324B10370002900D162B615
:106AB00030BD93604FF0E023D3F88051074C254060
:106AC0001560C3F88041D3F8844154605A17C3F865
:106AD000842100220270E8E704270020FC06FFBDA5
:106AE0000B498A68002A11D000280FD1EFF31080DB
:106AF00072B60B684FF0E022C2F800314B68C2F862
:106B0000043100228A60002800D162B6704700007C
:106B1000042700202DE9F041064608680C46411C78
:106B20004FF0A0474FF0010506D005FA00F1C7F875
:106B30000815206806F04CFB6068411C02D000215B
:106B400006F03DFB3079204901EB4010A169007F40
:106B500000283068C0F8241525D0607D227D31687A
:106B60001043C1F86C05D4E900123068C0F80C1568
:106B7000C0F8142524E0A068411C02D0002106F0D2
:106B80001EFBE068411C05D08540C7F80855E06849
:106B900006F01EFBD4E902123068C0F80825C0F8E0
:106BA0001015BDE8F081607D217D32680843C2F890
:106BB0006C05D4E900123068C0F81425C0F80C1533
:106BC000207D0128D7D0ECE7902500202DE9FC4757
:106BD000002517880646158090F82D001446894632
:106BE00030B13A462146484600F01AF9050009D16D
:106BF000B0784FF00C0A18B32088C846001DB84280
:106C000002D95046BDE8FC87684679DF0028F9D1F3
:106C10002088032108F8001020881921401C80B228
:106C2000208008F800102088401C80B2208000EBF3
:106C30000801BDF8000008F016FA218808442080F9
:106C4000F0780222C8B1218896F9033001F1030CD3
:106C50004846BC45D5D8425421884FF0010C491C08
:106C600089B2218000F801C02188491C89B22180A5
:106C700009F801302088401C20807068B8B1218854
:106C800090F9003001F1030C4846BC45B9D8425494
:106C900021880A22491C89B2218042542188491C3A
:106CA00089B2218009F801302088401C2080308979
:106CB00050B1CDE900474B460622022106F10800FB
:106CC00008F07CFA05009DD1308A50B1CDE900472B
:106CD0004B460722032106F1100008F06FFA050069
:106CE00090D1308B50B1CDE900474B46152214218D
:106CF00006F1180008F062FA050083D1306A30B15D
:106D00003B462246494604F001FF0500DBD1706A8C
:106D100030B13B462246494605F012FC0500D2D16F
:106D200096F82C0038B13B4622464946304607F0DB
:106D3000C5FC0500C7D1307838B13B4622464946EC
:106D4000304605F0AFFC0500BDD128465AE7F0B546
:106D50000C4693B01F210726ADF80010ADF80410C3
:106D6000002750B1C17849070DD56A4602A9FFF73F
:106D70002DFF002808D102AD02E00025ADF800701B
:106D80006CB1E07810B1304613B0F0BD01AA0AA989
:106D90002046FFF71BFF0028F6D10AAA02E00022D6
:106DA000ADF80470BDF80400C3B2BDF80000C1B274
:106DB000284672DFE8E7000070B5040012D00146F3
:106DC0001C221448FCF75AFB1248134D056020683A
:106DD00050B17ADF002806D1206801682960406838
:106DE000686005E00E2070BD0B487BDF0028FAD1FB
:106DF00008484FF6FF711438084A20F8041B05496B
:106E0000343901600021FFF7B7FD0028EBD00320E3
:106E100070BD000050240020AC21002025F10200AC
:106E20007CB5054608880C460930904201D90C20F3
:106E30007CBD68466DDF0028FAD12188082068549F
:106E400020881B21401C80B2208029542088401CAF
:106E500080B220802844DDF801100160BDF80510E3
:106E600081802088801D80B220809DF80010490814
:106E700000D0012129542088401C208000207CBDA6
:106E800030B50188424D89B00446212946D018DC2E
:106E9000012957D03F4803221029008802EB004007
:106EA0001BD0112927D0132940D100231A46852150
:106EB00028897FDF002839D009B0BDE83040FFF7CE
:106EC0004FBD3B293AD0512940D0522930D05629C4
:106ED0002CD18088132176DFECE72FA106F07CFB14
:106EE000012004F07BFC002004F070FCA0882881C5
:106EF000FFF7E8FCDEE72BA106F06EFB012004F0B3
:106F000065FC4FF6FF702881FFF7C4FC08B1FFF75E
:106F100027FD09B0BDE83040FFF7A2BC002000907B
:106F2000A08869468FDF2EE0FFF71AFD09B030BD5B
:106F300000231A4619462889A9DFBBE78088132158
:106F400076DFB7E78088002166DFB3E71022A11D56
:106F500004A8FCF793FA9DF810100029E6D09DF8DC
:106F60001800042803D0062801D00528DED1022904
:106F70000CD001208DF800004FF4C170ADF8040072
:106F8000A0886946A8DF0028CED1CFE70220F1E72C
:106F9000802100209C220020436F6E6E6563746523
:106FA00064000000446973636F6E6E6563746564AA
:106FB000000000002DE9F04701883B4E40F2F31934
:106FC0004FF6FF7510291BD011293ED0122954D03D
:106FD000502946D1C188F289841D914241D16189ED
:106FE00002293ED18688304604F036FE050038D0AE
:106FF00004F10C0000F025F9A8B3294630464EE014
:10700000C17B8788044601292BD1A846284604F075
:1070100023FE050017D02F80002028722348434606
:107020004A460168C5F80A104068C5F80E0004F128
:10703000100105F10A0004F050FF6872F089002881
:107040000FD129462AE0042013E0808804F004FED2
:10705000040006D06068FFF70FFD08B107F012FBCF
:107060002580BDE8F087FFE76868FFF705FD002889
:10707000F7D0BDE8F04707F005BB878806463846DD
:1070800004F0EAFD0400ECD02B464A4606F1080164
:1070900004F10A0004F021FF607221463846BDE881
:1070A000F04704F079BD000050240020AC210020FE
:1070B0002DE9F047044603883F480122A4B000F1BF
:1070C000480A102B09D0112B54D01A2B70D1217AD9
:1070D000B2EB111F53D2012352E0D0E911218A43B0
:1070E0000546011D12A807F0A0FA442212A901A822
:1070F000FCF7C4F9DFF8C0900026374609F14409CF
:107100000DF104080AE000BF08EB46001D22838849
:107110004946281D009707F04DFA761C0198B042A9
:10712000F2D8686CA688C04307F066FAA0F57F41E4
:10713000FF3917D005EB40000123868032465146C7
:10714000281D07F097FA012332464946281D07F00B
:1071500091FAE07B02280BD000231749A2884C311A
:10716000281D20E024B00420BDE8F047FFF7F8BB5D
:107170000123F2E70023A2885146001D13E00023FB
:107180000D490546A2885031001D07F073FA207A98
:107190000221B1EB101F01D2012300E000230649B8
:1071A000A2885431281D24B0BDE8F04707F062BA28
:1071B00024B0BDE8F08700006C24002030B5044600
:1071C000134B85B008680D4660610FCB8DE80F004A
:1071D00004F11201684662DF002816D1A07C8DF808
:1071E000120041F22350ADF81000224604A90120FC
:1071F000A0DF002809D12946204604F075FB0028AD
:1072000003D12946204604F08AFE05B030BD0000B7
:10721000D0F3020030B40288502A10D1034630F86F
:10722000062F4C88A2420AD14289012A07D14C6913
:10723000002C04D0027B9888A44630BC604730BC48
:107240007047007800F001007047F8B50D4603461E
:1072500000214FF0FF300E466C466654491CC9B2FF
:107260000229FAD39BB1012B21D0022B0ED192F827
:107270003000966B22464C21B04700216B18625CAF
:10728000491CC9B283F82F200229F7D3F8BD92F820
:1072900030000223966B22462A21B0470022AB1809
:1072A000A15C521CD2B25973022AF8D3F8BD92F8ED
:1072B00030000223966B22463B21B04700216B1819
:1072C000625C491CC9B29A770229F8D3F8BDF8B5B7
:1072D0000D46034600214FF0FF300E466C466654C3
:1072E000491CC9B20229FAD39BB1012B21D0022B30
:1072F0000ED192F83000966B22464721B04700210C
:107300006B18625C491CC9B283F82A200229F7D3A2
:10731000F8BD92F830000223966B22462521B04733
:107320000022AB18A15C521CD2B21972022AF8D307
:10733000F8BD92F830000223966B22463621B04702
:1073400000216B18625C491CC9B25A760229F8D335
:10735000F8BDF8B50D46034600214FF0FF300E464C
:107360006C466654491CC9B20329FAD3A3B1012B58
:1073700022D0022B0FD192F830000323966B2246C5
:107380004121B04700216B18625C491CC9B283F8E7
:1073900024200329F7D3F8BD92F830000323966B1D
:1073A00022461F21B0470022AB18A15C521CD2B26A
:1073B0009970032AF8D3F8BD92F830000323966B36
:1073C00022463021B04700216B18625C491CC9B2CB
:1073D000DA740329F8D3F8BDF8B515460E4602460F
:1073E00000214FF0FF300B466C466354491CC9B274
:1073F0000329FAD322B3012A41D0022A1FD1032341
:10740000AF6B95F8300022464421B847002032186F
:10741000215C401CC0B282F827100328F7D395F8EE
:107420003000AD6B03236A464921A8470021731839
:10743000625C491CC9B283F82C200329F7D3F8BD3C
:107440000323AF6B95F8300022462221B847002075
:107450003218215C401CC0B251710328F8D395F852
:107460003000AD6B03236A462721A847002173181B
:10747000625C491CC9B29A720329F8D3F8BD032390
:10748000AF6B95F8300022463321B8470020321800
:10749000215C401CC0B291750328F8D395F83000E8
:1074A000AD6B03236A463821A84700217318625C3C
:1074B000491CC9B2DA760329F8D3F8BD70B501EBDF
:1074C0008101049C04EBC1058418052B1CD2DFE864
:1074D00003F0031C293C49006079A179000340EACC
:1074E0000110E17940EA1110FCF7A2F9C5E90401A5
:1074F000A078E178000340EA0110217940EA1110F8
:10750000FCF796F9C5E9020170BD6079A179000325
:1075100040EA0110E17940EA1110FCF789F9C5E968
:10752000040170BD6079A179000340EA0110E1799E
:1075300040EA1110FCF77CF9C5E90401208940BA42
:10754000FCF776F9C5E9060170BD68790128FBD121
:10755000607BA17B800040EA9110FCF769F9C5E9E6
:10756000080170BDA078E178000340EA011021799C
:1075700040EA1110FCF75CF9C5E902016079A179D4
:10758000000340EA0110E17940EA1110FCF750F9DC
:10759000C5E90401208940BAFCF74AF9C5E90601AA
:1075A000D3E700002DE9F8430546089800241E465D
:1075B00090F8310090460F4601282FD05FF0030766
:1075C00004EB0410C2B2A85CC10904EB840006F805
:1075D0003010A95C06EBC000C1F380114170A95CBA
:1075E000C1F340118170A95C21F0F001C170A918AC
:1075F0004B7803718B7B23F0F003C3718B7BC3F358
:1076000040134371897B4346C1F300118171E1B29C
:1076100028460096FFF752FF641C64B2BC42CFDBE1
:10762000BDE8F8832DE9F0419FED360A90462DED37
:10763000088B0022AAB01446F0EE409A8DF8A020E4
:107640001746B0EE409AF0EE408AF0EE40AAB0EE57
:1076500040AAB0EE408AB0EE40BA00294DD00A22CE
:107660008DF8A02028AB6A4603F0E8FE0346694681
:107670002DE000BF01EB0410427B062A21D006DC7E
:10768000012A0BD0042A19D0052A1ED10DE0072AA1
:1076900011D00D2A06D00E2A17D109E0D0ED029A9A
:1076A000877B10E090ED029A0DE0D0ED02AA0AE08F
:1076B00090ED02AA07E090ED02BA04E0D0ED028A54
:1076C00001E090ED028AD0E90056641CE4B29DF816
:1076D000A0008442CED3B0EE4B3AF0EE482AB0EE92
:1076E000682AF0EE6A1AB0EE4A1AF0EE490A3A46F3
:1076F000B0EE690A28463146C0472AB0BDEC088B77
:10770000BDE8F081000000002DE9FC470646DDF8E9
:1077100028801C4615460F465FEA08007ED00020F0
:107720008DF804000146514A01A801F0EDF89DF8DA
:107730000400002872D04D4B04220121A3F148001F
:1077400001F040F949480090A0F1200104230122F2
:10775000483800F08BF9DFF814915FEAC870A9F19E
:10776000200916D02178012005EB0111487399ED0D
:10777000000B51EC100BFCF721F9217805EB0111FE
:107780008860207805EB0010C0E900672078401C75
:1077900020705FEA48702BD52178032005EB01119A
:1077A000487399ED020B51EC100BFCF707F92178A7
:1077B00005EB0111886020780E2105EB0010C0E96F
:1077C00000672078401CC0B2207005EB00104173A8
:1077D000274890ED000A207805EB001080ED020AA2
:1077E000207805EB0010C0E900672078401C20706D
:1077F0005FEA887018D52178022005EB01114873E3
:1078000099ED040B51EC100BFCF7D8F8217805EB3F
:1078100001118860207805EB001000E023E0C0E94A
:1078200000672078401C20705FEA08701BD50F4865
:1078300048384079002816D02178042005EB011142
:10784000487399ED060B51EC100BFCF7B7F8217853
:1078500005EB01118860207805EB0010C0E9006796
:107860002078401C2070BDE8FC870000D823002051
:10787000A8210020F0B50E462DED048B81B000212B
:1078800004468DF80010007D00287CD04B484170E4
:10789000227CC2700170E17C0171617C8171A17CEC
:1078A000417100F1800101F093FA207C012501284B
:1078B0000BD14248A1890A304180E189C18280F818
:1078C0002A5000F1760101F0CAF93C4901208031CB
:1078D00001F055FAA17C05FA01F0FBF798FF9FED46
:1078E000389B53EC192BFBF7F4FD41EC100B9FED8B
:1078F000361B53EC102B51EC110BFBF7EAFDFCF798
:107900005DF8617C074605FA01F0FBF780FF53EC58
:10791000192BFBF7DEFD41EC180B3846FCF70AF893
:1079200053EC182BFBF7D5FDFCF748F80746E07C35
:1079300005FA00F0FBF76BFF53EC192BFBF7C9FDC1
:1079400041EC180B3846FBF7F5FF53EC182BFBF70F
:10795000C0FDFCF733F808EE100A207CC0B1E089C6
:10796000FBF766FF9FED1A1B53EC112BFBF7B1FDE4
:1079700041EC190B18EE100AFBF7DCFF53EC192B46
:10798000FBF7A7FD00E008E0FCF718F808EE100A86
:10799000BCEEC80A10EE100A09E0084968468031BA
:1079A00000F0F0FF9DF80000012802D10520B0474B
:1079B000F3E701B0BDEC048BF0BD000058230020BC
:1079C000000000000000E03F000000000000F03F69
:1079D000000000000000044000B599B0012105201E
:1079E0008DF804108DF860008DED000A0D218DF8E2
:1079F0000C108DED020A8DF814008DED040A0E2096
:107A00008DF81C008DED060A07218DF824108DEDF0
:107A1000080A04208DF82C008DED0A0A06208DF846
:107A200034008DED0C0A18AB0EAA684603F0BEFEBA
:107A300019B000BDF0B500252C46561E12E0171BEC
:107A4000A3EB050C0744844417F8017C0CF8017C77
:107A50008F187F1E491EAD1C641C0CF8027CC9B235
:107A60006DB264B2B442EADBF0BD00002DE9F05F14
:107A70000D468046511E2DED028B9B4691464FF0E0
:107A8000FF304FF0030A03297ED20C9991F8311090
:107A9000002979D0012901D0002477E04FF00109B5
:107AA0005FF00004BBF1050F6CD2DFE80BF01503AB
:107AB0003258740004EB840108EBC10090ED040B14
:107AC00051EC100BFBF7E0FE0C9900F0ADFB05EB61
:107AD000441080ED020B55E004EB840108EBC10774
:107AE00097ED040B51EC100BFBF7CEFE0C9900F058
:107AF0009BFB05EB441686ED020B97ED020B51EC58
:107B0000100BFBF7C1FE0C9900F00AFA86ED000B92
:107B100038E004EB840108EBC10797ED040B51EC4E
:107B2000100BFBF7B1FE0C9900F07EFB05EB441641
:107B3000B0EE408A86ED020BF0EE608A97ED060B00
:107B400051EC100BFBF7A0FE80B2B0EE480AF0EE4D
:107B5000680A0C9900F002F986ED040B12E004EBC0
:107B6000840108EBC10696ED080B51EC100BFBF7F6
:107B70008BFE80B2F1790C9A00F050F805EB4410BE
:107B800080ED060B641C00E043E0E4B24C453FD2BC
:107B9000544587D33CE004EB840108EBC10797ED23
:107BA000040B51EC100BFBF76FFE0C9900F03CFB43
:107BB00005EB441686ED020B97ED020B51EC100B12
:107BC000FBF762FE0C9900F0ABF986ED000B97ED28
:107BD000060B51EC100BFBF757FE80B296ED020B33
:107BE0000C9900F0BBF886ED040B97ED080B51ECF7
:107BF000100BFBF749FE80B2F9790C9A00F00EF8F1
:107C0000641CE4B286ED060B4C4501D25445C2D348
:107C10000020BDEC028BBDE8F09F000070B515465A
:107C20002DED088BC0B00C46064680223E496846C2
:107C3000FBF724FC3C498022803120A8FBF71EFC86
:107C400095F90D00FBF7E3FD9FED381B53EC112B6D
:107C5000FBF7E6FC9FED371B53EC112BFBF739FCD0
:107C600041EC190B684600EBC4009FED34BB90ED6E
:107C7000000B53EC1B2B51EC100BFBF743FD9FED5E
:107C8000318B53EC182BFBF724FC53EC192BFBF72F
:107C9000C7FC41EC1A0B20A800EBC40053EC1B2BD3
:107CA00090ED000B51EC100BFBF72CFD53EC182B57
:107CB000FBF70FFC41EC190B3046FBF7B9FD9FEDCC
:107CC000231B53EC112BFBF7A5FC53EC1A2BFBF7F2
:107CD00019FD53EC182BFBF7FCFB41EC1A0B0120B0
:107CE000A040FBF794FD9FED1B0B41EC1B0B53ECED
:107CF000102B51EC190BFBF793FC53EC1B2BFBF7F0
:107D00008FFC53EC1A2BFBF78BFC41EC100B51EC66
:107D1000180B53EC102BFBF7F5FC40B041EC100BAB
:107D2000BDEC088B70BD0000B0F202000000000046
:107D3000000014400000000000F09440000000002B
:107D400000005940000000000000F03F000000006B
:107D5000000080408DEDB5A0F7C6803E70B50546A9
:107D60002DED0C8B0C46B0EE408AF0EE608A9FED54
:107D70005ACB9FED5BBB91F90500FBF748FD9FEDEA
:107D80005A1B53EC112BFBF74BFC53EC182BFBF756
:107D900047FC41EC190B208CFBF74AFD9FED541B6F
:107DA00053EC112BFBF73CFC53EC192BFBF791FB2D
:107DB00041EC190B2846FBF73BFD53EC192BFBF765
:107DC00029FC41EC190B94F90700FBF720FD9FED0E
:107DD0004A1B53EC112BFBF723FC53EC182BFBF73E
:107DE0001FFC53EC182BFBF71BFC41EC1A0B94F90E
:107DF0000600FBF70CFD9FED42DB53EC1D2BFBF760
:107E00000FFC53EC182BFBF70BFC9FED3F1B53ECC7
:107E1000112BFBF75EFB53EC1A2BFBF75AFB41ECE3
:107E20001A0B608CFBF704FD9FED391B53EC112BF3
:107E3000FBF7F6FB53EC1A2BFBF7F2FB53EC192B79
:107E4000FBF7EEFB41EC190B207AFBF7F1FC53EC4E
:107E50001D2BFBF7E5FB41EC1A0B94F90900FBF72E
:107E6000D6FC9FED2D1B53EC112BFBF7D9FB53ECEC
:107E7000182BFBF7D5FB53EC1A2BFBF72AFB53EC23
:107E8000192BFBF7CDFB53EC192BFBF7C9FB53EC7C
:107E9000192BFBF71EFBB0EE4C9AF0EE6C9A41ECFE
:107EA000180B53EC192BFBF771FD0AD3B0EE4B9A6C
:107EB000F0EE6B9A53EC192B51EC180BFBF74EFDBF
:107EC00003D2B0EE498AF0EE698AB0EE480AF0EECD
:107ED000680ABDEC0C8B70BD00000000000059402A
:107EE0000000000000000000000000000000E03F73
:107EF0000000000000003040000000000000B03E24
:107F0000000000000000103F000000000000F03FF3
:107F1000000000000000D03E000000000000A03E75
:107F200070B505462DED0C8B0C469FED9BBB486A4A
:107F3000FBF76DFC9FED9A0B53EC102BFBF770FBDE
:107F40009FED991B53EC112BFBF764FB41EC180BD5
:107F500094F90200FBF75BFC9FED95AB53EC1A2BF9
:107F6000FBF75EFB41EC190B53EC182B51EC180B93
:107F7000FBF756FB53EC192BFBF752FB41EC190BAB
:107F8000B4F91A00FBF743FC53EC182BFBF748FB42
:107F90009FED891B53EC112BFBF742FB53EC192B84
:107FA000FBF797FA41EC190BB4F91800FBF72FFC1B
:107FB0009FED831B53EC112BFBF732FB41EC1C0BA9
:107FC0009FED810B51EC190B53EC102BFBF728FBA9
:107FD00053EC1C2BFBF77DFA41EC190BB4F916009E
:107FE000FBF715FC53EC182BFBF71AFB41EC1C0BB1
:107FF00094F90100FBF70BFC53EC182BFBF710FB7B
:1080000053EC182BFBF70CFB9FED711B53EC112B62
:10801000FBF706FB53EC1C2BFBF75BFA9FED6E1B8B
:1080200053EC112BFBF7FCFA41EC180BA08AFBF781
:10803000FFFB41EC1D0B9FED6ACB51EC180B53EC91
:108040001C2BFBF7EDFA9FED681B53EC112BFBF794
:1080500040FA53EC1D2BFBF7E3FA41EC180B2846D2
:10806000FBF7E6FB9FED621B53EC112BFBF7D5FAF8
:1080700041EC1D0B51EC180BFBF7E7FB00287DD002
:108080009FED5D0B51EC190B53EC102BFBF7C8FA6D
:1080900053EC1D2BFBF7C1FA9FED591B53EC112B31
:1080A000FBF7BEFA53EC182BFBF72CFB41EC190B3A
:1080B000B4F91E00FBF7ABFB53EC192BFBF7B0FA3E
:1080C00053EC192BFBF7ACFA9FED4F1B53EC112B24
:1080D000FBF7A6FA41EC1B0BB4F91C00FBF797FB6E
:1080E00053EC1C2BFBF79CFA53EC192BFBF798FA7B
:1080F00041EC1C0B2079FBF79BFB53EC1A2BFBF795
:108100008FFA41EC1A0B9FED420B51EC190B53EC1B
:10811000102BFBF785FA41EC180B53EC182BFBF7EF
:108120007FFA53EC182BFBF77BFA53EC1A2BFBF777
:1081300077FA41EC180B94F90300FBF768FB9FED0D
:10814000361B53EC112BFBF76BFA41EC1A0B53EC7B
:108150001C2B51EC1B0BFBF7BCF953EC182BFBF75A
:10816000B8F953EC1A2BFBF7B4F99FED2D1B53EC28
:10817000112BFBF755FA53EC192B00E006E0FBF747
:10818000A8F941EC100BBDEC0C8B70BDB0EE4B0AA6
:10819000F0EE6B0AF7E700000000000000000000AE
:1081A000000000000000E03F000000000040EF4041
:1081B000000000000000E03E000000000000004061
:1081C000000000000000F040000000000000D03F70
:1081D000000000000000103F000000000000C03E52
:1081E000000000000000003F000000000000F03F21
:1081F0000000000000003041000000000000303F9F
:1082000000000000006AB840000000000000003ECE
:10821000000000000000703F00000000000060400F
:10822000000000000000B03F2DE9F04104462DEDB4
:108230000A8B0F46B1F91200FBF7E9FA41EC180B73
:10824000388AFBF7F5FA884648EC100B05469FED97
:10825000451B51EC100B53EC112BFBF7E1F941ECF2
:10826000190B2046FBF7E4FA0E4646EC100B9FED87
:108270003F1B044653EC112B51EC100BFBF7D0F9CC
:1082800053EC192BFBF7C6F953EC182BFBF7C8F985
:1082900041EC190B97F90000FBF7B9FA9FED351B7C
:1082A00053EC112BFBF7BCF948EC105B9FED33ABA3
:1082B00041EC180B53EC1A2B51EC100BFBF7B0F9F7
:1082C00046EC104B9FED2FCB41EC1B0B53EC1C2BC2
:1082D00051EC100BFBF7A4F953EC1B2BFBF79AF9AD
:1082E00048EC105B41EC1B0B53EC1A2B51EC100BC0
:1082F000FBF796F946EC104B41EC1A0B53EC1C2B98
:1083000051EC100BFBF78CF953EC1A2BFBF782F9AD
:1083100053EC1B2BFBF784F953EC182BFBF780F97C
:1083200041EC100B51EC190B53EC102BFBF7D1F86F
:108330000D4645EC100B044651EC100BFBF785FA8B
:1083400045EC104B9FED111B786253EC112B51EC57
:10835000100BFBF7D7F9BDEC0A8B41EC100BBDE815
:10836000F0810000000000000000503F000000000D
:108370000000103F0000000000003040000000003E
:108380000000203F000000000000E03E0000000070
:108390000000B44070B514462DED068B0E46054620
:1083A0009FED560BC838C8287DD894F90A00FBF712
:1083B0002EFA9FED541B53EC112BFBF731F99FED77
:1083C000531B53EC112BFBF784F841EC1A0BB4F957
:1083D0000E00FBF71CFA9FED4F1B53EC112BFBF724
:1083E0001FF99FED4E1B53EC112BFBF719F99FED75
:1083F0004D1B53EC112BFBF76CF841EC180B94F967
:108400002800FBF704FA9FED491B53EC112BFBF7F7
:1084100007F941EC190B2846FBF70AFA53EC182B25
:10842000FBF7FEF89FED438B53EC182BFBF751F84D
:1084300053EC1A2BFBF7F4F841EC1A0B3046FBF720
:10844000E6F953EC192BFBF7EBF853EC1A2BFBF77F
:1084500040F841EC190B94F90C00FBF7D8F99FEDAB
:10846000371B53EC112BFBF7DBF853EC182BFBF706
:1084700030F841EC100B51EC180B53EC102BFBF7C0
:1084800041F941EC180BE07AFBF7D2F99FED2DABE7
:1084900053EC1A2BFBF71DF841EC100B51EC1A0BA7
:1084A00053EC102B00E01CE0FBF72CF953EC192BDC
:1084B000FBF7B6F853EC182BFBF7B2F89FED231B34
:1084C00053EC112BFBF7A6F89FED221B53EC112B5D
:1084D000FBF7A6F8FBF7D8F9C0B2FBF7A9F941EC16
:1084E000100B51EC100BFBF7CFF9C0B2FBF7A0F962
:1084F000BDEC068B41EC100B70BD000000000000CD
:1085000000000000000000000000B03F000000007C
:1085100000804840000000000000003FFCA9F1D2AC
:108520004D62403F55C1A8A44E40633F000000008B
:108530000000503F000000000000F03FFCA9F1D215
:108540004D62603F0000000000001040000000008D
:10855000000039403333333333330B402DE9F047D8
:1085600001EB8101DDE9087606EBC10502EB820132
:10857000044606EBC10803EB8301002004F128093F
:1085800006EBC1061BE0D0B101281FD000EB800133
:1085900004EBC10132680A60B2888A80B2798A71BC
:1085A000401CC0B20328EED3DFB1012F19D0022F37
:1085B00017D0032F6CD0042F44D100278DE02968F9
:1085C0002160A988A180A979A171E9E7D8F80020E4
:1085D000A262B8F80420A28598F8061084F82E103C
:1085E000DEE7002013E090B1012815D000EB8001F8
:1085F00096ED040B04EBC10181ED040B401CC0B2ED
:108600000328F0D36FB1022F1CD1002036E095ED86
:10861000040B84ED040BF1E798ED040B84ED0E0BD5
:10862000ECE7002010E078B1012812D000EB8001C7
:1086300096ED020B04EBC10181ED020B401CC0B2B0
:108640000328F0D3BDE8F08795ED020B84ED020B13
:10865000F4E798ED020B84ED0C0BEFE770B1012805
:1086600011D000EB800196ED060B04EBC10181ED0A
:10867000060B401CC0B20328F0D3E3E795ED060BD0
:1086800084ED060BF5E798ED060B84ED100BF0E793
:1086900000200FE070B1012811D000EB800196EDB1
:1086A000080B04EBC10181ED080B401CC0B203288C
:1086B000F0D3C7E795ED080B84ED080BF5E798EDCF
:1086C000080B84ED120BF0E73FB1012F08D007EB48
:1086D0008700314604EBC00004E02946204601E053
:1086E000414648462822FAF7C9FE7F1CFFB2032FF5
:1086F000EAD3A7E770B58CB0002204464FF0FF30F4
:108700008DF82C2011466B465A54491CC9B22929B0
:10871000FAD304B394F8321003F1190501291ED0DD
:1087200002291AD11923A66B94F830006A468921D0
:10873000B0471023A66B94F830002A46E121B047D9
:1087400000280AD12146684600F0EEF994F832007C
:10875000012818D01BE06FF001000CB070BD21465D
:10876000002000F0E6FA0028F7D11923A66B94F850
:1087700030006A460921B047102394F830002A4699
:108780006121A66BDBE72146012000F0D2FA01232C
:10879000A56B94F830000BAA0221A8479DF82C0085
:1087A0000123C0F30110E072A56B94F830000BAA0E
:1087B0000021A8479DF82C0020730123A56B94F895
:1087C00030000BAA0421A8479DF82C1041F3031197
:1087D0006173C2E72DE9F04107461D4616460C00BD
:1087E0004FF0FF3010D0012C0ED0022C0CD0032CF7
:1087F00020D0042925D19C6B95F83000A446BDE813
:10880000F04131231D2160471A4631463846FEF7B4
:10881000E3FD44B1022C14D12A4631463846BDE866
:10882000F041FEF754BD2A4631463846BDE8F041D6
:10883000FEF78FBD31463846BDE8F0411A46FEF7D7
:1088400004BDBDE8F0810000F8B5002302221D46FA
:108850006C46E5545B1CDBB2032BFAD35FF00003DC
:1088600003EB830500EBC5052D79E5545B1CDBB2FA
:10887000032BF5D39DF800509DF8013000209D4258
:1088800002D9A5EB030601E0A3EB0506022E08DCE6
:108890009DF80260B34201D99F1B00E0F71A022F36
:1088A00015DD225C401CC0B2FF2AFAD1401EC2B2C4
:1088B000022A06D0012A07D0501CC3B2901CC0B2B5
:1088C0001DE0002301201AE00223002017E0002011
:1088D000B54203D99D4202D8012000E00220904217
:1088E000A2F1010303D1921EDBB2D2B207E01C4613
:1088F000984202D1931EDBB201E01346E2B201F8C6
:108900002C0F4B708A70F8BD2DE9F04106464FF0F0
:10891000FF350F461400284604D094F83210012980
:1089200004D007E06FF00100BDE8F081114601209E
:1089300000F0FFF994F83210022901D00028F3D199
:108940002FB1012F0AD0022F15D02846ECE794F85A
:1089500030000123A46B32461D2105E094F830005D
:10896000A46B012332462E21A0470028DCD13178A8
:10897000C9093170D8E794F830000123A46B32465E
:108980003F21F1E7F8B505464FF000000C008DF8E7
:10899000000014D00123A66B94F830006A467421BD
:1089A000B04700280AD19DF8001021F0FC01297081
:1089B00094F83120012A01D084F83110F8BD6FF00D
:1089C0000100F8BD2DE9F047AEB000260F968146B4
:1089D00083F82C6083F82D60481E92460F461C4693
:1089E0004FF0FF3583F82E6003286DD294F83100E4
:1089F000002869D0012812D00FAA02A9484600F029
:108A0000CEF8054621464846FFF71EFF94F82C0095
:108A10000DF13C0818F8001001290AD00FE00F23CF
:108A2000A56B94F8300002AA1D21A847054601272E
:108A300025E0234602AA5146FFF7CCFE0546022F49
:108A400002D0032F03D01AE094F82D000DE094F823
:108A50002D0018F80010012905D1234602AA51461D
:108A6000FFF7B8FE054694F82E0018F8001001290B
:108A700005D1234602AA5146FFF7ACFE05461DBBB1
:108A80004B465246394602A80094FEF78BFD94F8F7
:108A90003100012818D010AF06EB860009EBC001A9
:108AA00007EBC0002822FAF7E9FC761CF6B2032E89
:108AB000F2D3CDE900A794F82E3094F82D2094F845
:108AC0002C104846FFF74AFD2EB02846BDE8F08737
:108AD00038B5044600218DF8001094F832204FF08C
