:020000040002F8
:10300000084A0020153202001D3202001F32020061
:1030100021320200233202002532020000000000AB
:103020000000000000000000000000002732020045
:1030300029320200000000002B3202002D32020073
:10304000853D02002F32020015410200013E0200C0
:103050002F3202002F320200AD3B02002F3202005D
:103060002F3202002F3202002F3202002F320200D4
:103070002F3202002F3202002F3202002F320200C4
:103080002F320200DD3D02002F3202002F320200FB
:10309000113E02002F320200153E02002F320200C4
:1030A0002F3202002F3202002F3202002F32020094
:1030B0002F3202002F32020000000000000000004A
:1030C0002F3202002F3202002F3202002F32020074
:1030D0002F3202002F3202002F32020000000000C7
:1030E00000000000000000000000000000000000E0
:1030F00000000000000000000000000000000000D0
:1031000000000000000000000000000000000000BF
:1031100000000000000000000000000000000000AF
:10312000000000000000000000000000000000009F
:10313000000000000000000000000000000000008F
:10314000000000000000000000000000000000007F
:10315000000000000000000000000000000000006F
:10316000000000000000000000000000000000005F
:10317000000000000000000000000000000000004F
:10318000000000000000000000000000000000003F
:10319000000000000000000000000000000000002F
:1031A000000000000000000000000000000000001F
:1031B000000000000000000000000000000000000F
:1031C00000000000000000000000000000000000FF
:1031D00000000000000000000000000000000000EF
:1031E00000000000000000000000000000000000DF
:1031F00000000000000000000000000000000000CF
:10320000DFF80CD000F06EFC00480047EDBC020077
:10321000084A00200648804706480047FEE7FEE7C8
:10322000FEE7FEE7FEE7FEE7FEE7FEE7FEE7FEE776
:10323000193E0200013202002DE9F05F0546002030
:1032400092469B4688460646814640241BE0284617
:1032500041464746224600F060F853465A46C01A97
:10326000914110D311461846224600F047F82D1A16
:1032700067EB01084F4622460120002100F03EF88E
:1032800017EB00094E41201EA4F10104DFDC484683
:1032900031462A464346BDE8F09F2DE9F04100241F
:1032A000061B254671F1000605DA01240027D0EB44
:1032B000070067EB0101161E73F1000605DA00270F
:1032C000D2EB0702012567EB0303FFF7B5FF864644
:1032D0000E4617469C46AC4204D00025D0EB050EA6
:1032E00065EB010624B10020D2EB000760EB030C74
:1032F000704631463A466346BDE8F081202A04DB39
:10330000203A00FA02F1002070479140C2F12003F8
:1033100020FA03F3194390407047202A04DB203A37
:1033200021FA02F00021704721FA02F3D040C2F1E5
:103330002002914008431946704740EA01039B0769
:1033400003D009E008C9121F08C0042AFAD203E01A
:1033500011F8013B00F8013B521EF9D27047D2B27E
:1033600001E000F8012B491EFBD270470022F6E76E
:1033700010B513460A4604461946FFF7F0FF2046EB
:1033800010BD421C10F8011B0029FBD1801A7047A8
:103390002DE9FE4F804681EA0300C00F0C460090E5
:1033A00021F0004123F00045B8EB0200A94105D20D
:1033B0004046214690461C460B46024623F00040FC
:1033C000104347D0270DC7F30A00C3F30A510290F8
:1033D000401A019040286BDAC3F3130040F4801BBD
:1033E0000098924620B10023D2EB030A63EB0B0B4B
:1033F00001985946C0F140025046FFF77FFF06464C
:103400000D4650465946019A00F074FA10EB080038
:103410006141002487EA115284EAE7731A4340D0DD
:10342000009A62B3019A012A4FEA075215DC001B89
:1034300061EB02014FF0004202EA0752CDE900427F
:10344000001C41F5801132462B4600F0C9FA03B04A
:10345000BDE8F08F40462146F9E7001B61EB020111
:10346000001C41F5801300185B412018A2F50017DD
:1034700047EB030140EAD570B6196D4111E06D08C4
:103480004FEA360645EAC0754FEA0752001B61EB6A
:103490000201001C41F5801149084FEA3000001973
:1034A000514132462B4603B0BDE8F04F00F089BAD7
:1034B0000098012240000023D0EB020263EBE0738E
:1034C000009821464FEAE074B8EB000061EB04017C
:1034D000E9E783F000435BE781F0004158E72DE91D
:1034E000FE4F81EA030404F0004421F000410094FF
:1034F0004FF0000B23F0004350EA01045ED052EA83
:1035000003045BD0C3F30A54C1F30A552C44A4F25C
:10351000F3340194A0FB0254C1F3130141F4801170
:10352000C3F3130343F4801301FB024400FB034E77
:10353000840A970A44EA815447EA8357A4FB076840
:1035400002958D0A05FB07854FEA932C04FB0C546A
:103550002705029D4FEA065847EA1637B5EB0805DE
:103560006EEB070C870E920E47EA811742EA831230
:10357000A7FB0201B6EB0B0164EB00042B0D43EA41
:103580000C335E1844EB1C50DA465146E7FB02014F
:10359000C5F313044FEA0B3343EA14534FEA0432E2
:1035A000019C43EA0603A4F10C040294009CCDE9BB
:1035B00000B400F015FA03B0BDE8F08F002001461A
:1035C000F9E72DE9F04D81EA030404F0004B21F006
:1035D000004514464FF0000A23F0004150EA05026E
:1035E00020D054EA01021DD0C5F30A570246C5F3A4
:1035F0001303C1F31300C1F30A5640F4801543F4DA
:103600008013A7EB0608101BD64608F2FD3873EBB3
:10361000050002D308F1010801E092185B41B8F1FE
:10362000000F03DA00200146BDE8F08D00204FF4C2
:103630008011064684460EE0171B73EB050705D381
:10364000121B63EB050306434CEA010C49084FEAE1
:10365000300092185B4150EA0107EDD152EA0300B5
:1036600012D082EA040083EA0501084305D0101B4A
:10367000AB4106D20122002306E000224FF00043B6
:1036800002E06FF0010253101AEB06004CEB0851F8
:1036900010EB0A0041EB0B01BDE8F04D00F091B9D1
:1036A000F0B4CA17CB0F50405140C61841F1000585
:1036B0004FEAC372314628004FF0960303D0B62379
:1036C000F0BC00F032B930460021F9E70EB5C10F69
:1036D00080EAE0700844CA07002140F233438DE8D5
:1036E0000E000A460B4600F07BF903B000BD0EB594
:1036F00040F2334102910021CDE900110A460B4608
:1037000000F06EF903B000BD10B500F0004420F0E9
:103710000040C20DC0F3160040F400007F2A02DA18
:103720000020014610BD0021962A03DCC2F196025A
:10373000D04002E0963AFFF7E1FD002CF2D00023E2
:10374000D0EB030063EB010110BD70B5C1F30A5269
:1037500001F000450024C1F3130140F2FF3341F4AE
:1037600080119A4201DA002070BD40F233439A4240
:10377000A2F2334203DC5242FFF7CFFD00E090405B
:103780002C43F1D0404270BDC1F30A5210B5C1F3D1
:10379000130140F2FF3341F480119A4201DA002014
:1037A00010BD40F233439A42A2F2334203DC52424C
:1037B000FFF7B3FD10BD904010BD70B5C1F30A52C4
:1037C00001F000450024C1F3130140F2FF3341F43E
:1037D00080119A4202DA0020014670BD40F2334364
:1037E0009A42A2F2334203DC5242FFF796FD01E017
:1037F000FFF784FD2C43F0D00023D0EB030063EBF4
:10380000010170BDC1F30A52C1F3130140F2FF334D
:1038100041F480119A4202DA00200146704740F2DA
:1038200033439A42A2F2334202DC5242FFF775BDA3
:10383000FFF764BD00F0004230F000400AD0C10D37
:1038400001F56071C0F3160042EA0151C208400759
:1038500011437047002001467047000030B5041E38
:1038600071F1000404DB4FF00044404264EB0101BD
:10387000141E73F1000405DB1C464FF00043524256
:1038800063EB04038B4208BF824230BD30B5041E97
:1038900071F1000404DB4FF00044404264EB01018D
:1038A000141E73F1000405DB1C464FF00043524226
:1038B00063EB0403994208BF904230BD01F000431E
:1038C00030B421F0004150EA010206D00A0DA2F501
:1038D0006072C1F31301002A02DC30BC0020704783
:1038E000440F44EAC104C100E01830BC00EBC250F0
:1038F00000F012B8202A06DBCB17203A41FA02F07A
:1039000043EAE07306E041FA02F3D040C2F120023C
:1039100091400843194670470029A8BF7047401CD2
:10392000490008BF20F00100704710B4B0FA80FCD5
:1039300000FA0CF050EA010404BF10BC704749B112
:10394000CCF1200421FA04F411FA0CF118BF012182
:1039500021430843A3EB0C01CB1D4FEA00614FEA62
:10396000102042BF002010BC704700EBC350104431
:103970000029A4BF10BC7047401C490008BF20F0BC
:10398000010010BC704710B541000CD0C0F3C75106
:10399000962908DC7E2909DC06DB410204D000F010
:1039A000004040F07E5010BD002010BDC1F19604D3
:1039B000C4F1200100FA01F1E040FFF7ADFFA040A3
:1039C00010BD10B5141E73F1000408DA401C41F15B
:1039D000000192185B411A4301D120F0010010BD93
:1039E0002DE9F04D92469B4611B1B1FA81F202E009
:1039F000B0FA80F220329046FFF780FC04460F4672
:103A000040EA0A0041EA0B0153465A46084313D0E4
:103A1000114653EA010019D0C8F140025046FFF7A1
:103A20007CFC05460E46504659464246FFF766FC6A
:103A3000084305D0012004E020463946BDE8F08D5A
:103A40000020054346EAE0762C4337430A98630595
:103A5000E40AA0EB08000022FD0A44EA47540A30B9
:103A600002D500200146E9E7010510196941DDE9A9
:103A7000084500196941BDE8F04DA2E770B521F095
:103A8000004303430CD0C1F30A550024D5EB0405D1
:103A900064EB0403D617AD1AB34102DB00200146E4
:103AA00070BD201841EB025170BD002801DBC0F150
:103AB0000040002901DBC1F10041814202D24FF0F8
:103AC000004004E04FF0005001D14FF0C0404FEAF9
:103AD0002062EFF3008162F31F6181F30088704779
:103AE00000207047064C074D06E0E06840F00103F7
:103AF00094E8070098471034AC42F6D3FFF784FBF4
:103B000070E0020090E002002DE9F04D00231A461B
:103B10001B1A8A4103DB00200146BDE8F08DC1F38A
:103B20000A52C1F3130141F480154FF0000BD10785
:103B300002D100186D41521E0027044640F2FF11C9
:103B4000384601EB620A3E468046024600204FF4AA
:103B50008011FFF7E2FBC2197141BB1846EB01006F
:103B6000B4EB030C75EB000C04D3E41A65EB000511
:103B700017460E46241908F101006D41804634288D
:103B8000E3DDF91946EB0600091BA84103D24FF00B
:103B9000FF32134601E0002213461BEB070046EB01
:103BA0000A51BDE8F04DFFF70CBF00002DE9F047CA
:103BB00000268CB0DFF86091B0464FF48075012488
:103BC00037460696284608F06BFE38B1D9F804034C
:103BD000204203D0284608F059FE26432D1D6400DC
:103BE0007F1CADB2082FEDD34FF4BE74204608F011
:103BF00057FE48B1204608F049FE46F0004606AAA6
:103C00000121002008F02EFE444D16F0FF0F15D0C4
:103C10000127002437420DD009EB8401D1F81005AB
:103C2000D1F81015C0F3042055F82420C1F3014148
:103C300002B190477F00641C082CEBD3002E67DA9A
:103C40004FF0FF30CDE9088000263446281910F8DF
:103C5000507F90F9000027F0C008401C44D009A90B
:103C6000404608F0D7FA58B34FEA9719404607F094
:103C700061FD55F820701FB1B9F1030F03D00FE0BB
:103C8000B9F1030F30D108A84FEAD80208F00703B2
:103C9000815C4FF0010C0CFA03FC41EA0C018154E9
:103CA0004FF0A04101EB8800D0F8000706A9C0F34F
:103CB000014A404608F0AEFA18B1BAF1020F03D03B
:103CC00012E0BAF1030F0FD1B9F1030F08D1BAF125
:103CD000020F1BD00221404608F0A0FD761CF6B270
:103CE00017B149464046B847641C042CAED3002E99
:103CF0000ED06A460121002008F0B4FD0699009814
:103D0000884205D00690089809909DE70321E2E7D4
:103D10000CB0BDE8F087000000600040D024002017
:103D200000F01F02012191404009800000F1E020D5
:103D3000C0F88012704700F01F0201219140400935
:103D4000800000F1E020C0F80011704700F01F0271
:103D5000012191404009800000F1E020C0F80012EC
:103D600070474907090E002806DA00F00F0000F13D
:103D7000E02080F8141D704700F1E02080F8001466
:103D8000704700002DE9F0414FF48077384608F085
:103D900003FB0124104EA50748B1384608F003FB89
:103DA0000120C5F808037470002007F0CBFC4FF425
:103DB0008277384608F0F0FA00280BD0384608F031
:103DC000F2FA0220C5F80803B470BDE8F041012002
:103DD00007F0B8BCBDE8F081BC24002007480021F2
:103DE000C0F84011C0F84411C0F84811C0F84C1197
:103DF000C0F80011C0F8041109F072B900100140B8
:103E00000149024807F0B8BD4825002000300040B5
:103E100009F0B4B808F0F2BDF0B5AE480023021DB9
:103E200001780125101D4FF0805406290BD116781A
:103E3000360708D10678C6F30316032E06D0042EE3
:103E400004D0052E02D0062907D00EE0B4F8246372
:103E5000A14FC6F304263E6002E01678360704D16F
:103E60000678C6F30316032E02D0062904D00FE00D
:103E70009B4F9A4E7E670EE01678360708D106787B
:103E8000C6F30316032E06D0042E04D0052E02D04E
:103E9000062907D00EE0D4F84462924FC6F34236AA
:103EA0003E6002E01678360704D10678C6F30316A2
:103EB000032E02D0062906D011E08B4E376827F07A
:103EC000807737600EE01678360708D10678C6F39B
:103ED0000316032E06D0042E04D0052E02D0062988
:103EE0000AD011E04FF08046C6F80C31C6F8103108
:103EF0007C4E361F336002E01678360704D1067810
:103F0000C6F30316032E02D0062905D00CE0754F28
:103F1000032664373E600AE01678360704D1067837
:103F2000C6F30316032E02D006290DD014E06F4FFE
:103F300005263E606D4E783635606C4E083633602F
:103F40003F263F1D3E6002E01678360704D1067812
:103F5000C6F30316052E02D0062957D062E0644E40
:103F60003668644F3E60624E361D36683F1D3E60C7
:103F70005F4E083636683F1D3E605D4E0C36366833
:103F80003F1D3E605A4E103636683F1D3E60584E0B
:103F9000143636683F1D3E60554E18363668554F0C
:103FA00020373E60524E1C3636683F1D3E60504EF4
:103FB000203636683F1D3E604D4E243636683F1D24
:103FC0003E604B4E283636683F1D3E60484E2C36CC
:103FD00036683F1D3E60464E30363668454F4037A6
:103FE0003E60434E343636683F1D3E60404E3836A4
:103FF00036683F1D3E603E4E3C3636683F1D3E6093
:104000003B4E403636683F1D3E6002E0167836076C
:1040100008D10678C6F30316032E06D0042E04D06A
:10402000052E02D0062907D019E0D4F85812324ADA
:1040300001F04F01116002E0117809070FD10078FB
:10404000C0F30310032803D0042801D0052806D1AB
:104050002A480168C90702D06FF0010101602248B7
:104060007438016841F470010160BFF34F8FBFF3F2
:104070006F8F4FF01021D1F80002002803DBD1F838
:104080000402002822DA1E4A15601E480468002C2B
:10409000FCD01524C1F800420568002DFCD0C1F801
:1040A000044201680029FCD0136001680029FCD09B
:1040B000BFF34F8F0C48F0380168134A01F4E061F8
:1040C00011430160BFF34F8F00BFFDE710490F4858
:1040D0000860F0BDE00F00F0403501400DF0ADBAD2
:1040E00000C007403C050040FCED00E010560040D9
:1040F0000404001020C50040E40E0040000400400D
:1041000004E5014000E401400400FA050090D003FA
:10411000F02100200448017F04480029024901D011
:1041200009F057BA09F0C6B9282500200020004040
:104130000FB4084B10B504A902AA039802F0AEF818
:10414000044602A9002002F0DAFA204610BC5DF80D
:1041500014FB0000FF66020003B4019841000098C0
:1041600050EAC12018BF04204A0D18BF40F00100DA
:1041700040F2FF72B2EB515F08BF40F0020001282D
:1041800008BF052002B070474100080218BF042094
:104190000A0E18BF40F001004FF07F4232EA0101E1
:1041A00008BF40F00200012808BF0520704700004A
:1041B0002DE9F0412DED020B9FED3D0B2DED028B16
:1041C0009FED3D8BDDE90254C4F30A50A0F2FF36A7
:1041D000142E37DA002E18DA53EC102B9DED020B5B
:1041E00051EC100BFFF7D4F853EC182BFFF74EFBF4
:1041F00057D2002CBCBF4FF00044002551DB54EADD
:10420000050018BF2E4C1BD14BE02E4820FA06F7B4
:1042100004EA070028431FD053EC102B9DED020B3E
:1042200051EC100BFFF7B4F853EC182BFFF72EFBF3
:1042300037D2002C03DD4FF48010F0400444BC431F
:1042400000252EE0332E07DCA6F114004FF0FF31DD
:1042500021FA00F73D4206D19DED020BBDEC028B29
:1042600002B0BDE8F08153EC102B9DED020B51EC38
:10427000100BFFF731F953EC182BFFF707FB10D2A7
:10428000002C0DDD142E08BF641C09D0C6F13400CB
:10429000012101FA00F02844A84238BF641C0546F9
:1042A000BD43CDE902549DED020BD7E700000000AD
:1042B0009C7500883CE4377E000000000000000090
:1042C0000000F03FFFFF0F0010B510EE104A4FF056
:1042D00019406849002200EB44002DED028B884212
:1042E00057D8DFED650A14F0004F60EE200A14BFC6
:1042F000BEEE001AB6EE001A71EE200AFDEEE00ADC
:1043000010EE900A00EE900AF8EEE00A9FED5B1ABC
:1043100000EEC10A9FED5A1A00EEC10ADFED590AFC
:104320009FED591A00EE201ADFED580A40EE010AFF
:104330009FED571A574B00F0030100EE201A21EEB3
:10434000000A7B4403EB8103D3ED000A524B7B440C
:1043500003EB810393ED001A504B41EE000A7B44BE
:1043600003EB8101801091ED000A70EE800AEABB38
:1043700000EE100AB8EEC01ADFED491A9FED490AA7
:10438000BDEC028B01EE210ABCEEC00A20EE200A31
:1043900010BD4FF0FF40A0431BD04FF0CE40B0EB1C
:1043A000440F82BFB7EE000ABDEC028B10BD3E4841
:1043B000B0EB440F28BF012293D2022001F068FF26
:1043C00014F0004F15D0BDEC028BBDE8104001F099
:1043D0008BBE14F5000F02BF9FED340ABDEC028BBB
:1043E00010BDBDEC028BBDE8104000E007E001F01D
:1043F00065BEBDEC028BBDE8104001F06DBE00EB68
:10440000D07359104FF07E5202EBC15100EE101ADA
:10441000A0EB630002EBC05060EE200A00EE100A31
:1044200020EE208A18EE100A88B118EE100AB0F1BA
:10443000FF4F15D018EE100AFFF7A6FE042808BF9C
:1044400001F052FEB0EE480ABDEC028B10BD022016
:1044500001F01EFFBDEC028BBDE8104001F044BE30
:10446000022001F015FFBDEC028BBDE8104001F009
:1044700033BE00000000501E3BAAB8400070313E21
:10448000F4FD053712BB2A3D12BB2A3EFFFFFF3E5B
:10449000FFFF7F3F9A9A00009E9A00006E9A0000EC
:1044A0000000004B00007E4E0000A08500000000D0
:1044B0002DED020B019820F0004001909DED000BC6
:1044C00002B07047000000002DE9F0412DED020B15
:1044D0009FED3D0B2DED028B9FED3D8BDDE90254F1
:1044E000C4F30A50A0F2FF36142E37DA002E18DA81
:1044F00053EC102B9DED020B51EC100BFEF748FF17
:1045000053EC182BFFF7C2F957D2002CA4BF00249C
:10451000254652DA24F00040284318BF2E4C4CD0D8
:104520001AE02E4820FA06F704EA070028431FD0B5
:1045300053EC102B9DED020B51EC100BFEF728FFF6
:1045400053EC182BFFF7A2F937D2002C03DA4FF403
:104550008010F0400444BC4300252EE0332E07DCDD
:10456000A6F114004FF0FF3121FA00F73D4206D1C9
:104570009DED020BBDEC028B02B0BDE8F08153EC67
:10458000102B9DED020B51EC100BFEF7A5FF53EC29
:10459000182BFFF77BF910D2002C0DDA142E08BF70
:1045A000641C09D0C6F13400012101FA00F028444E
:1045B000A84238BF641C0546BD43CDE902549DEDB9
:1045C000020BD7E7000000009C7500883CE4377EB2
:1045D00000000000000000000000F0BFFFFF0F001F
:1045E00010B52DED028BB0EE608AF0EE408A18EE29
:1045F000101A18EE900AFFF758FA00F07040B0F168
:10460000005F0CD018EE100A20F00040C0F1FF400F
:10461000C00F02BFB0EE480ABDEC028B10BDB0EE79
:10462000680ABDEC028B10BD10B52DED028BB0EE0B
:10463000608AF0EE408A18EE101A18EE900AFFF722
:1046400034FA00F07040B0F1004F0CD018EE100AB0
:1046500020F00040C0F1FF40C00F02BFB0EE480A9A
:10466000BDEC028B10BDB0EE680ABDEC028B10BD34
:1046700031B504462DED020B0023019A009823600A
:10468000194B22F00041994228DA084326D0B1F5AF
:10469000801FA8BF206811DA9FED150B53EC102B7B
:1046A0009DED000B51EC100BFEF719FFCDE9000159
:1046B0000A466FF0350021F0004120600E4B6FF389
:1046C0001E5203EB21510844206042F0FF5040F09D
:1046D000005001909DED000B03B030BD9DED000B2F
:1046E00003B030BD000000000000F07F00000000BB
:1046F000000000000000504302FCFFFF10EE100A13
:1047000010B5A0F500014FF0000CB1F1FE4F6CD2D6
:1047100000F500216FF07E0202EBE153C1F302527B
:104720004FF07E5101EB025100EE901AA0EBC35006
:104730000CEB030100EE100A51EA020036D030EE15
:10474000601A30EE200AC1EE000A20EEA00A60EEE8
:10475000801A9FED3D2A9FED3D1A3D48DFED3F2A2F
:1047600000EE021A784400EB82009FED3A2A21EE17
:10477000810A01EE101AD0ED001A3748B8EEC11ABE
:10478000784400EB820041EE021A01EE101A90ED1F
:10479000002AB8EEC11A01EE222A9FED311A32EE3C
:1047A000000A00EE810A31EE800A10BDF7EE000A21
:1047B0009FED2D1A70EE600A9FED2A0A00EE801A16
:1047C0009FED2A0A60EEA01A00EE810A9FED281ADA
:1047D00000EE801A21EE810A9FED261A00EE810A72
:1047E000B5EE0B1A00EE810A10BD4FF07F41B1EB20
:1047F000400F03D2BDE8104001F060BCB0F1FF4FA4
:1048000008BF10BDB5EEC00AF1EE10FA06D20120C5
:1048100001F03EFDBDE8104001F056BCB5EEC00A07
:10482000F1EE10FA07D1022001F032FD01F03CFC5C
:10483000B1EE400A10BDDFED100A6FF0160C20EE4D
:10484000200A10EE100A63E7DE02323E3B3D943E42
:104850009896000000209A3E9C960000FC849A36B0
:10486000D95B5E3F924FA93D7279DEBD2D3E143E6D
:10487000D85B5EBE157B4B3C0000004B10EE100A6F
:1048800010B50023A0F50001B1F1FE4F67D200BFC3
:1048900000F500216FF07E0202EBE15CC1F30252F1
:1048A0004FF07E5101EB025100EE901AA0EBCC507C
:1048B00003EB0C0100EE100A51EA020036D030EE94
:1048C000601A70EE200A9FED3D2A3E4881EE200AD4
:1048D0009FED3B1A60EE000A00EE821A60EE201A8D
:1048E00061EE810A784401EE101A00EB82009FED20
:1048F000362AB8EEC11AD0ED001A344841EE021A39
:10490000784401EE101A00EB8200B8EEC11A90ED67
:10491000002ADFED2F2A01EE222AB0EE001A72EEF5
:10492000200A40EE010A31EEA00A10BDF7EE000A9F
:104930009FED291A30EE600ADFED260A00EE201AFC
:10494000DFED260A60EE001A40EE010A9FED241A00
:1049500000EE201A61EE810A30EE200A10BD4FF001
:104960007F41B1EB400F03D2BDE8104001F0A6BB80
:10497000B0F1FF4F08BF10BDB5EEC00AF1EE10FA5E
:1049800006D2012001F084FCBDE8104001F09CBB80
:10499000B5EEC00AF1EE10FA07D1022001F078FC62
:1049A00001F082FBB1EE400A10BDDFED0E0A6FF0A0
:1049B000160320EE200A10EE100A69E766F1CC3EDD
:1049C000AAAA2A3F589500000070313F5C9500006C
:1049D000F4FD053821ED423E0A1180BEC1ABAA3E6E
:1049E000FFFFFFBE0000004B2DE9F04D2DED040B45
:1049F0002DED0E8B96B0DDE92550279CDDF890A0BB
:104A000025F0004624F00048BAF1000F14BF012140
:104A1000002101EB4502FC4953184A1093422AD366
:104A2000002814BF0123002303EB44030B44F74980
:104A30008B4220D358EA00019FEDF59B76D0DFF83A
:104A4000D8B35D4503D1BAF1000F05D188E0BAF1C2
:104A5000000F08BF002100D0012101EB450111F535
:104A6000001F08D8002814BF0121002101EB4401D8
:104A700011F5001F0BD99DED261B9DED240B16B0E3
:104A8000BDEC0E8B04B0BDE8F04D01F0D1BA0027AB
:104A9000002DBCBFE149884521DAE1498845A8BF1E
:104AA00002271CDAC3451ADCDE4901EB2851142920
:104AB00008DDC1F1340220FA02F101FA02F2824269
:104AC0000DD108E058B9C1F1140228FA02F101FA37
:104AD00002F2424503D101F00101C1F1020756EA99
:104AE0000A0124D1002C22DA002D18BF022F01D098
:104AF000012F0AD0022001F0CBFB16B0BDEC0E8BCB
:104B000004B0BDE8F04D01F07BBA022001F0C0FB1B
:104B100001F076FA51EC100B81F0004141EC100BE2
:104B200016B0BDEC0E8B04B0BDE8F08D18E09FED23
:104B3000BEAB9FEDBF8B002871D1B848804522D114
:104B400005F1804010F5801008BFBAF1000F07D0C2
:104B5000B3450ADC002CA8BF9DED260BE0DA0DE082
:104B6000B0EE490AF0EE690ADAE7002C06DA9DEDAC
:104B7000260B51EC100B81F000416FE0AE487844F9
:104B800090ED000BCCE7D8454DD1002C48DA2EB182
:104B900086423AD1BAF1000F42D126E0BAF1000FB5
:104BA00013D0022001F074FB01F05EFA8DED020BD0
:104BB0009DED240B8DED000B10EE900A039961F32F
:104BC0001E0003909DED020BAAE78DED02AB9DED5B
:104BD000240B1AEE901A10EE900A8DED000B61F383
:104BE0001E0003909DED020B9AE78DED028B9DED6B
:104BF000240B18EE901A10EE900A8DED000B61F365
:104C00001E0003909DED020B8AE709DA9DED240B4F
:104C100051EC190B53EC102BFEF7D3FC1EE020E0F7
:104C20009DED240B7CE786421BDAB4F1804F0DD05A
:104C3000A4F10050B0F1FF5013D1002D11DB9DED18
:104C4000240B51EC100B08F062F907E09DED240BEA
:104C500053EC102B51EC100B00F0C2BC41EC100BCC
:104C60005EE79DED240B51EC100B06F05FFEBAF1F0
:104C7000000FCDE90E0142D19FED710B46B3A6F1B5
:104C8000E040B0F17F600CD05E4538D1002D00DAF5
:104C9000A7B3022F0CBF01204FF0FF30FEF716FD27
:104CA000DCE7002D01DD002C0DDA002D01DD002CEC
:104CB0001FDB002D16DA002C14DB012F08BF9FED3F
:104CC000620B3FF42DAFB0EE4A0AF0EE6A0A27E716
:104CD000022F18BF002D0CD0012F0AD1002DFFF696
:104CE0001FAF06E0002DB8BF002C08DA012F3FF4FB
:104CF00017AFB0EE480AF0EE680A11E71BE001209A
:104D000000EBE57050EA070115D0791EB0EE498A34
:104D1000F0EE698A084308BF9FED4D8B4E48002591
:104D2000804570DD4D494E48884514DDB0420DDBAD
:104D3000002C19DB2FE0012001F0AAFA16B0BDEC1F
:104D40000E8B04B0BDE8F04D01F07EB9B34502DC36
:104D5000002C09DC1FE0864202DA002C1BDA03E09B
:104D60005E452BDD002C16DD022001F091FA01F0EA
:104D70007BF98DED020B53EC1A2B51EC180BFEF75F
:104D8000AEFBCDE900010399019861F31E00039089
:104D90009DED020BC4E6022001F07AFA01F074F9ED
:104DA00010EE901A18EE900A8DED020B8DED008B2F
:104DB00061F31E0003909DED020BB1E69DED0E0B1D
:104DC00053EC192B51EC100BFEF783FB9FED260BD8
:104DD000CDE9080153EC102B9DED080B51EC100BA5
:104DE000FEF77DFB9FED221B53EC112BFEF774FBAE
:104DF0009DED081B53EC112BFEF771FB9FED1E1B65
:104E000053EC112B3CE08CE0FFFF1F00FFFF0F0075
:104E1000000000000000F03F0000F03F0000F07FC5
:104E20000000404301FCFFFF000000000000F07F95
:104E30000000000000000000C69400000000000018
:104E40000000000000000080000000000000F0FFF3
:104E5000000000000000F0BF0000E0410000F0434F
:104E6000FFFFEF3F00000000000000000000D03F07
:104E7000555555555555D53F000000000000E03F01
:104E8000FEF72AFB9DED080B41EC1A0B53EC102B9F
:104E900051EC100BFEF723FB53EC1A2BFEF71FFB14
:104EA00041EC1A0B9FEDFE0B53EC102B9DED080B04
:104EB00051EC100BFEF713FB41EC1B0B9FEDFA0BB3
:104EC00051EC1A0B53EC102BFEF709FB41EC1A0BBB
:104ED0009FEDF70B53EC102B9DED080B51EC100BD5
:104EE000FEF7FDFA53EC1A2BFEF7F3FA41EC1A0B1E
:104EF00051EC1B0B53EC1A2BFEF74AFA0690CDE946
:104F000006519DED060B53EC1B2B51EC100BFEF7DD
:104F1000E0FA53EC1A2BFEF7DFFA41EC100B00F02D
:104F2000A1B90020B6F5801F0EDA9FEDE30B53EC1C
:104F3000102B9DED0E0B51EC100BFEF7D0FACDE9C6
:104F40000E016FF034000E4600EB2650A0F2FF3742
:104F5000C6F31300DA4940F07F6646F040568842B7
:104F6000D8BF002408DDD7498142C8BF012403DC33
:104F70000024A6F580167F1CD348784400EBC400BB
:104F80000F9690ED00CB9DED0E0B53EC1C2B51ECCE
:104F9000100BFEF79EFA9DED0E0B41EC1B0B53EC34
:104FA0001C2B51EC100BFEF7F3F941EC100B51ECFC
:104FB000190B53EC102BFEF704FB41EC1D0B51ECCD
:104FC0001B0B53EC1D2BFEF78AFA41EC1A0BBF4862
:104FD0008DED10AB7844109590ED000B4FF0005024
:104FE00040EA660000EB84408DED080B00F50020E0
:104FF00009909DED080B53EC1C2B51EC100BFEF7A8
:1050000068FA9DED0E1B53EC112BFEF765FA41EC8F
:10501000100B53EC102B9DED100B51EC100BFEF709
:105020005EFA9DED080B41EC1C0B53EC102B9DED33
:10503000100B51EC100BFEF752FA53EC1B2BFEF742
:105040004BFA53EC1C2BFEF744FA53EC1D2BFEF7E6
:1050500046FA41EC1C0B53EC1A2B51EC1A0BFEF7E1
:105060003EFA41EC1B0B9A480621B0EE4B0AF0EEDB
:105070006B0A784400F045FFB0EE401AF0EE601A7B
:10508000B0EE41DAF0EE61DA53EC1B2B51EC1B0B66
:10509000FEF725FA53EC1D2BFEF721FA9DED100BC0
:1050A00041EC1B0B53EC1A2B51EC100BFEF770F973
:1050B00053EC1C2BFEF713FA53EC1B2BFEF768F98D
:1050C0009DED100B41EC1B0B53EC102B51EC100B16
:1050D000FEF705FA41EC1D0B9FED7FEB53EC1E2B09
:1050E000FEF756F953EC1B2BFEF752F90890CDE969
:1050F00008519DED080B53EC1E2B51EC100BFEF7E5
:10510000E8F953EC1D2BFEF7E4F953EC1B2BFEF7EB
:10511000E3F99DED080B41EC1D0B53EC102B9DEDBD
:10512000100B51EC100BFEF7DAF941EC1B0B53ECB2
:105130001A2B51EC1D0BFEF7D2F99DED080B41EC3B
:105140001A0B53EC102B51EC1C0BFEF7C8F953EC67
:105150001A2BFEF71DF941EC1A0B51EC1B0B53EC0B
:105160001A2BFEF715F90C90CDE90C519DED0C0BA7
:1051700053EC1B2B51EC100BFEF7ABF953EC1A2B35
:10518000FEF7AAF941EC1B0B9FED550B53EC102BCE
:105190009DED0C0B51EC100BFEF7A1F941EC1A0B35
:1051A0009FED510B51EC1B0B53EC102BFEF797F9B5
:1051B00041EC1B0B9FED4E0B53EC102B9DED0C0B9C
:1051C00051EC100BFEF78BF953EC1B2BFEF7E0F8BC
:1051D00041EC100B4848784400EBC40090ED001BF4
:1051E00051EC100B53EC112BFEF7D2F841EC1B0BDA
:1051F0003846FEF76BFACDE9080153EC1B2B51EC56
:105200001A0BFEF7C5F841EC100B3C48784400EB54
:10521000C40090ED00CB51EC100B53EC1C2BFEF7AF
:10522000B7F89DED081B53EC112BFEF7B1F8069073
:10523000CDE906519DED080B53EC102B9DED060BAF
:1052400051EC100BFEF745F953EC1C2BFEF741F91E
:1052500053EC1A2BFEF73DF953EC1B2BFEF73CF9F0
:1052600041EC100B9DED261B53EC102B8DED001B1C
:1052700000959DED260B51EC100BFEF730F99DEDDE
:10528000000B41EC1A0B53EC102B9DED260B51EC4F
:10529000100BFEF71EF99DED061B53EC112B2FE0B2
:1052A000000000604715F73FFE822B654715F73F6A
:1052B00044DF5DF80BAE543E0000000000004043A8
:1052C0008E9803007AB60B00028F000070900000E9
:1052D0003A8E0000000000000000000000000840BE
:1052E000000000E009C7EE3FFD033ADC09C7EE3FCE
:1052F000F5015B14E02F3EBEC68C0000808C0000E0
:10530000FEF7EDF853EC1A2BFEF742F89DED060B75
:1053100041EC1A0B53EC102B9DED000B51EC100BD4
:10532000FEF7DDF8CDE90C019DED0C0B51EC1A0BED
:1053300053EC102BFEF72CF8CDE902010C46AA49DC
:105340008C422FDB611A084318D19DED0C0B53ECF6
:10535000102B9DED020B51EC100BFEF7BAF841EC4F
:105360001B0B9FEDA30B51EC1A0B53EC102BFEF70C
:105370000FF853EC1B2BFEF789FA2DD2022000F018
:1053800087FF00F071FE10EE901A18EE900A8DED76
:10539000020B8DED008B61F31E0003909DED020B5F
:1053A000FFF7BEBB944A24F00041914214D39349C5
:1053B000214408437FF4EFAC9DED0C0B53EC102B14
:1053C0009DED020B51EC100BFEF783F853EC1A2BFA
:1053D000FEF75CFA7FF6DFAC24F000408849894A8A
:1053E000002601EB205182422BDA481C4FF4801139
:1053F00021FA00F02044844AC0F30A517A44A1F211
:10540000FF3192ED000B814A8DED080BCA4020EA76
:105410000202C0F3130040F48010C1F1140120FA1D
:1054200001F60992002CB8BF76429DED080B53ECB3
:10543000102B9DED0C0B51EC100BFEF74AF8CDE94B
:105440000C019DED0C0B51EC1A0B53EC102BFDF7DE
:105450009FFF9FED6F0B0890CDE9085153EC102B87
:105460009DED080B51EC100BFEF739F841EC1B0BCE
:105470009FED690B53EC102B9DED080B51EC100BBD
:10548000FEF72DF89DED0C0B41EC1C0B53EC102B93
:105490009DED080B51EC100BFEF71BF853EC1A2B8B
:1054A000FEF71AF89FED5E1B53EC112BFEF717F871
:1054B00053EC1C2BFDF76CFF41EC1A0B51EC1B0B52
:1054C00053EC1A2BFDF764FFCDE902019DED020BB1
:1054D00053EC1B2B51EC100BFDF7FBFF53EC1A2B7D
:1054E000FDF7FAFF9DED020B41EC1A0B53EC102B6C
:1054F00051EC100BFDF7F3FFCDE908014A489DED93
:10550000080B0521784400F0FCFC9DED081B51ECD4
:10551000100B53EC112BFDF7E2FF9DED021B53EC3A
:10552000112BFDF7D9FFCDE906019DED020B53ECE0
:105530001A2B51EC100BFDF7D2FF53EC1A2BFDF791
:1055400027FF9FED3B0B41EC1A0B53EC102B9DED0D
:10555000060B51EC100BFDF7BCFF9DED060B41EC6B
:105560001B0B53EC102B9DED020B51EC100BFDF7B8
:10557000B6FF53EC1B2BFEF724F853EC1A2BFDF768
:10558000A8FF9DED021B53EC112BFDF7A2FF53EC7E
:10559000192BFDF7A1FFCDE9020101EB0650011522
:1055A0000029C8BF039015DC9DED020B324651EC7B
:1055B000100BFEF763FAFEF7CFFD042808BF00F0DA
:1055C00063FD32469DED020B51EC100BFEF756FACF
:1055D000CDE902019DED020B51EC180B53EC102BA1
:1055E000FDF77DFFFFF73ABB000090400000000090
:1055F000FE822B654715973C00CC904000346F3FEE
:1056000001FCFFFF0000E03F488C0000FFFF0F009F
:1056100000000000432EE63F396CA80C615C20BE00
:10562000EF39FAFE422EE63FD88900000000000064
:10563000000000000000004010B510EE100A2DED33
:10564000068BB7EE001A10EE901AB0EE418A0022D7
:10565000A0F5000CDFEDFE9A4FF00073BCF1FE4F99
:105660004FF07F4403EB410C80F0B481BCF1804FDC
:10567000C0F02082F74901449FEDF73AB1F5005F91
:1056800040F2D48200F58021CB0C03F00F0101EE33
:10569000901AC3F307137F3BA0EBC350B8EEE12A87
:1056A00000EE100A1A44DFEDED2AF0EE411A42EE48
:1056B000221AF0EE613A70EE232A30EE632A12EEDF
:1056C000900A00F500606FF30B0001EE900A73EE94
:1056D000E13A33EE804AC1EE223A22EE230A10EE7E
:1056E000100A00F500606FF30B0000EE100A00EEE8
:1056F000612A00EE442A62EE232A70EE221A21EE7D
:10570000A12ADFEDD73A02EE233A23EE023A20EE49
:10571000012A22EE811A03EE211A32EE010A10EE5E
:10572000100A00F500606FF30B0000EE100A72EE35
:10573000401A31EE812A9FEDCB1A60EE011A9FEDDF
:10574000CA1A20EE011A9FEDC90A02EE001A31EEC4
:10575000810A10EE100A00F500606FF30B0000EEF6
:10576000100AC34871EEC01A31EE812A784400EB6A
:10577000C10090ED003AD0ED011A100101EE100ABF
:10578000F8EEC12A32EE211A31EE001A31EE031A78
:1057900031EE221A11EE100A00F500606FF30B00D3
:1057A00009EE100A39EE621A31EE431A31EE400A60
:1057B00030EE610A32EE40AA10EE900A002100F5A8
:1057C00000606FF30B0008EE900A084670EEE8AA3E
:1057D000FEF786F929EE280A00F00C01F0EEC00A67
:1057E00010EE900AB0F18B4F0DDD10EE900AB4EB85
:1057F000400F08D310EE100A4FF08B4262F31E00E8
:1058000008EE900A13E069EE2A0A38EEAA1A4AEE68
:10581000010A30EE201A11EE100A00F500606FF355
:105820000B0008EE900A30EE680A70EE209A0C2009
:10583000FEF756F938EEA90AB5EEC00AF1EE10FAF5
:1058400034BFFEEE000AF6EE000A30EE800ABDEE2E
:10585000C00A10EE100A011100EE101AF8EEC00A8C
:1058600000EE100AB8EEC00A38EEC00A30EE290A7F
:10587000DFED801A9FED801A00EE211ADFED7F1A0E
:105880007F4900F00F0040EE011A21EE800A7944B2
:1058900001EB800191ED001A7A49794401EB800116
:1058A000D1ED001A784901EE801A794401EB8000AD
:1058B000764990ED000A31EE001AB0EEE00A10EEE3
:1058C000100A884215DA10EE100AB4EB400F10D31C
:1058D0009FED6F0A30EE800ADFED6E0A20EE200A9F
:1058E00068EE010ABDEC068BBCEEC00A20EE200A71
:1058F00010BD10EE100A6849884243DA10EE100A13
:10590000B4EB400F3ED3BDEEE00A68EE010A10EEA4
:10591000100A00EBD0725110C90501F17E5100EE62
:10592000101AA0EB6200C00560EE200A00F17E5064
:1059300000EE100A60EE808A18EE900AB4EB400F79
:105940000FD1022000F0A4FC00F0C6FB10EE101AEC
:1059500018EE100ABDEC068B61F31E0000EE100A73
:1059600010BD18EE900A400011D018EE900AFEF714
:105970000BFC042808BF00F0B7FBB0EE680ABDECD2
:10598000068B10BDF5EEC00AF1EE10FA0FD2022020
:1059900000F07EFC00F0A8FB10EE101A18EE100AC2
:1059A000BDEC068B61F31E0000EE100A10BD022054
:1059B00000F06EFC00F090FB10EE101AB0EE480AFA
:1059C00010EE100ABDEC068B61F31E0000EE100A0B
:1059D00010BD00BFBCF1804F6CD300BF00F1FF438E
:1059E000B3F1FE4F24D200BFB0EEC00A10EE100A91
:1059F000C1F3C7537F2B0DDB972BBFF63BAEC3F133
:105A000096034FF0010C0CFA03F3A3F1010C1CEA0E
:105A1000010F08D0012000F03BFCBDEC068BBDE877
:105A2000104000F051BB0B4218BFBFEE008A21E6C8
:105A300043001CBF4FF08073B3EB400F34D96FF0BD
:105A40001A02DFED161A20EE210A10EE100A27E0E6
:105A500000000000001080C0ABAAAA3E0000803DFC
:105A60007EE24C3E00B03842D49AB8BB3BAA3842E2
:105A700098870000FC596337C9FF753A1872313DA9
:105A8000368700006A870000DA8600000000FC42CA
:105A90000000FE420000004B000040430000004DAB
:105AA00010F0004FA0D1E5E5A0F50003B3F1FE4FE3
:105AB00021D2DFE503EB4103B3F1007F11D3F5EE13
:105AC000C00AF1EE10FA05D1430018BFB4EB400F45
:105AD00076D883E701F0004141F0FC5100EE901AC6
:105AE0007CE7B3F1807F06D210EE903AA3F5000375
:105AF00000EE903A72E720F000426FF0FF4C604CED
:105B000002EB0C03A34210D321F000439C44A445B4
:105B10000BD3B0F17E5F18BF5FEA410C50D0B2F1F9
:105B2000FF4F98BFB3F1FF4F05D9BDEC068BBDE821
:105B3000104000F0C6BAB0F1FF4F0FD0C1F3C7520A
:105B40007F2A09DB972A11DAC2F19602012303FAB0
:105B500002F2531E0B4205D0002208E011F0004F64
:105B600055D128E00A4218BF012200D1022210F5C7
:105B7000000F13D028B3B0F1004F26D010F1814FA1
:105B80004FD04FF0FE42B2EB400F94BF01200020F7
:105B9000012202EBE171884239D10CE011F0004F93
:105BA00002D0012A38D032E0012A02BF9FED350A27
:105BB000BDEC068B10BD9FED340ABDEC068B10BD0D
:105BC0002FE011F0004F0CD121E0B1F1FF4F1ED0BA
:105BD00011F5000F05D011F0004F15D00AB1012AC0
:105BE00008D0022000F054FBBDEC068BBDE810404D
:105BF00000F05ABA022000F04BFB00F055FABDEC61
:105C0000068BB1EE400A10BD0AB1012A04D0B0EEF5
:105C1000690ABDEC068B10BDBDEC068B9FED1B0A1F
:105C200010BDBDEC068BB7EE000A10BD30EE410A88
:105C3000B5EE001A9FED172A00EE413AB6EE001AB3
:105C400060EE001A00EE431A61EEC11A9FED101AC1
:105C500020EE011A20EE020A9FED0F2A01EE820AC1
:105C600071EE001A11EE900A00F500606FF30B0060
:105C700009EE100A31EE491A31EE00AA9CE5000047
:105C8000FFFF3F00000080FF0000807F00000080D9
:105C900000B0B841D49A38BB3BAAB84110B52DED3D
:105CA000028BB0EE408A18EE100AFDF76CFE01EE92
:105CB000100A18EE100AB7EE000A78EE410A10F04A
:105CC000004F4FF07F4010EE901A12D0B1F13F4FCD
:105CD00024BF10EE901AB0EB410F12D210EE901AC2
:105CE000B1F17C5F1CDD10EE901AB0EB410F17D3C1
:105CF00014E0B1F13F4F07D910EE901AB0EB410F0D
:105D000002D331EE401A0BE010EE901AB1F17C5F35
:105D100006DB10EE901AB0EB410F01D331EE001A02
:105D200018EE100ABDEC028B11EE101A61F31E0082
:105D300000EE100A10BD000000B510EE101A2DED97
:105D4000028B81B0524A6846B2EB410F2ED94FF018
:105D5000E640B0EB410F94BF00204FF0FF300090C1
:105D60000098B0EE408A00286ADB10F0010F4BD09B
:105D700068EE080A9FED471A9FED470A00EE810A78
:105D80009FED461A10F0020F00EE801AB7EE000ADF
:105D900000EE810A02BF01B0BDEC028B00BD00BF66
:105DA00001B0B1EE400ABDEC028B00BD3C4B21F0CE
:105DB0000042934241D911F0004FDFED3A0A20EE44
:105DC000201ADFED390A19BF31EE601A71EE200A90
:105DD00031EE201A71EE600ABDEEE01A11EE100AE3
:105DE0009FED321A00F0030000EEC10A9FED301A59
:105DF000009000EEC10A9FED2F1A00EEC10A9FED40
:105E00002E1A00EEC10AABE728EE080A9FED2B1A06
:105E1000DFED2B0A10F0020F40EE410A9FED291A28
:105E200000EE201A61EE000AB0EE480A08EE200AE1
:105E3000B6D101B0BDEC028B00BD00F05DF98FE77B
:105E400018EE100A4000B0F17F4F0DD218EE100A84
:105E5000FEF79AF9042808BF00F046F9B0EE480AA8
:105E600001B0BDEC028B00BD09D1012000F010FA99
:105E700001B0BDEC028B5DF804EB00F025B901B078
:105E8000B0EE480ABDEC028B5DF804EB00F016B9E9
:105E9000B61F927EB93AB2BACA9F2A3DDDFFFFBE55
:105EA000490E494683F9223F0000004B0000C93FDC
:105EB00000A0FD390020A2331A61342C336D4C3917
:105EC000DA82083CA0AA2ABE10B52DED028BB1EEF5
:105ED000C08A18EE100A20F00040C0F1FF40C00F49
:105EE0000AD010EE100A20F00040C0F1FF40C00FB1
:105EF00004BF012000F0CCF9B0EE480ABDEC028BE3
:105F000010BD70B504462DED028B4D1E00EBC50093
:105F1000B0EE408AF0EE608A90ED000B35F006009E
:105F200017D053EC182B51EC100BFDF7D8FA41ECBD
:105F3000100B6D1E04EBC50090ED001B51EC100B17
:105F400053EC112BFDF724FA41EC100B35F0060051
:105F5000E7D1022D36D0042D1CD0062D1CBFBDEC80
:105F6000028B70BD53EC182B51EC100BFDF7B7FAF8
:105F700094ED0A1B53EC112BFDF70AFA53EC182B86
:105F8000FDF7ADFA94ED081B53EC112BFDF700FA69
:105F900041EC100B53EC182B51EC100BFDF79FFA52
:105FA00094ED061B53EC112BFDF7F2F953EC182B73
:105FB000FDF795FA94ED040B53EC102BFDF7E8F97F
:105FC00041EC100B53EC182B51EC100BFDF787FA3A
:105FD00094ED021B53EC112BFDF7DAF953EC182B5F
:105FE000FDF77DFA94ED001B53EC112BFDF7D0F972
:105FF000BDEC028B41EC100B70BD000000000000F6
:106000009FED070B10B553EC102B9FED070B51ECD8
:10601000100BFDF7D6FA41EC100B10BD000000008C
:106020000000000000000000000000000000F03F41
:1060300010B553EC112B51EC100BFDF7A9F941EC05
:10604000100B10BD000000009FED050B10B553ECC8
:10605000102B51EC100BFDF7B4FA41EC100B10BDF6
:1060600000000000000000009FED050B10B553EC90
:10607000102B51EC100BFDF732FA41EC100B10BD58
:1060800000000000000000709FED050B10B553EC00
:10609000102B51EC100BFDF722FA41EC100B10BD48
:1060A0000000000000000010DFED030AB7EE001A48
:1060B00081EE200A704700000000000030EE000A68
:1060C000704730EE200A7047DFED020A80EEA00A2A
:1060D00070470000000000009FED020A20EE000A59
:1060E00070470000000000709FED020A20EE000AD9
:1060F00070470000000000102DE9F0014FF07F42D2
:10610000B2EB410F9FBF4FF0FF310160BDE8F001DE
:1061100070474FF0004242EA0123C1F3C752783A78
:10612000551112F01F0C434CCCF120067C44C1F3F6
:10613000C752A2F178024FEA621204EB820254F8CD
:10614000254008BFD2E9015612D0556804FA0CF474
:1061500025FA06F73C43976805FA0CF527FA06F886
:10616000D26807FA0CFCF24045EA08054CEA020640
:10617000A4FB034CA5FB0352A6FB03631D449D42F5
:1061800034BF012600261319334416B1934202D9B5
:1061900003E0934201D2012200E00022624402F1B6
:1061A000200C9206DC0C42EA443200EE102A5B031B
:1061B000DFED210AF8EEC01A00EE103A4FEA9C1CFF
:1061C00011F0004FB8EE400AC0F800C020EE201ACF
:1061D00000EE105ADFED190AB8EE400A20EE200A50
:1061E00071EE810A70EE800A10EE902A02F50062CC
:1061F0006FF30B0200EE902A70EEE11A31EEC11A35
:10620000DFED101A30EE411A9FED0D0A20EE800AE4
:1062100001EE210A9FED0C1A00EE810A04BFBDE8D1
:10622000F0017047CCF180510160BDE8F001B1EEA2
:10623000400A7047207F0000000000360000802CDC
:1062400022AAFD29DB0FC92F0000C92F02E008C8D0
:10625000121F08C1002AFAD170477047002001E0E0
:1062600001C1121F002AFBD1704700000121202824
:1062700003DA81400548014003E0402802DA203873
:10628000814009B10120704700207047FC06FFBD26
:106290000149086070470000F42100202DE9FF4FFC
:1062A0008DB00F460546002606E025280BD0DDE917
:1062B0000F1290476D1C761C28780028F5D111B07C
:1062C0003046BDE8F08F0024A246A1460122EC49E9
:1062D00000E0044315F8013F203B02FA03F00842B6
:1062E000F7D128782A2810D06FF02F022878A0F153
:1062F0003001092914D80AEB8A0102EB410144F06C
:10630000020400EB010A6D1CF0E701CF5FEA000A0E
:1063100003D544F40054CAF1000A44F002046D1C91
:1063200028782E2817D115F8010F44F004042A28E4
:106330000ED06FF02F022878A0F1300109290AD879
:1063400009EB890102EB410100EB01096D1CF2E749
:1063500057F8049B6D1C28786C280FD006DC4C285D
:1063600017D068280DD06A2814D104E0742810D002
:106370007A280FD10DE044F400140AE044F48014AC
:1063800001E044F440146978814202D104F580149C
:106390006D1C6D1C2A786E2A1FD00CDC632A31D04C
:1063A00004DC002A8BD0582A11D1A3E0642A68D0DB
:1063B000692A0CD165E0732A2ED004DC6F2A73D0D1
:1063C000702A04D19BE0752A6FD0782A6ED01046CF
:1063D000DDE90F129047761C50E1C4F30250022809
:1063E00006D0032809D0042801CF09D0066045E172
:1063F00001CFF117C0E9006140E101CF06803DE126
:1064000006703BE117F8040B8DF8000000208DF8B2
:106410000100EB46012003E057F804BB4FF0FF30CA
:1064200061074FF0000102D40DE008F10101884638
:1064300049450FDA8045F8DB1BF808100029F4D134
:1064400008E008F1010188468142FADB1BF80810D8
:106450000029F6D1DDE90F23AAEB08008146214689
:1064600000F036F9304400EB080604E0DDE90F12D5
:106470001BF8010B9047B8F10108F7D221464846B6
:10648000F7E00A21C4F302534FF0000B0891022BEE
:1064900004D001CFC117032B09D00AE0FF1D27F05C
:1064A0000707F7E8020108E032E01FE020E000B251
:1064B000C117042B01D140B2C117031E71F10003B3
:1064C00007DA4FF0000CD0EB0C006CEB01012D2330
:1064D00002E0230504D52B238DF82430012303E0AB
:1064E000E30701D02023F7E7984658E00A2110E09F
:1064F00010210EE010204FF0000B08900CE010214E
:106500004FF0000B44F004044FF00809089103E039
:1065100008214FF0000B0891C4F30253022B04D062
:1065200001CF0021032B06D006E0FF1D27F007074F
:10653000F7E8020103E080B2042B00D1C0B24FF0B3
:10654000000823072BD5702A07D0DDF820C08CF077
:10655000100C5CEA0B0C05D00EE040238DF82430C3
:10656000012308E050EA010306D030238DF82430DF
:106570008DF8252002239846DDF820C08CF0080C09
:106580005CEA0B0C0BD150EA010301D1630706D57D
:1065900030238DF824304FF00108A9F10109582A61
:1065A00004D038A20B9208AA0A920BE03AA2F9E7AB
:1065B0005B46089AFCF740FE0B9B9B5C0A9A521EB6
:1065C0000A92137050EA0102F2D10A98ADEB000072
:1065D00000F1200B600702D524F4803401E04FF075
:1065E0000109D94502DDA9EB0B0000E0002000EB1A
:1065F0000B0141440890AAEB010AE00306D4DDE94F
:106600000F232146504600F063F806444FF000097E
:1066100008E009A911F80900DDE90F12904709F116
:106620000109761CC145F4DBE0030CD5DDE90F233D
:106630002146504600F04CF8064404E0DDE90F1214
:1066400030209047761C0899481E08900029F5DCF8
:1066500008E00A980A990078491C0A91DDE90F12AE
:106660009047761CBBF10001ABF1010BF1DC214638
:106670005046DDE90F2300F019F806446D1C1BE6B7
:106680000928010030313233343536373839616208
:1066900063646566000000003031323334353637CC
:1066A0003839414243444546000000002DE9F0419D
:1066B000044600251E461746880404D405E03946E2
:1066C0002020B0476D1C641EF9D52846BDE8F08136
:1066D0002DE9F041044600251E469046C80301D529
:1066E000302700E02027880404D505E041463846DD
:1066F000B0476D1C641EF9D52846BDE8F0810A68D4
:10670000531C0B60107070471FB500200090029062
:10671000019003908DF800008DF80800A020ADF8DE
:106720000A000520ADF80C000121684673DF08B1AE
:1067300000F046F8002004F00BFF1FBD70B50024E8
:10674000084D05E0686810F8340005F05DFF641C32
:1067500028788442F6D304480068BDE8704000F011
:10676000BBB80000C421002098D9020070B50024F5
:10677000064D06E06868012110F8340005F068FF56
:10678000641C28788442F5D3002070BDC421002009
:1067900009480068C00700D000BEBFF34F8F06480D
:1067A000E4380168054A01F4E06111430160BFF378
:1067B0004F8F00BFFDE70000F0ED00E00400FA0598
:1067C0000EB500210091CDE901106A4644F20100A6
:1067D000FFF7DEFF0EBD0000074B9B7823B12AB107
:1067E00020B10068037C1BB1082070470720704768
:1067F00041744261002070479025002070B506F07A
:10680000E7F9104800240B21047044700E4D81708C
:1068100014206C602C706C70FDF782FA0721142034
:10682000FDF79FFA1420FDF786FA08480460072157
:106830001120FDF796FA0548001F0068A8600020A7
:1068400070BD000090250020D821002008150140CF
:106850002DE9FC47DFF8789099F8023073B368B3FC
:10686000052902D20720BDE8FC87436933B3437C86
:10687000012B25D0002704460025884616468DF8B2
:106880000050684600F038F801A806F053FFC8B180
:10689000012101700F4944600968C0E90218C0E98C
:1068A00004769DF8040089F801009DF8000000F0CE
:1068B00047F81420FDF74AFA2846D4E70820D2E723
:1068C0000F46D8E704259DF8000000F039F8F3E7FB
:1068D00090250020041501400649897839B130B16E
:1068E000416921B100210174022106F0D5BB0820C5
:1068F000704700009025002030B5EFF3108172B68C
:106900000D4A9468012324B10370002900D162B6B6
:1069100030BD93604FF0E023D3F88051074C254001
:106920001560C3F88041D3F8844154605A17C3F806
:10693000842100220270E8E79C260020FC06FFBDAF
:106940000B498A68002A11D000280FD1EFF310807C
:1069500072B60B684FF0E022C2F800314B68C2F803
:10696000043100228A60002800D162B6704700001E
:106970009C2600202DE9FC47002517880646158037
:1069800090F82D001446894630B13A4621464846D3
:1069900000F01AF9050009D1B0784FF00C0A18B3CD
:1069A0002088C846001DB84202D95046BDE8FC8781
:1069B000684679DF0028F9D12088032108F8001003
:1069C00020881921401C80B2208008F800102088FF
:1069D000401C80B2208000EB0801BDF8000006F0EA
:1069E00070FE218808442080F0780222C8B12188F6
:1069F00096F9033001F1030C4846BC45D5D8425402
:106A000021884FF0010C491C89B2218000F801C097
:106A10002188491C89B2218009F801302088401C56
:106A200020807068B8B1218890F9003001F1030C22
:106A30004846BC45B9D8425421880A22491C89B22B
:106A4000218042542188491C89B2218009F80130F3
:106A50002088401C2080308950B1CDE900474B464A
:106A60000622022106F1080006F07CFE05009DD1F9
:106A7000308A50B1CDE900474B460722032106F189
:106A8000100006F06FFE050090D1308B50B1CDE9BB
:106A900000474B461522142106F1180006F062FE4D
:106AA000050083D1306A30B13B462246494604F0A6
:106AB000B3FE0500DBD1706A30B13B462246494641
:106AC00005F0F6F90500D2D196F82C0038B13B4616
:106AD00022464946304606F0BFF90500C7D1307856
:106AE00038B13B4622464946304605F045FB050095
:106AF000BDD128465AE7F0B50C4693B01F210726B2
:106B0000ADF80010ADF80410002750B1C178490766
:106B10000DD56A4602A9FFF72DFF002808D102AD66
:106B200002E00025ADF800706CB1E07810B130469D
:106B300013B0F0BD01AA0AA92046FFF71BFF0028E9
:106B4000F6D10AAA02E00022ADF80470BDF80400F4
:106B5000C3B2BDF80000C1B2284672DFE8E700000A
:106B600070B5040012D001461C221448FCF7E5FB66
:106B70001248134D0560206850B17ADF002806D115
:106B80002068016829604068686005E00E2070BDDB
:106B90000B487BDF0028FAD108484FF6FF71143804
:106BA000084A20F8041B0549343901600021FFF729
:106BB00013FE0028EBD0032070BD0000E823002066
:106BC000BC210020CDD602007CB5054608880C46C5
:106BD0000930904201D90C207CBD68466DDF002849
:106BE000FAD121880820685420881B21401C80B2DB
:106BF000208029542088401C80B220802844DDF861
:106C000001100160BDF8051081802088801D80B2D0
:106C100020809DF80010490800D0012129542088C7
:106C2000401C208000207CBD30B5044600883D4DCE
:106C300089B021283BD013DC01284DD010281BD06F
:106C4000112824D013283BD100231A468521E88837
:106C50007FDF002834D009B0BDE83040FFF7B0BD79
:106C60003B2835D051283BD052282BD0562827D14D
:106C7000A088132176DFECE7012004F069FC0020F6
:106C800004F05EFCA088E880FFF770FDE1E70120DA
:106C900004F056FC4FF6FF70E880FFF74FFD08B197
:106CA000FFF78EFD09B0BDE83040FFF72DBD002095
:106CB0000090A08869468FDF2FE000BFFFF780FDBE
:106CC00009B030BD00231A461946E888A9DFC0E79D
:106CD000A088132176DFBCE7A088002166DFB8E733
:106CE0001022A11D04A8FCF728FB9DF81010002914
:106CF000E6D09DF81800042803D0062801D0052806
:106D0000DED102290CD001208DF800004FF4C170B3
:106D1000ADF80400A0886946A8DF0028CED1CFE7EF
:106D20000220F1E7802100202DE9F04701883B4E49
:106D300040F2F3194FF6FF7510291BD011293ED0F0
:106D4000122954D0502946D1C188F289841D91421C
:106D500041D1618902293ED18688304604F002FE85
:106D6000050038D004F10C0000F025F9A8B329463D
:106D700030464EE0C17B8788044601292BD1A846C6
:106D8000284604F0EFFD050017D02F800020287260
:106D9000234843464A460168C5F80A104068C5F8CA
:106DA0000E0004F1100105F10A0004F08CFE687277
:106DB000F08900280FD129462AE0042013E08088BA
:106DC00004F0D0FD040006D06068FFF785FD08B12F
:106DD00006F03AF82580BDE8F087FFE76868FFF71E
:106DE0007BFD0028F7D0BDE8F04706F02DB8878876
:106DF0000646384604F0B6FD0400ECD02B464A4661
:106E000006F1080104F10A0004F05DFE60722146FB
:106E10003846BDE8F04704F045BD0000E8230020F7
:106E2000BC2100202DE9F047044603883F48012299
:106E3000A4B000F1480A102B09D0112B54D01A2B02
:106E400070D1217AB2EB111F53D2012352E0D0E965
:106E500011218A430546011D12A805F0C8FF4422EE
:106E600012A901A8FCF769FADFF8C090002637469E
:106E700009F144090DF104080AE000BF08EB4600DF
:106E80001D2283884946281D009705F075FF761C52
:106E90000198B042F2D8686CA688C04305F08EFF16
:106EA000A0F57F41FF3917D005EB40000123868014
:106EB00032465146281D05F0BFFF012332464946A0
:106EC000281D05F0B9FFE07B02280BD000231749ED
:106ED000A2884C31281D20E024B00420BDE8F047F2
:106EE000FFF76EBC0123F2E70023A2885146001D84
:106EF00013E000230D490546A2885031001D05F01E
:106F00009BFF207A0221B1EB101F01D2012300E088
:106F100000230649A2885431281D24B0BDE8F0475B
:106F200005F08ABF24B0BDE8F087000004240020EB
:106F300030B50446134B85B008680D4660610FCB31
:106F40008DE80F0004F11201684662DF002816D1B7
:106F5000A07C8DF8120041F22350ADF810002246BB
:106F600004A90120A0DF002809D12946204604F009
:106F700041FB002803D12946204604F0C6FD05B098
:106F800030BD000078D9020030B40288502A10D1F8
:106F9000034630F8062F4C88A2420AD14289012AC2
:106FA00007D14C69002C04D0027B9888A44630BCE1
:106FB000604730BC7047007800F001007047F8B5BA
:106FC0000D46034600214FF0FF300E466C466654D6
:106FD000491CC9B20229FAD39BB1012B21D0022B43
:106FE0000ED192F83000966B22464C21B04700211A
:106FF0006B18625C491CC9B283F82F200229F7D3B1
:10700000F8BD92F830000223966B22462A21B04741
:107010000022AB18A15C521CD2B25973022AF8D3D9
:10702000F8BD92F830000223966B22463B21B04710
:1070300000216B18625C491CC9B29A770229F8D307
:10704000F8BDF8B50D46034600214FF0FF300E465F
:107050006C466654491CC9B20229FAD39BB1012B74
:1070600021D0022B0ED192F83000966B2246472198
:10707000B04700216B18625C491CC9B283F82A2012
:107080000229F7D3F8BD92F830000223966B22460E
:107090002521B0470022AB18A15C521CD2B2197254
:1070A000022AF8D3F8BD92F830000223966B2246EC
:1070B0003621B04700216B18625C491CC9B25A7670
:1070C0000229F8D3F8BDF8B50D46034600214FF06C
:1070D000FF300E466C466654491CC9B20329FAD3E8
:1070E000A3B1012B22D0022B0FD192F83000032341
:1070F000966B22464121B04700216B18625C491C07
:10710000C9B283F824200329F7D3F8BD92F83000E0
:107110000323966B22461F21B0470022AB18A15CC7
:10712000521CD2B29970032AF8D3F8BD92F83000FD
:107130000323966B22463021B04700216B18625C16
:10714000491CC9B2DA740329F8D3F8BDF8B515465D
:107150000E46024600214FF0FF300B466C4663544A
:10716000491CC9B20329FAD322B3012A41D0022A09
:107170001FD10323AF6B95F8300022464421B84756
:1071800000203218215C401CC0B282F8271003286E
:10719000F7D395F83000AD6B03236A464921A84721
:1071A00000217318625C491CC9B283F82C200329A2
:1071B000F7D3F8BD0323AF6B95F8300022462221A8
:1071C000B84700203218215C401CC0B2517103281E
:1071D000F8D395F83000AD6B03236A462721A84702
:1071E00000217318625C491CC9B29A720329F8D352
:1071F000F8BD0323AF6B95F8300022463321B84722
:1072000000203218215C401CC0B291750328F8D3CD
:1072100095F83000AD6B03236A463821A84700215A
:107220007318625C491CC9B2DA760329F8D3F8BD39
:1072300070B501EB8101049C04EBC1058418052B9A
:107240001CD2DFE803F0031C293C49006079A179D6
:10725000000340EA0110E17940EA1110FCF747FA17
:10726000C5E90401A078E178000340EA0110217922
:1072700040EA1110FCF73BFAC5E9020170BD6079E4
:10728000A179000340EA0110E17940EA1110FCF70E
:107290002EFAC5E9040170BD6079A179000340EAC6
:1072A0000110E17940EA1110FCF721FAC5E9040167
:1072B000208940BAFCF71BFAC5E9060170BD687960
:1072C0000128FBD1607BA17B800040EA9110FCF794
:1072D0000EFAC5E9080170BDA078E178000340EA24
:1072E0000110217940EA1110FCF701FAC5E9020109
:1072F0006079A179000340EA0110E17940EA1110B8
:10730000FCF7F5F9C5E90401208940BAFCF7EFF96B
:10731000C5E90601D3E700002DE9F84305460898C2
:1073200000241E4690F8310090460F4601282FD0C9
:107330005FF0030704EB0410C2B2A85CC10904EBC0
:10734000840006F83010A95C06EBC000C1F3801180
:107350004170A95CC1F340118170A95C21F0F0017A
:10736000C170A9184B7803718B7B23F0F003C371B4
:107370008B7BC3F340134371897B4346C1F30011F8
:107380008171E1B228460096FFF752FF641C64B297
:10739000BC42CFDBBDE8F8832DE9F0419FED360A12
:1073A00090462DED088B0022AAB01446F0EE409ACC
:1073B0008DF8A0201746B0EE409AF0EE408AF0EE2D
:1073C00040AAB0EE40AAB0EE408AB0EE40BA002922
:1073D0004DD00A228DF8A02028AB6A4603F0E8FEC3
:1073E000034669462DE000BF01EB0410427B062AEC
:1073F00021D006DC012A0BD0042A19D0052A1ED17F
:107400000DE0072A11D00D2A06D00E2A17D109E067
:10741000D0ED029A877B10E090ED029A0DE0D0ED5E
:1074200002AA0AE090ED02AA07E090ED02BA04E099
:10743000D0ED028A01E090ED028AD0E90056641C8A
:10744000E4B29DF8A0008442CED3B0EE4B3AF0EE09
:10745000482AB0EE682AF0EE6A1AB0EE4A1AF0EE48
:10746000490A3A46B0EE690A28463146C0472AB072
:10747000BDEC088BBDE8F081000000002DE9FC4761
:107480000646DDF828801C4615460F465FEA0800D0
:107490007ED000208DF804000146514A01A801F079
:1074A000EDF89DF80400002872D04D4B0422012114
:1074B000A3F1480001F040F949480090A0F12001F3
:1074C00004230122483800F08BF9DFF814915FEAB9
:1074D000C870A9F1200916D02178012005EB01110F
:1074E000487399ED000B51EC100BFCF7E7F921788C
:1074F00005EB01118860207805EB0010C0E90067FA
:107500002078401C20705FEA48702BD5217803203A
:1075100005EB0111487399ED020B51EC100BFCF7D0
:10752000CDF9217805EB0111886020780E2105EB5B
:107530000010C0E900672078401CC0B2207005EB45
:1075400000104173274890ED000A207805EB0010E9
:1075500080ED020A207805EB0010C0E90067207872
:10756000401C20705FEA887018D52178022005EB56
:107570000111487399ED040B51EC100BFCF79EF9C7
:10758000217805EB01118860207805EB001000E000
:1075900023E0C0E900672078401C20705FEA087093
:1075A0001BD50F4848384079002816D02178042090
:1075B00005EB0111487399ED060B51EC100BFCF72C
:1075C0007DF9217805EB01118860207805EB00102A
:1075D000C0E900672078401C2070BDE8FC870000EF
:1075E00070230020B8210020F0B50E462DED048B4D
:1075F00081B0002104468DF80010007D00287CD069
:107600004B484170227CC2700170E17C0171617C49
:107610008171A17C417100F1800101F093FA207C1D
:10762000012501280BD14248A1890A304180E18916
:10763000C18280F82A5000F1760101F0CAF93C4974
:107640000120803101F055FAA17C05FA01F0FCF728
:107650003DF89FED389B53EC192BFBF799FE41EC5D
:10766000100B9FED361B53EC102B51EC110BFBF75D
:107670008FFEFCF723F9617C074605FA01F0FCF761
:1076800025F853EC192BFBF783FE41EC180B384619
:10769000FCF7D0F853EC182BFBF77AFEFCF70EF949
:1076A0000746E07C05FA00F0FCF710F853EC192BC4
:1076B000FBF76EFE41EC180B3846FCF7BBF853ECB9
:1076C000182BFBF765FEFCF7F9F808EE100A207C92
:1076D000C0B1E089FCF70BF89FED1A1B53EC112B9E
:1076E000FBF756FE41EC190B18EE100AFCF7A2F856
:1076F00053EC192BFBF74CFE00E008E0FCF7DEF83A
:1077000008EE100ABCEEC80A10EE100A09E008499B
:107710006846803100F0F0FF9DF80000012802D19A
:107720000520B047F3E701B0BDEC048BF0BD0000CD
:10773000F0220020000000000000E03F00000000F8
:107740000000F03F000000000000044000B599B0C8
:10775000012105208DF804108DF860008DED000AE0
:107760000D218DF80C108DED020A8DF814008DEDB1
:10777000040A0E208DF81C008DED060A07218DF8F5
:1077800024108DED080A04208DF82C008DED0A0AD6
:1077900006208DF834008DED0C0A18AB0EAA684651
:1077A00003F0BEFE19B000BDF0B500252C46561EF4
:1077B00012E0171BA3EB050C0744844417F8017C67
:1077C0000CF8017C8F187F1E491EAD1C641C0CF840
:1077D000027CC9B26DB264B2B442EADBF0BD000013
:1077E0002DE9F05F0D468046511E2DED028B9B4624
:1077F00091464FF0FF304FF0030A03297ED20C99D7
:1078000091F83110002979D0012901D0002477E0C6
:107810004FF001095FF00004BBF1050F6CD2DFE807
:107820000BF015033258740004EB840108EBC1001F
:1078300090ED040B51EC100BFBF7A6FF0C9900F038
:10784000ADFB05EB441080ED020B55E004EB840129
:1078500008EBC10797ED040B51EC100BFBF794FFFD
:107860000C9900F09BFB05EB441686ED020B97ED9F
:10787000020B51EC100BFBF787FF0C9900F00AFA92
:1078800086ED000B38E004EB840108EBC10797EDAF
:10789000040B51EC100BFBF777FF0C9900F07EFB0B
:1078A00005EB4416B0EE408A86ED020BF0EE608ADE
:1078B00097ED060B51EC100BFBF766FF80B2B0EEB4
:1078C000480AF0EE680A0C9900F002F986ED040B04
:1078D00012E004EB840108EBC10696ED080B51ECB5
:1078E000100BFBF751FF80B2F1790C9A00F050F8C1
:1078F00005EB441080ED060B641C00E043E0E4B2AD
:107900004C453FD2544587D33CE004EB840108EB5F
:10791000C10797ED040B51EC100BFBF735FF0C99E9
:1079200000F03CFB05EB441686ED020B97ED020BD5
:1079300051EC100BFBF728FF0C9900F0ABF986ED2A
:10794000000B97ED060B51EC100BFBF71DFF80B2FF
:1079500096ED020B0C9900F0BBF886ED040B97ED49
:10796000080B51EC100BFBF70FFF80B2F9790C9A62
:1079700000F00EF8641CE4B286ED060B4C4501D213
:107980005445C2D30020BDEC028BBDE8F09F00003F
:1079900070B515462DED088BC0B00C46064680220A
:1079A0003E496846FBF7C9FC3C498022803120A84B
:1079B000FBF7C3FC95F90D00FBF788FE9FED381B24
:1079C00053EC112BFBF78BFD9FED371B53EC112B69
:1079D000FBF7DEFC41EC190B684600EBC4009FEDA1
:1079E00034BB90ED000B53EC1B2B51EC100BFBF751
:1079F000E8FD9FED318B53EC182BFBF7C9FC53ECE2
:107A0000192BFBF76CFD41EC1A0B20A800EBC4000E
:107A100053EC1B2B90ED000B51EC100BFBF7D1FD41
:107A200053EC182BFBF7B4FC41EC190B3046FBF779
:107A30005EFE9FED231B53EC112BFBF74AFD53EC2D
:107A40001A2BFBF7BEFD53EC182BFBF7A1FC41EC06
:107A50001A0B0120A040FBF739FE9FED1B0B41ECF8
:107A60001B0B53EC102B51EC190BFBF738FD53ECAF
:107A70001B2BFBF734FD53EC1A2BFBF730FD41ECCD
:107A8000100B51EC180B53EC102BFBF79AFD40B088
:107A900041EC100BBDEC088B70BD000058D8020003
:107AA00000000000000014400000000000F09440BE
:107AB0000000000000005940000000000000F03FFE
:107AC00000000000000080408DEDB5A0F7C6803EAC
:107AD00070B505462DED0C8B0C46B0EE408AF0EEED
:107AE000608A9FED5ACB9FED5BBB91F90500FBF7D8
:107AF000EDFD9FED5A1B53EC112BFBF7F0FC53EC03
:107B0000182BFBF7ECFC41EC190B208CFBF7EFFD7D
:107B10009FED541B53EC112BFBF7E1FC53EC192B9D
:107B2000FBF736FC41EC190B2846FBF7E0FD53EC64
:107B3000192BFBF7CEFC41EC190B94F90700FBF76E
:107B4000C5FD9FED4A1B53EC112BFBF7C8FC53EC12
:107B5000182BFBF7C4FC53EC182BFBF7C0FC41ECD3
:107B60001A0B94F90600FBF7B1FD9FED42DB53ECD5
:107B70001D2BFBF7B4FC53EC182BFBF7B0FC9FED6F
:107B80003F1B53EC112BFBF703FC53EC1A2BFBF7B9
:107B9000FFFB41EC1A0B608CFBF7A9FD9FED391B35
:107BA00053EC112BFBF79BFC53EC1A2BFBF797FCC8
:107BB00053EC192BFBF793FC41EC190B207AFBF7E4
:107BC00096FD53EC1D2BFBF78AFC41EC1A0B94F944
:107BD0000900FBF77BFD9FED2D1B53EC112BFBF7F1
:107BE0007EFC53EC182BFBF77AFC53EC1A2BFBF7BB
:107BF000CFFB53EC192BFBF772FC53EC192BFBF763
:107C00006EFC53EC192BFBF7C3FBB0EE4C9AF0EE75
:107C10006C9A41EC180B53EC192BFBF737FE0AD387
:107C2000B0EE4B9AF0EE6B9A53EC192B51EC180B0B
:107C3000FBF714FE03D2B0EE498AF0EE698AB0EE8B
:107C4000480AF0EE680ABDEC0C8B70BD0000000025
:107C5000000059400000000000000000000000008B
:107C60000000E03F00000000000030400000000085
:107C70000000B03E000000000000103F00000000C7
:107C80000000F03F000000000000D03E00000000B7
:107C90000000A03E70B505462DED0C8B0C469FED07
:107CA0009BBB486AFBF712FD9FED9A0B53EC102B20
:107CB000FBF715FC9FED991B53EC112BFBF709FC0F
:107CC00041EC180B94F90200FBF700FD9FED95AB1A
:107CD00053EC1A2BFBF703FC41EC190B53EC182B5C
:107CE00051EC180BFBF7FBFB53EC192BFBF7F7FBE5
:107CF00041EC190BB4F91A00FBF7E8FC53EC182B14
:107D0000FBF7EDFB9FED891B53EC112BFBF7E7FB1A
:107D100053EC192BFBF73CFB41EC190BB4F91800A1
:107D2000FBF7D4FC9FED831B53EC112BFBF7D7FB28
:107D300041EC1C0B9FED810B51EC190B53EC102BFC
:107D4000FBF7CDFB53EC1C2BFBF722FB41EC190B93
:107D5000B4F91600FBF7BAFC53EC182BFBF7BFFB8A
:107D600041EC1C0B94F90100FBF7B0FC53EC182B11
:107D7000FBF7B5FB53EC182BFBF7B1FB9FED711B29
:107D800053EC112BFBF7ABFB53EC1C2BFBF700FB6D
:107D90009FED6E1B53EC112BFBF7A1FB41EC180B75
:107DA000A08AFBF7A4FC41EC1D0B9FED6ACB51ECC4
:107DB000180B53EC1C2BFBF792FB9FED681B53EC4D
:107DC000112BFBF7E5FA53EC1D2BFBF788FB41EC7D
:107DD000180B2846FBF78BFC9FED621B53EC112B15
:107DE000FBF77AFB41EC1D0B51EC180BFBF7ADFCDC
:107DF00000287DD09FED5D0B51EC190B53EC102B3F
:107E0000FBF76DFB53EC1D2BFBF766FB9FED591B3E
:107E100053EC112BFBF763FB53EC182BFBF7D1FB57
:107E200041EC190BB4F91E00FBF750FC53EC192B75
:107E3000FBF755FB53EC192BFBF751FB9FED4F1B49
:107E400053EC112BFBF74BFB41EC1B0BB4F91C0063
:107E5000FBF73CFC53EC1C2BFBF741FB53EC192BC1
:107E6000FBF73DFB41EC1C0B2079FBF740FC53EC8E
:107E70001A2BFBF734FB41EC1A0B9FED420B51EC34
:107E8000190B53EC102BFBF72AFB41EC180B53ECAE
:107E9000182BFBF724FB53EC182BFBF720FB53ECC0
:107EA0001A2BFBF71CFB41EC180B94F90300FBF7B2
:107EB0000DFC9FED361B53EC112BFBF710FB41EC37
:107EC0001A0B53EC1C2B51EC1B0BFBF761FA53EC18
:107ED000182BFBF75DFA53EC1A2BFBF759FA9FEDC1
:107EE0002D1B53EC112BFBF7FAFA53EC192B00E086
:107EF00006E0FBF74DFA41EC100BBDEC0C8B70BDAE
:107F0000B0EE4B0AF0EE6B0AF7E70000000000004D
:107F100000000000000000000000E03F0000000042
:107F20000040EF40000000000000E03E00000000C4
:107F300000000040000000000000F04000000000D1
:107F40000000D03F000000000000103F00000000D3
:107F50000000C03E000000000000003F00000000E4
:107F60000000F03F00000000000030410000000071
:107F70000000303F00000000006AB8400000000030
:107F80000000003E000000000000703F0000000004
:107F900000006040000000000000B03F2DE9F0410B
:107FA00004462DED0A8B0F46B1F91200FBF78EFB4C
:107FB00041EC180B388AFBF79AFB884648EC100B0B
:107FC00005469FED451B51EC100B53EC112BFBF7B5
:107FD00086FA41EC190B2046FBF789FB0E4646EC6E
:107FE000100B9FED3F1B044653EC112B51EC100B73
:107FF000FBF775FA53EC192BFBF76BFA53EC182BC4
:10800000FBF76DFA41EC190B97F90000FBF75EFBEB
:108010009FED351B53EC112BFBF761FA48EC105B1D
:108020009FED33AB41EC180B53EC1A2B51EC100BBA
:10803000FBF755FA46EC104B9FED2FCB41EC1B0B99
:1080400053EC1C2B51EC100BFBF749FA53EC1B2B98
:10805000FBF73FFA48EC105B41EC1B0B53EC1A2B7F
:1080600051EC100BFBF73BFA46EC104B41EC1A0BB2
:1080700053EC1C2B51EC100BFBF731FA53EC1A2B81
:10808000FBF727FA53EC1B2BFBF729FA53EC182BC1
:10809000FBF725FA41EC100B51EC190B53EC102BAC
:1080A000FBF776F90D4645EC100B044651EC100B2E
:1080B000FBF74BFB45EC104B9FED111B786253EC2B
:1080C000112B51EC100BFBF77CFABDEC0A8B41EC49
:1080D000100BBDE8F0810000000000000000503FE0
:1080E000000000000000103F0000000000003040D1
:1080F000000000000000203F000000000000E03E03
:10810000000000000000B44070B514462DED068B51
:108110000E4605469FED560BC838C8287DD894F901
:108120000A00FBF7D3FA9FED541B53EC112BFBF71E
:10813000D6F99FED531B53EC112BFBF729F941ECBA
:108140001A0BB4F90E00FBF7C1FA9FED4F1B53EC6D
:10815000112BFBF7C4F99FED4E1B53EC112BFBF7D2
:10816000BEF99FED4D1B53EC112BFBF711F941ECC0
:10817000180B94F92800FBF7A9FA9FED491B53EC63
:10818000112BFBF7ACF941EC190B2846FBF7AFFAC2
:1081900053EC182BFBF7A3F99FED438B53EC182BF3
:1081A000FBF7F6F853EC1A2BFBF799F941EC1A0B95
:1081B0003046FBF78BFA53EC192BFBF790F953EC95
:1081C0001A2BFBF7E5F841EC190B94F90C00FBF7BF
:1081D0007DFA9FED371B53EC112BFBF780F953EC25
:1081E000182BFBF7D5F841EC100B51EC180B53ECA6
:1081F000102BFBF7E6F941EC180BE07AFBF777FA66
:108200009FED2DAB53EC1A2BFBF7C2F841EC100B92
:1082100051EC1A0B53EC102B00E01CE0FBF7D1F9EA
:1082200053EC192BFBF75BF953EC182BFBF757F9C1
:108230009FED231B53EC112BFBF74BF99FED221BFA
:1082400053EC112BFBF74BF9FBF79EFAC0B2FBF78F
:108250004EFA41EC100B51EC100BFBF795FAC0B243
:10826000FBF745FABDEC068B41EC100B70BD00002E
:108270000000000000000000000000000000B03F0F
:108280000000000000804840000000000000003FA7
:10829000FCA9F1D24D62403F55C1A8A44E40633FB6
:1082A000000000000000503F000000000000F03F10
:1082B000FCA9F1D24D62603F0000000000001040B8
:1082C00000000000000039403333333333330B40B8
:1082D0002DE9F04701EB8101DDE9087606EBC105E8
:1082E00002EB8201044606EBC10803EB8301002088
:1082F00004F1280906EBC1061BE0D0B101281FD00C
:1083000000EB800104EBC10132680A60B2888A8008
:10831000B2798A71401CC0B20328EED3DFB1012FBD
:1083200019D0022F17D0032F6CD0042F44D100276F
:108330008DE029682160A988A180A979A171E9E768
:10834000D8F80020A262B8F80420A28598F8061098
:1083500084F82E10DEE7002013E090B1012815D03C
:1083600000EB800196ED040B04EBC10181ED040BE1
:10837000401CC0B20328F0D36FB1022F1CD10020E3
:1083800036E095ED040B84ED040BF1E798ED040B5A
:1083900084ED0E0BECE7002010E078B1012812D03C
:1083A00000EB800196ED020B04EBC10181ED020BA5
:1083B000401CC0B20328F0D3BDE8F08795ED020B56
:1083C00084ED020BF4E798ED020B84ED0C0BEFE764
:1083D00070B1012811D000EB800196ED060B04EB83
:1083E000C10181ED060B401CC0B20328F0D3E3E7C6
:1083F00095ED060B84ED060BF5E798ED060B84ED85
:10840000100BF0E700200FE070B1012811D000EB55
:10841000800196ED080B04EBC10181ED080B401CB7
:10842000C0B20328F0D3C7E795ED080B84ED080B25
:10843000F5E798ED080B84ED120BF0E73FB1012F43
:1084400008D007EB8700314604EBC00004E0294662
:10845000204601E0414648462822FAF76EFF7F1C7D
:10846000FFB2032FEAD3A7E770B58CB00022044611
:108470004FF0FF308DF82C2011466B465A54491CA2
:10848000C9B22929FAD304B394F8321003F11905BB
:1084900001291ED002291AD11923A66B94F83000A5
:1084A0006A468921B0471023A66B94F830002A460B
:1084B000E121B04700280AD12146684600F0EEF9D4
:1084C00094F83200012818D01BE06FF001000CB0C6
:1084D00070BD2146002000F0E6FA0028F7D11923EC
:1084E000A66B94F830006A460921B047102394F82F
:1084F00030002A466121A66BDBE72146012000F00F
:10850000D2FA0123A56B94F830000BAA0221A847E8
:108510009DF82C000123C0F30110E072A56B94F8C4
:1085200030000BAA0021A8479DF82C0020730123DE
:10853000A56B94F830000BAA0421A8479DF82C10D5
:1085400041F303116173C2E72DE9F04107461D466F
:1085500016460C004FF0FF3010D0012C0ED0022C2C
:108560000CD0032C20D0042925D19C6B95F8300029
:10857000A446BDE8F04131231D2160471A4631462B
:108580003846FEF7E3FD44B1022C14D12A463146A9
:108590003846BDE8F041FEF754BD2A46314638461C
:1085A000BDE8F041FEF78FBD31463846BDE8F041E9
:1085B0001A46FEF704BDBDE8F0810000F8B50023BF
:1085C00002221D466C46E5545B1CDBB2032BFAD33A
:1085D0005FF0000303EB830500EBC5052D79E5543F
:1085E0005B1CDBB2032BF5D39DF800509DF80130E6
:1085F00000209D4202D9A5EB030601E0A3EB05068E
:10860000022E08DC9DF80260B34201D99F1B00E0F6
:10861000F71A022F15DD225C401CC0B2FF2AFAD1E6
:10862000401EC2B2022A06D0012A07D0501CC3B293
:10863000901CC0B21DE0002301201AE0022300209C
:1086400017E00020B54203D99D4202D8012000E086
:1086500002209042A2F1010303D1921EDBB2D2B2FA
:1086600007E01C46984202D1931EDBB201E013469C
:10867000E2B201F82C0F4B708A70F8BD2DE9F04181
:1086800006464FF0FF350F461400284604D094F8F4
:108690003210012904D007E06FF00100BDE8F0813D
:1086A0001146012000F0FFF994F83210022901D0A0
:1086B0000028F3D12FB1012F0AD0022F15D0284660
:1086C000ECE794F830000123A46B32461D2105E04D
:1086D00094F83000A46B012332462E21A0470028D5
:1086E000DCD13178C9093170D8E794F83000012322
:1086F000A46B32463F21F1E7F8B505464FF0000084
:108700000C008DF8000014D00123A66B94F8300003
:108710006A467421B04700280AD19DF8001021F064
:10872000FC01297094F83120012A01D084F831101D
:10873000F8BD6FF00100F8BD2DE9F047AEB000269E
:108740000F96814683F82C6083F82D60481E924670
:108750000F461C464FF0FF3583F82E6003286DD27C
:1087600094F83100002869D0012812D00FAA02A97C
:10877000484600F0CEF8054621464846FFF71EFF62
:1087800094F82C000DF13C0818F8001001290AD0CB
:108790000FE00F23A56B94F8300002AA1D21A84713
:1087A0000546012725E0234602AA5146FFF7CCFEE5
:1087B0000546022F02D0032F03D01AE094F82D00B3
:1087C0000DE094F82D0018F80010012905D123467A
:1087D00002AA5146FFF7B8FE054694F82E0018F895
:1087E0000010012905D1234602AA5146FFF7ACFE2D
:1087F00005461DBB4B465246394602A80094FEF77B
:108800008BFD94F83100012818D010AF06EB8600DC
:1088100009EBC00107EBC0002822FAF78EFD761C99
:10882000F6B2032EF2D3CDE900A794F82E3094F8D7
:108830002D2094F82C104846FFF74AFD2EB028460C
:10884000BDE8F08738B5044600218DF8001094F893
:1088500032204FF0FF30012A04D0022A09D084F8D8
:108860002F1038BD012394F830006A465021A56BC3
:1088700005E00123A56B94F830006A46D021A84793
:108880009DF8001084F82F100028EAD1612901D04A
:10889000001F38BD2046FFF7E7FD38BDB0F82120A6
:1088A0000A8230F8012F4A8282780A7082888A828E
:1088B000C288CA82027A4A7042890A8382894A83BC
:1088C000C27B8A70827BCA70428A8A83828ACA8308
:1088D000827D0A71837E427E63F31F120A84027EC8
:1088E000437E120142EA13124A84C27E4A71027F19
:1088F0008A71427FCA71827F0A72C27F4A7290F87F
:1089000024208A72428CCA8190F8250081F82800C0
:1089100070472DE9F8430025009581461E4693F8DF
:1089200030009F6B90460C4602236A461D21B847D3
:108930006F46795D61556D1CEDB2022DF9D36278F9
:1089400089F8042018B92078C10988F8001002239A
:10895000B56B96F830003A462E21A84700216318DF
:108960007A5C491CC9B25A740229F8D3A27C89F8EE
:108970002C2018B9607CC10988F801100223B56B5E
:1089800096F830006A463F21A847002163187A5CB8
:10899000491CC9B283F822200229F7D394F8232076
:1089A00089F85420002804D194F82210CA0988F8C4
:1089B0000220BDE8F883002103E09208491C0280F0
:1089C000C9B202883F2AF8D892B202EB8111018025
:1089D00070472DE9F0418CB00E4605464FF0FF344C
:1089E0002C216846FAF7C2FC00208DF82C0036B125
:1089F00096F83200012805D0022809D04FE06FF028
:108A000001044CE03146012000F04DF8040046D14D
:108A100031460BA8FFF770FE0024E8461AE005EB8C
:108A20004407324678881921FFF76EFB51EC100B92
:108A3000FAF7AAFE08F804009DF82C00022803D0DB
:108A400007F11600FFF7B7FF08EB0401B87D641CBF
:108A50008872E4B295F82A00A042E0D89DF82C0074
:108A600002280ED128884FF47A71484340F2DD1174
:108A7000B0FBF1F028802846FFF79DFF28788DF89D
:108A80001400292315225A216846FEF78DFE29235A
:108A9000746B96F830006A465A21A04704460CB021
:108AA0002046BDE8F081F8B505464FF000000C0007
:108AB0008DF800001AD00123A66B94F830006A46A6
:108AC0007321B0479DF80010102201F0EF0102EA77
:108AD000051211438DF80010002806D194F83000DB
