:020000040002F8
:1030000038460020153202001D3202001F32020035
:1030100021320200233202002532020000000000AB
:103020000000000000000000000000002732020045
:1030300029320200000000002B3202002D32020073
:103040005D3B02002F320200ED3E0200D93B020040
:103050002F3202002F320200853902002F32020087
:103060002F3202002F3202002F3202002F320200D4
:103070002F3202002F3202002F3202002F320200C4
:103080002F320200B53B02002F3202002F32020025
:10309000E93B02002F320200ED3B02002F3202001A
:1030A0002F3202002F3202002F3202002F32020094
:1030B0002F3202002F32020000000000000000004A
:1030C0002F3202002F3202002F3202002F32020074
:1030D0002F3202002F3202002F32020000000000C7
:1030E00000000000000000000000000000000000E0
:1030F00000000000000000000000000000000000D0
:1031000000000000000000000000000000000000BF
:1031100000000000000000000000000000000000AF
:10312000000000000000000000000000000000009F
:10313000000000000000000000000000000000008F
:10314000000000000000000000000000000000007F
:10315000000000000000000000000000000000006F
:10316000000000000000000000000000000000005F
:10317000000000000000000000000000000000004F
:10318000000000000000000000000000000000003F
:10319000000000000000000000000000000000002F
:1031A000000000000000000000000000000000001F
:1031B000000000000000000000000000000000000F
:1031C00000000000000000000000000000000000FF
:1031D00000000000000000000000000000000000EF
:1031E00000000000000000000000000000000000DF
:1031F00000000000000000000000000000000000CF
:10320000DFF80CD000F02AFB00480047ED6A02000E
:10321000384600200648804706480047FEE7FEE79C
:10322000FEE7FEE7FEE7FEE7FEE7FEE7FEE7FEE776
:10323000F13B0200013202002DE9F0410024061B9F
:10324000254671F1000605DA01240027D0EB0700BE
:1032500067EB0101161E73F1000605DA0027D2EBB9
:103260000702012567EB030300F0DDF886460E46F2
:1032700017469C46AC4204D00025D0EB050E65EB0A
:10328000010624B10020D2EB000760EB030C70466E
:1032900031463A466346BDE8F08140EA01039B07A8
:1032A00003D009E008C9121F08C0042AFAD203E0BB
:1032B00011F8013B00F8013B521EF9D27047D2B21F
:1032C00001E000F8012B491EFBD270470022F6E70F
:1032D00010B513460A4604461946FFF7F0FF20468C
:1032E00010BD421C10F8011B0029FBD1801A704749
:1032F0002DE9FE4F81EA030404F0004421F000416F
:1033000000944FF0000B23F0004350EA01045ED01C
:1033100052EA03045BD0C3F30A54C1F30A552C44A8
:10332000A4F2F3340194A0FB0254C1F3130141F45D
:103330008011C3F3130343F4801301FB024400FB29
:10334000034E840A970A44EA815447EA8357A4FB50
:10335000076802958D0A05FB07854FEA932C04FB4D
:103360000C542705029D4FEA065847EA1637B5EB7D
:1033700008056EEB070C870E920E47EA811742EAAA
:103380008312A7FB0201B6EB0B0164EB00042B0DCB
:1033900043EA0C335E1844EB1C50DA465146E7FB17
:1033A0000201C5F313044FEA0B3343EA14534FEA07
:1033B0000432019C43EA0603A4F10C040294009C2D
:1033C000CDE900B400F0A6F803B0BDE8F08F00200E
:1033D0000146F9E70EB540F2334102910021CDE9F3
:1033E00000110A460B4600F095F803B000BD01F04D
:1033F000004330B421F0004150EA010206D00A0D2A
:10340000A2F56072C1F31301002A02DC30BC002077
:103410007047440F44EAC104C100E01830BC00EB1F
:10342000C25000F031B82DE9F05F05460020924609
:103430009B4688460646814640241BE02846414676
:103440004746224600F02BFA53465A46C01A91418D
:1034500010D311461846224600F012FA2D1A67EBD7
:1034600001084F4622460120002100F009FA17EB1F
:1034700000094E41201EA4F10104DFDC484631461C
:103480002A464346BDE8F09F0029A8BF7047401C6C
:10349000490008BF20F00100704710B4B0FA80FC6A
:1034A00000FA0CF050EA010404BF10BC704749B1A7
:1034B000CCF1200421FA04F411FA0CF118BF012117
:1034C00021430843A3EB0C01CB1D4FEA00614FEAF7
:1034D000102042BF002010BC704700EBC3501044C6
:1034E0000029A4BF10BC7047401C490008BF20F051
:1034F000010010BC704710B5141E73F1000408DA07
:10350000401C41F1000192185B411A4301D120F0A7
:10351000010010BD2DE9F04D92469B4611B1B1FA64
:1035200081F202E0B0FA80F22032904600F0A8F971
:1035300004460F4640EA0A0041EA0B0153465A4648
:10354000084313D0114653EA010019D0C8F14002D4
:10355000504600F0A4F905460E46504659464246EC
:1035600000F08EF9084305D0012004E020463946DA
:10357000BDE8F08D0020054346EAE0762C43374352
:103580000A986305E40AA0EB08000022FD0A44EA59
:1035900047540A3002D500200146E9E70105101919
:1035A0006941DDE9084500196941BDE8F04DA2E730
:1035B0002DE9FE4F804681EA0300C00F0C460090C3
:1035C00021F0004123F00045B8EB0200A94105D2EB
:1035D0004046214690461C460B46024623F00040DA
:1035E000104347D0270DC7F30A00C3F30A510290D6
:1035F000401A019040286BDAC3F3130040F4801B9B
:103600000098924620B10023D2EB030A63EB0B0B28
:1036100001985946C0F14002504600F031F9064683
:103620000D4650465946019A00F049F910EB080042
:103630006141002487EA115284EAE7731A4340D0BB
:10364000009A62B3019A012A4FEA075215DC001B67
:1036500061EB02014FF0004202EA0752CDE900425D
:10366000001C41F5801132462B46FFF753FF03B093
:10367000BDE8F08F40462146F9E7001B61EB0201EF
:10368000001C41F5801300185B412018A2F50017BB
:1036900047EB030140EAD570B6196D4111E06D08A2
:1036A0004FEA360645EAC0754FEA0752001B61EB48
:1036B0000201001C41F5801149084FEA3000001951
:1036C000514132462B4603B0BDE8F04FFFF713BF20
:1036D0000098012240000023D0EB020263EBE0736C
:1036E000009821464FEAE074B8EB000061EB04015A
:1036F000E9E783F000435BE781F0004158E72DE9FB
:10370000F04D81EA030404F0004B21F0004514461B
:103710004FF0000A23F0004150EA050220D054EA9D
:1037200001021DD0C5F30A570246C5F31303C1F3C6
:103730001300C1F30A5640F4801543F48013A7EB3D
:103740000608101BD64608F2FD3873EB050002D3BD
:1037500008F1010801E092185B41B8F1000F03DAAB
:1037600000200146BDE8F08D00204FF48011064690
:1037700084460EE0171B73EB050705D3121B63EBA2
:10378000050306434CEA010C49084FEA3000921841
:103790005B4150EA0107EDD152EA030012D082EA00
:1037A000040083EA0501084305D0101BAB4106D293
:1037B0000122002306E000224FF0004302E06FF0F8
:1037C000010253101AEB06004CEB085110EB0A00F3
:1037D00041EB0B01BDE8F04DFFF78DBE70B521F058
:1037E000004303430CD0C1F30A550024D5EB040574
:1037F00064EB0403D617AD1AB34102DB0020014687
:1038000070BD201841EB025170BD0EB5C10F80EAAA
:10381000E0700844CA07002140F233438DE80E00EF
:103820000A460B46FFF776FE03B000BD30B5041E16
:1038300071F1000404DB4FF00044404264EB0101ED
:10384000141E73F1000405DB1C464FF00043524286
:1038500063EB0403994208BF904230BD064C074D0C
:1038600006E0E06840F0010394E807009847103450
:10387000AC42F6D3FFF7C8FC7089020090890200C1
:10388000202A04DB203A00FA02F100207047914020
:10389000C2F1200320FA03F3194390407047202A15
:1038A00004DB203A21FA02F00021704721FA02F3EA
:1038B000D040C2F120029140084319467047202AA7
:1038C00006DBCB17203A41FA02F043EAE07306E048
:1038D00041FA02F3D040C2F1200291400843194658
:1038E00070472DE9F04D00231A461B1A8A4103DB6D
:1038F00000200146BDE8F08DC1F30A52C1F3130167
:1039000041F480154FF0000BD10702D100186D4132
:10391000521E0027044640F2FF11384601EB620AAE
:103920003E468046024600204FF48011FFF7B7FF65
:10393000C2197141BB1846EB0100B4EB030C75EBE7
:10394000000C04D3E41A65EB000517460E46241953
:1039500008F101006D4180463428E3DDF91946EB9A
:103960000600091BA84103D24FF0FF32134601E0C5
:10397000002213461BEB070046EB0A51BDE8F04D51
:10398000FFF7B9BD2DE9F04700268CB0DFF8609154
:10399000B0464FF48075012437460696284603F05A
:1039A000F3FD38B1D9F80403204203D0284603F0D0
:1039B000E1FD26432D1D64007F1CADB2082FEDD321
:1039C0004FF4BE74204603F0DFFD48B1204603F0FB
:1039D000D1FD46F0004606AA0121002003F0B6FD05
:1039E000444D16F0FF0F15D00127002437420DD0AB
:1039F00009EB8401D1F81005D1F81015C0F30420AB
:103A000055F82420C1F3014102B190477F00641CA6
:103A1000082CEBD3002E67DA4FF0FF30CDE9088099
:103A200000263446281910F8507F90F9000027F03E
:103A3000C008401C44D009A9404603F05FFA58B3BF
:103A40004FEA9719404602F0CFFC55F820701FB19D
:103A5000B9F1030F03D00FE0B9F1030F30D108A87B
:103A60004FEAD80208F00703815C4FF0010C0CFA12
:103A700003FC41EA0C0181544FF0A04101EB8800A6
:103A8000D0F8000706A9C0F3014A404603F036FA11
:103A900018B1BAF1020F03D012E0BAF1030F0FD13F
:103AA000B9F1030F08D1BAF1020F1BD00221404631
:103AB00003F028FD761CF6B217B149464046B847D8
:103AC000641C042CAED3002E0ED06A4601210020C7
:103AD00003F03CFD06990098884205D006900898AE
:103AE00009909DE70321E2E70CB0BDE8F0870000F4
:103AF000006000405C24002000F01F020121914082
:103B00004009800000F1E020C0F88012704700F00A
:103B10001F02012191404009800000F1E020C0F81F
:103B20000011704700F01F02012191404009800000
:103B300000F1E020C0F8001270474907090E002884
:103B400006DA00F00F0000F1E02080F8141D704745
:103B500000F1E02080F80014704700002DE9F041EA
:103B60004FF48077384603F08BFA0124104EA507F6
:103B700048B1384603F08BFA0120C5F80803747089
:103B8000002002F039FC4FF48277384603F078FACF
:103B900000280BD0384603F07AFA0220C5F8080353
:103BA000B470BDE8F041012002F026BCBDE8F08110
:103BB0004824002007480021C0F84011C0F84411F3
:103BC000C0F84811C0F84C11C0F80011C0F8041139
:103BD00004F006BA001001400149024802F0CCBDD1
:103BE000D42400200030004004F048B903F07ABD2E
:103BF000F0B5AE480023021D01780125101D4FF0DD
:103C0000805406290BD11678360708D10678C6F3FA
:103C10000316032E06D0042E04D0052E02D006294A
:103C200007D00EE0B4F82463A14FC6F304263E602B
:103C300002E01678360704D10678C6F30316032E81
:103C400002D0062904D00FE09B4F9A4E7E670EE00B
:103C50001678360708D10678C6F30316032E06D069
:103C6000042E04D0052E02D0062907D00EE0D4F889
:103C70004462924FC6F342363E6002E01678360741
:103C800004D10678C6F30316032E02D0062906D007
:103C900011E08B4E376827F0807737600EE016789A
:103CA000360708D10678C6F30316032E06D0042E75
:103CB00004D0052E02D006290AD011E04FF080462C
:103CC000C6F80C31C6F810317C4E361F336002E066
:103CD0001678360704D10678C6F30316032E02D0F1
:103CE000062905D00CE0754F032664373E600AE0D4
:103CF0001678360704D10678C6F30316032E02D0D1
:103D000006290DD014E06F4F05263E606D4E7836C3
:103D100035606C4E083633603F263F1D3E6002E042
:103D20001678360704D10678C6F30316052E02D09E
:103D3000062957D062E0644E3668644F3E60624E9A
:103D4000361D36683F1D3E605F4E083636683F1DA3
:103D50003E605D4E0C3636683F1D3E605A4E103652
:103D600036683F1D3E60584E143636683F1D3E6033
:103D7000554E18363668554F20373E60524E1C3629
:103D800036683F1D3E60504E203636683F1D3E600F
:103D90004D4E243636683F1D3E604B4E2836366801
:103DA0003F1D3E60484E2C3636683F1D3E60464EF5
:103DB00030363668454F40373E60434E34363668BD
:103DC0003F1D3E60404E383636683F1D3E603E4ED9
:103DD0003C3636683F1D3E603B4E403636683F1DE0
:103DE0003E6002E01678360708D10678C6F303165F
:103DF000032E06D0042E04D0052E02D0062907D0AB
:103E000019E0D4F85812324A01F04F01116002E073
:103E1000117809070FD10078C0F30310032803D0ED
:103E2000042801D0052806D12A480168C90702D014
:103E30006FF00101016022487438016841F470019B
:103E40000160BFF34F8FBFF36F8F4FF01021D1F898
:103E50000002002803DBD1F80402002822DA1E4AFF
:103E600015601E480468002CFCD01524C1F80042DF
:103E70000568002DFCD0C1F8044201680029FCD07F
:103E8000136001680029FCD0BFF34F8F0C48F03855
:103E90000168134A01F4E06111430160BFF34F8FE1
:103EA00000BFFDE710490F480860F0BDE00F00F0CB
:103EB000403501400DF0ADBA00C007403C05004060
:103EC000FCED00E0105600400404001020C5004046
:103ED000E40E00400004004004E5014000E401401D
:103EE0000400FA050090D003442200200448017F1A
:103EF00004480029024901D004F0EBBA04F05ABA90
:103F0000B4240020002000400FB4084B10B504A9D1
:103F100002AA039800F044FF044602A9002001F021
:103F200070F9204610BC5DF814FB0000035202003B
:103F300003B401984100009850EAC12018BF042042
:103F40004A0D18BF40F0010040F2FF72B2EB515F22
:103F500008BF40F00200012808BF052002B07047EA
:103F60002DE9F04D2DED040B2DED0E8B96B0DDE916
:103F70002550279CDDF890A025F0004624F000484D
:103F8000BAF1000F14BF0121002101EB4502FC49E9
:103F900053184A1093422AD3002814BF0123002348
:103FA00003EB44030B44F7498B4220D358EA00014A
:103FB0009FEDF59B76D0DFF8D8B35D4503D1BAF11C
:103FC000000F05D188E0BAF1000F08BF002100D032
:103FD000012101EB450111F5001F08D8002814BF8D
:103FE0000121002101EB440111F5001F0BD99DEDCA
:103FF000261B9DED240B16B0BDEC0E8B04B0BDE866
:10400000F04D00F069BE0027002DBCBFE149884596
:1040100021DAE1498845A8BF02271CDAC3451ADC2A
:10402000DE4901EB2851142908DDC1F1340220FAE0
:1040300002F101FA02F282420DD108E058B9C1F151
:10404000140228FA02F101FA02F2424503D101F00A
:104050000101C1F1020756EA0A0124D1002C22DA3B
:10406000002D18BF022F01D0012F0AD0022000F02E
:1040700091FE16B0BDEC0E8B04B0BDE8F04D00F023
:1040800013BE022000F086FE00F00EFE51EC100B75
:1040900081F0004141EC100B16B0BDEC0E8B04B06A
:1040A000BDE8F08D18E09FEDBEAB9FEDBF8B002803
:1040B00071D1B848804522D105F1804010F58010BB
:1040C00008BFBAF1000F07D0B3450ADC002CA8BF27
:1040D0009DED260BE0DA0DE0B0EE490AF0EE690A3C
:1040E000DAE7002C06DA9DED260B51EC100B81F07F
:1040F00000416FE0AE48784490ED000BCCE7D84526
:104100004DD1002C48DA2EB186423AD1BAF1000FD7
:1041100042D126E0BAF1000F13D0022000F03AFE9F
:1041200000F0F6FD8DED020B9DED240B8DED000BE7
:1041300010EE900A039961F31E0003909DED020BAF
:10414000AAE78DED02AB9DED240B1AEE901A10EE4E
:10415000900A8DED000B61F31E0003909DED020BA4
:104160009AE78DED028B9DED240B18EE901A10EE60
:10417000900A8DED000B61F31E0003909DED020B84
:104180008AE709DA9DED240B51EC190B53EC102B47
:10419000FFF7B5FA1EE020E09DED240B7CE7864298
:1041A0001BDAB4F1804F0DD0A4F10050B0F1FF50F4
:1041B00013D1002D11DB9DED240B51EC100B03F0FE
:1041C00025FE07E09DED240B53EC102B51EC100B5A
:1041D00000F0C2BC41EC100B5EE79DED240B51ECEE
:1041E000100B02F0FDF9BAF1000FCDE90E0142D13A
:1041F0009FED710B46B3A6F1E040B0F17F600CD0AB
:104200005E4538D1002D00DAA7B3022F0CBF012084
:104210004FF0FF30FFF7F9FADCE7002D01DD002C4D
:104220000DDA002D01DD002C1FDB002D16DA002C2D
:1042300014DB012F08BF9FED620B3FF42DAFB0EEF2
:104240004A0AF0EE6A0A27E7022F18BF002D0CD0A9
:10425000012F0AD1002DFFF61FAF06E0002DB8BFD9
:10426000002C08DA012F3FF417AFB0EE480AF0EE49
:10427000680A11E71BE0012000EBE57050EA070136
:1042800015D0791EB0EE498AF0EE698A084308BF5E
:104290009FED4D8B4E480025804570DD4D494E48C1
:1042A000884514DDB0420DDB002C19DB2FE0012026
:1042B00000F070FD16B0BDEC0E8B04B0BDE8F04D03
:1042C00000F016BDB34502DC002C09DC1FE086427D
:1042D00002DA002C1BDA03E05E452BDD002C16DD34
:1042E000022000F057FD00F013FD8DED020B53ECA2
:1042F0001A2B51EC180BFEF7FBFFCDE900010399D7
:10430000019861F31E0003909DED020BC4E60220AC
:1043100000F040FD00F00CFD10EE901A18EE900A2F
:104320008DED020B8DED008B61F31E0003909DED72
:10433000020BB1E69DED0E0B53EC192B51EC100B5B
:10434000FFF7D7F99FED260BCDE9080153EC102BB1
:104350009DED080B51EC100BFEF7CAFF9FED221BE1
:1043600053EC112BFFF7C8F99DED081B53EC112BF3
:10437000FEF7BEFF9FED1E1B53EC112B3CE08CE0C3
:10438000FFFF1F00FFFF0F00000000000000F03FD4
:104390000000F03F0000F07F0000404301FCFFFF01
:1043A000000000000000F07F00000000000000009E
:1043B0006E480000000000000000000000000080C7
:1043C000000000000000F0FF000000000000F0BF4F
:1043D0000000E0410000F043FFFFEF3F000000005D
:1043E000000000000000D03F555555555555D53FAC
:1043F000000000000000E03FFFF77EF99DED080B94
:1044000041EC1A0B53EC102B51EC100BFEF770FF24
:1044100053EC1A2BFEF76CFF41EC1A0B9FEDFE0BD1
:1044200053EC102B9DED080B51EC100BFEF760FFC9
:1044300041EC1B0B9FEDFA0B51EC1A0B53EC102BBC
:10444000FEF756FF41EC1A0B9FEDF70B53EC102BC8
:104450009DED080B51EC100BFEF74AFF53EC1A2BA5
:10446000FFF747F941EC1A0B51EC1B0B53EC1A2BDD
:10447000FFF79EF80690CDE906519DED060B53EC33
:104480001B2B51EC100BFFF734F953EC1A2BFFF7F1
:1044900033F941EC100B00F0A1B90020B6F5801FF4
:1044A0000EDA9FEDE30B53EC102B9DED0E0B51EC50
:1044B000100BFEF71DFFCDE90E016FF034000E4624
:1044C00000EB2650A0F2FF37C6F31300DA4940F0A4
:1044D0007F6646F040568842D8BF002408DDD749A1
:1044E0008142C8BF012403DC0024A6F580167F1C8E
:1044F000D348784400EBC4000F9690ED00CB9DEDBF
:104500000E0B53EC1C2B51EC100BFFF7F2F89DED4A
:104510000E0B41EC1B0B53EC1C2B51EC100BFFF75B
:1045200047F841EC100B51EC190B53EC102BFFF733
:10453000E6F841EC1D0B51EC1B0B53EC1D2BFEF769
:10454000D7FE41EC1A0BBF488DED10AB78441095A7
:1045500090ED000B4FF0005040EA660000EB844005
:104560008DED080B00F5002009909DED080B53EC34
:104570001C2B51EC100BFFF7BCF89DED0E1B53EC00
:10458000112BFFF7B9F841EC100B53EC102B9DEDFC
:10459000100B51EC100BFEF7ABFE9DED080B41EC40
:1045A0001C0B53EC102B9DED100B51EC100BFEF778
:1045B0009FFE53EC1B2BFFF79FF853EC1C2BFFF7D0
:1045C00098F853EC1D2BFEF793FE41EC1C0B53ECBB
:1045D0001A2B51EC1A0BFEF78BFE41EC1B0B9A4881
:1045E0000621B0EE4B0AF0EE6B0A784400F0E0FAD8
:1045F000B0EE401AF0EE601AB0EE41DAF0EE61DA99
:1046000053EC1B2B51EC1B0BFEF772FE53EC1D2BD6
:10461000FEF76EFE9DED100B41EC1B0B53EC1A2BBD
:1046200051EC100BFEF7C4FF53EC1C2BFEF760FEA1
:1046300053EC1B2BFEF7BCFF9DED100B41EC1B0B4D
:1046400053EC102B51EC100BFEF752FE41EC1D0BFE
:104650009FED7FEB53EC1E2BFEF7AAFF53EC1B2BB9
:10466000FEF7A6FF0890CDE908519DED080B53EC2D
:104670001E2B51EC100BFFF73CF853EC1D2BFFF7F2
:1046800038F853EC1B2BFFF737F89DED080B41EC86
:104690001D0B53EC102B9DED100B51EC100BFEF786
:1046A00027FE41EC1B0B53EC1A2B51EC1D0BFEF7B4
:1046B0001FFE9DED080B41EC1A0B53EC102B51EC37
:1046C0001C0BFEF715FE53EC1A2BFEF771FF41ECA5
:1046D0001A0B51EC1B0B53EC1A2BFEF769FF0C90D5
:1046E000CDE90C519DED0C0B53EC1B2B51EC100B39
:1046F000FEF7FFFF53EC1A2BFEF7FEFF41EC1B0BFE
:104700009FED550B53EC102B9DED0C0B51EC100B4A
:10471000FEF7EEFD41EC1A0B9FED510B51EC1B0B1C
:1047200053EC102BFEF7E4FD41EC1B0B9FED4E0B01
:1047300053EC102B9DED0C0B51EC100BFEF7D8FD3C
:1047400053EC1B2BFEF734FF41EC100B4848784428
:1047500000EBC40090ED001B51EC100B53EC112B3F
:10476000FEF726FF41EC1B0B3846FFF74EF8CDE96C
:10477000080153EC1B2B51EC1A0BFEF719FF41EC0F
:10478000100B3C48784400EBC40090ED00CB51EC9A
:10479000100B53EC1C2BFEF70BFF9DED081B53EC8D
:1047A000112BFEF705FF0690CDE906519DED080B94
:1047B00053EC102B9DED060B51EC100BFEF799FFFF
:1047C00053EC1C2BFEF795FF53EC1A2BFEF791FFD1
:1047D00053EC1B2BFEF790FF41EC100B9DED261BBD
:1047E00053EC102B8DED001B00959DED260B51EC2D
:1047F000100BFEF77DFD9DED000B41EC1A0B53EC09
:10480000102B9DED260B51EC100BFEF772FF9DED6A
:10481000061B53EC112B2FE0000000604715F73FFB
:10482000FE822B654715F73F44DF5DF80BAE543E23
:1048300000000000000040438E9803007AB60B0091
:10484000EA4300001844000022430000000000007A
:104850000000000000000840000000E009C7EE3F33
:10486000FD033ADC09C7EE3FF5015B14E02F3EBEC5
:10487000AE41000068410000FEF73AFD53EC1A2BF0
:10488000FEF796FE9DED060B41EC1A0B53EC102B38
:104890009DED000B51EC100BFEF72AFDCDE90C014C
:1048A0009DED0C0B51EC1A0B53EC102BFEF780FE18
:1048B000CDE902010C46AA498C422FDB611A08435C
:1048C00018D19DED0C0B53EC102B9DED020B51EC10
:1048D000100BFEF70EFF41EC1B0B9FEDA30B51ECF1
:1048E0001A0B53EC102BFEF763FE53EC1B2BFEF759
:1048F0009DFF2DD2022000F04DFA00F009FA10EED3
:10490000901A18EE900A8DED020B8DED008B61F37D
:104910001E0003909DED020BFFF7BEBB944A24F0EE
:104920000041914214D39349214408437FF4EFACF2
:104930009DED0C0B53EC102B9DED020B51EC100B6D
:10494000FEF7D7FE53EC1A2BFEF770FF7FF6DFACB5
:1049500024F000408849894A002601EB2051824218
:104960002BDA481C4FF4801121FA00F02044844ACD
:10497000C0F30A517A44A1F2FF3192ED000B814A53
:104980008DED080BCA4020EA0202C0F3130040F488
:104990008010C1F1140120FA01F60992002CB8BF71
:1049A00076429DED080B53EC102B9DED0C0B51EC5A
:1049B000100BFEF79EFECDE90C019DED0C0B51ECAA
:1049C0001A0B53EC102BFEF7F3FD9FED6F0B0890C5
:1049D000CDE9085153EC102B9DED080B51EC100B59
:1049E000FEF786FC41EC1B0B9FED690B53EC102B83
:1049F0009DED080B51EC100BFEF77AFC9DED0C0BB6
:104A000041EC1C0B53EC102B9DED080B51EC100BE3
:104A1000FEF76FFE53EC1A2BFEF76EFE9FED5E1B4A
:104A200053EC112BFEF764FC53EC1C2BFEF7C0FD7E
:104A300041EC1A0B51EC1B0B53EC1A2BFEF7B8FD93
:104A4000CDE902019DED020B53EC1B2B51EC100B39
:104A5000FEF74FFE53EC1A2BFEF74EFE9DED020BB8
:104A600041EC1A0B53EC102B51EC100BFEF740FCF1
:104A7000CDE908014A489DED080B0521784400F076
:104A800097F89DED081B51EC100B53EC112BFEF722
:104A90002FFC9DED021B53EC112BFEF72DFECDE9F3
:104AA00006019DED020B53EC1A2B51EC100BFEF797
:104AB0001FFC53EC1A2BFEF77BFD9FED3B0B41ECEB
:104AC0001A0B53EC102B9DED060B51EC100BFEF75F
:104AD00010FE9DED060B41EC1B0B53EC102B9DEDD6
:104AE000020B51EC100BFEF703FC53EC1B2BFEF7F3
:104AF00006FE53EC1A2BFEF7FCFD9DED021B53EC5A
:104B0000112BFEF7F6FD53EC192BFEF7F5FDCDE961
:104B1000020101EB065001150029C8BF039015DC06
:104B20009DED020B324651EC100BFEF757FEFFF7DE
:104B3000FFF9042808BF00F0FBF832469DED020B98
:104B400051EC100BFEF74AFECDE902019DED020B80
:104B500051EC180B53EC102BFEF7CAFBFFF73ABBD6
:104B60000000904000000000FE822B654715973C36
:104B700000CC904000346F3F01FCFFFF0000E03F9D
:104B8000F03F0000FFFF0F0000000000432EE63F53
:104B9000396CA80C615C20BEEF39FAFE422EE63F6C
:104BA000C03E0000000000000000000000000040C7
:104BB00070B504462DED028B4D1E00EBC500B0EE26
:104BC000408AF0EE608A90ED000B35F0060017D0B9
:104BD00053EC182B51EC100BFEF78AFB41EC100B39
:104BE0006D1E04EBC50090ED001B51EC100B53EC57
:104BF000112BFEF7DDFC41EC100B35F00600E7D180
:104C0000022D36D0042D1CD0062D1CBFBDEC028B0E
:104C100070BD53EC182B51EC100BFEF769FB94EDB3
:104C20000A1B53EC112BFEF7C3FC53EC182BFEF7B9
:104C30005FFB94ED081B53EC112BFEF7B9FC41EC24
:104C4000100B53EC182B51EC100BFEF751FB94EDAD
:104C5000061B53EC112BFEF7ABFC53EC182BFEF7A5
:104C600047FB94ED040B53EC102BFEF7A1FC41EC39
:104C7000100B53EC182B51EC100BFEF739FB94ED95
:104C8000021B53EC112BFEF793FC53EC182BFEF791
:104C90002FFB94ED001B53EC112BFEF789FCBDECB0
:104CA000028B41EC100B70BD9FED070B10B553EC60
:104CB000102B9FED070B51EC100BFEF720FD41EC84
:104CC000100B10BD000000000000000000000000FC
:104CD000000000000000F03F10B553EC112B51EC28
:104CE000100BFEF765FC41EC100B10BD000000003E
:104CF0009FED050B10B553EC102B51EC100BFEF78C
:104D0000FEFC41EC100B10BD000000000000000094
:104D10009FED050B10B553EC102B51EC100BFEF76B
:104D2000E7FA41EC100B10BD00000000000000701D
:104D30009FED050B10B553EC102B51EC100BFEF74B
:104D4000D7FA41EC100B10BD00000000000000106D
:104D500002E008C8121F08C1002AFAD17047704744
:104D6000002001E001C1121F002AFBD170470000A2
:104D70000121202803DA81400548014003E0402852
:104D800002DA2038814009B10120704700207047C5
:104D9000FC06FFBD01490860704700004822002062
:104DA0002DE9FF4F8DB00F460546002606E0252869
:104DB0000BD0DDE90F1290476D1C761C2878002877
:104DC000F5D111B03046BDE8F08F0024A246A146CF
:104DD0000122EC4900E0044315F8013F203B02FAB0
:104DE00003F00842F7D128782A2810D06FF02F025C
:104DF0002878A0F13001092914D80AEB8A0102EBC6
:104E0000410144F0020400EB010A6D1CF0E701CF00
:104E10005FEA000A03D544F40054CAF1000A44F0E2
:104E200002046D1C28782E2817D115F8010F44F0C4
:104E300004042A280ED06FF02F022878A0F1300148
:104E400009290AD809EB890102EB410100EB0109AC
:104E50006D1CF2E757F8049B6D1C28786C280FD066
:104E600006DC4C2817D068280DD06A2814D104E03D
:104E7000742810D07A280FD10DE044F400140AE011
:104E800044F4801401E044F440146978814202D172
:104E900004F580146D1C6D1C2A786E2A1FD00CDC62
:104EA000632A31D004DC002A8BD0582A11D1A3E028
:104EB000642A68D0692A0CD165E0732A2ED004DCFC
:104EC0006F2A73D0702A04D19BE0752A6FD0782A9C
:104ED0006ED01046DDE90F129047761C50E1C4F306
:104EE0000250022806D0032809D0042801CF09D097
:104EF000066045E101CFF117C0E9006140E101CF53
:104F000006803DE106703BE117F8040B8DF80000C8
:104F100000208DF80100EB46012003E057F804BBA8
:104F20004FF0FF3061074FF0000102D40DE008F1AF
:104F30000101884649450FDA8045F8DB1BF8081067
:104F40000029F4D108E008F1010188468142FADB2A
:104F50001BF808100029F6D1DDE90F23AAEB0800A1
:104F60008146214600F036F9304400EB080604E0A3
:104F7000DDE90F121BF8010B9047B8F10108F7D2D9
:104F800021464846F7E00A21C4F302534FF0000BD4
:104F90000891022B04D001CFC117032B09D00AE0DE
:104FA000FF1D27F00707F7E8020108E032E01FE0E5
:104FB00020E000B2C117042B01D140B2C117031E7B
:104FC00071F1000307DA4FF0000CD0EB0C006CEB32
:104FD00001012D2302E0230504D52B238DF8243075
:104FE000012303E0E30701D02023F7E7984658E0C8
:104FF0000A2110E010210EE010204FF0000B089065
:105000000CE010214FF0000B44F004044FF00809AD
:10501000089103E008214FF0000B0891C4F30253FC
:10502000022B04D001CF0021032B06D006E0FF1D88
:1050300027F00707F7E8020103E080B2042B00D154
:10504000C0B24FF0000823072BD5702A07D0DDF837
:1050500020C08CF0100C5CEA0B0C05D00EE0402355
:105060008DF82430012308E050EA010306D03023F4
:105070008DF824308DF8252002239846DDF820C0D5
:105080008CF0080C5CEA0B0C0BD150EA010301D147
:10509000630706D530238DF824304FF00108A9F1BD
:1050A0000109582A04D038A20B9208AA0A920BE0F0
:1050B0003AA2F9E75B46089AFEF7B5F90B9B9B5CB1
:1050C0000A9A521E0A92137050EA0102F2D10A980B
:1050D000ADEB000000F1200B600702D524F4803412
:1050E00001E04FF00109D94502DDA9EB0B0000E01A
:1050F000002000EB0B0141440890AAEB010AE003F9
:1051000006D4DDE90F232146504600F063F806443B
:105110004FF0000908E009A911F80900DDE90F12B4
:10512000904709F10109761CC145F4DBE0030CD579
:10513000DDE90F232146504600F04CF8064404E018
:10514000DDE90F1230209047761C0899481E089020
:105150000029F5DC08E00A980A990078491C0A91B0
:10516000DDE90F129047761CBBF10001ABF1010B9A
:10517000F1DC21465046DDE90F2300F019F8064422
:105180006D1C1BE6092801003031323334353637C7
:105190003839616263646566000000003031323383
:1051A0003435363738394142434445460000000023
:1051B0002DE9F041044600251E461746880404D414
:1051C00005E039462020B0476D1C641EF9D52846FD
:1051D000BDE8F0812DE9F041044600251E469046C9
:1051E000C80301D5302700E02027880404D505E056
:1051F00041463846B0476D1C641EF9D52846BDE8C7
:10520000F0810A68531C0B60107070471FB50020B6
:1052100000900290019003908DF800008DF8080036
:10522000A020ADF80A000520ADF80C000121684669
:1052300073DF08B100F046F8002000F0B9FE1FBD92
:1052400070B50024084D05E0686810F8340002F0DD
:105250004FF8641C28788442F6D304480068BDE8FF
:10526000704000F0BBB80000182200203488020013
:1052700070B50024064D06E06868012110F834007E
:1052800002F05AF8641C28788442F5D3002070BDDF
:105290001822002009480068C00700D000BEBFF3F4
:1052A0004F8F0648E4380168054A01F4E061114374
:1052B0000160BFF34F8F00BFFDE70000F0ED00E09D
:1052C0000400FA050EB500210091CDE901106A46EF
:1052D00044F20100FFF7DEFF0EBD0000074B9B7894
:1052E00023B12AB120B10068037C1BB108207047AC
:1052F0000720704741744261002070471C25002040
:1053000070B502F04DFB104800240B21047044706E
:105310000E4D817014206C602C706C70FEF7ECFBED
:1053200007211420FEF709FC1420FEF7F0FB0848C3
:10533000046007211120FEF700FC0548001F0068EB
:10534000A860002070BD00001C2500202C22002039
:10535000081501402DE9FC47DFF8789099F80230F4
:1053600073B368B3052902D20720BDE8FC874369FF
:1053700033B3437C012B25D0002704460025884603
:1053800016468DF80050684600F038F801A803F082
:10539000A1F9C8B1012101700F4944600968C0E951
:1053A0000218C0E904769DF8040089F801009DF810
:1053B000000000F047F81420FEF7B4FB2846D4E7BD
:1053C0000820D2E70F46D8E704259DF8000000F03A
:1053D00039F8F3E71C2500200415014006498978B7
:1053E00039B130B1416921B100210174022102F0CB
:1053F000D3BD0820704700001C25002030B5EFF316
:10540000108172B60D4A9468012324B103700029FB
:1054100000D162B630BD93604FF0E023D3F88051E5
:10542000074C25401560C3F88041D3F8844154608F
:105430005A17C3F8842100220270E8E728260020CA
:10544000FC06FFBD0B498A68002A11D000280FD145
:10545000EFF3108072B60B684FF0E022C2F8003113
:105460004B68C2F8043100228A60002800D162B67D
:1054700070470000282600202DE9FC4700251788EA
:105480000646158090F82D001446894630B13A46FC
:105490002146484600F01AF9050009D1B0784FF0CE
:1054A0000C0A18B32088C846001DB84202D95046DD
:1054B000BDE8FC87684679DF0028F9D12088032100
:1054C00008F8001020881921401C80B2208008F8BC
:1054D00000102088401C80B2208000EB0801BDF83D
:1054E000000003F06EF8218808442080F078022242
:1054F000C8B1218896F9033001F1030C4846BC4538
:10550000D5D8425421884FF0010C491C89B2218022
:1055100000F801C02188491C89B2218009F80130B6
:105520002088401C20807068B8B1218890F9003034
:1055300001F1030C4846BC45B9D8425421880A22DF
:10554000491C89B2218042542188491C89B221809A
:1055500009F801302088401C2080308950B1CDE905
:1055600000474B460622022106F1080003F0CAF864
:1055700005009DD1308A50B1CDE900474B46072246
:10558000032106F1100003F0BDF8050090D1308B27
:1055900050B1CDE900474B461522142106F1180001
:1055A00003F0B0F8050083D1306A30B13B462246A3
:1055B000494600F08BFF0500DBD1706A30B13B46F5
:1055C0002246494601F052FB0500D2D196F82C0044
:1055D00038B13B4622464946304602F025FB0500DD
:1055E000C7D1307838B13B4622464946304601F0B3
:1055F00037FC0500BDD128465AE7F0B50C4693B0FC
:105600001F210726ADF80010ADF80410002750B197
:10561000C17849070DD56A4602A9FFF72DFF00287A
:1056200008D102AD02E00025ADF800706CB1E07861
:1056300010B1304613B0F0BD01AA0AA92046FFF709
:105640001BFF0028F6D10AAA02E00022ADF8047080
:10565000BDF80400C3B2BDF80000C1B2284672DF35
:10566000E8E7000070B5040012D001461C2214487F
:10567000FDF713FE1248134D0560206850B17ADF24
:10568000002806D12068016829604068686005E04C
:105690000E2070BD0B487BDF0028FAD108484FF67A
:1056A000FF711438084A20F8041B05493439016099
:1056B0000021FFF713FE0028EBD0032070BD00008F
:1056C0007423002010220020CD8502007CB5054601
:1056D00008880C460930904201D90C207CBD6846F0
:1056E0006DDF0028FAD121880820685420881B210A
:1056F000401C80B2208029542088401C80B2208029
:105700002844DDF801100160BDF805108180208873
:10571000801D80B220809DF80010490800D0012132
:1057200029542088401C208000207CBD30B50446D0
:1057300000883D4D89B021283BD013DC01284DD095
:1057400010281BD0112824D013283BD100231A463F
:10575000852168887FDF002834D009B0BDE830405B
:10576000FFF7B0BD3B2835D051283BD052282BD075
:10577000562827D1A088132176DFECE7012000F01E
:1057800017FC002000F00CFCA0886880FFF770FD7B
:10579000E1E7012000F004FC4FF6FF706880FFF79E
:1057A0004FFD08B1FFF78EFD09B0BDE83040FFF7AF
:1057B0002DBD00200090A08869468FDF2FE000BF3C
:1057C000FFF780FD09B030BD00231A4619466888EE
:1057D000A9DFC0E7A088132176DFBCE7A0880021FD
:1057E00066DFB8E71022A11D04A8FDF756FD9DF85D
:1057F00010100029E6D09DF81800042803D00628D0
:1058000001D00528DED102290CD001208DF800003E
:105810004FF4C170ADF80400A0886946A8DF0028E5
:10582000CED1CFE70220F1E7802100202DE9F0471B
:1058300001883B4E40F2F3194FF6FF7510291BD03B
:1058400011293ED0122954D0502946D1C188F2895D
:10585000841D914241D1618902293ED1868830461A
:1058600000F080FF050038D004F10C0000F025F9AD
:10587000A8B3294630464EE0C17B878804460129FB
:105880002BD1A846284600F06DFF050017D02F80C9
:1058900000202872234843464A460168C5F80A108A
:1058A0004068C5F80E0004F1100105F10A0001F08E
:1058B0000AF86872F08900280FD129462AE00420EE
:1058C00013E0808800F04EFF040006D06068FFF708
:1058D00085FD08B102F0A0F92580BDE8F087FFE75B
:1058E0006868FFF77BFD0028F7D0BDE8F04702F0BD
:1058F00093B987880646384600F034FF0400ECD0A0
:105900002B464A4606F1080104F10A0000F0DBFFCD
:10591000607221463846BDE8F04700F01DBE000029
:1059200074230020102200202DE9F047044603884C
:105930003F480122A4B000F1480A102B09D0112BD6
:1059400054D01A2B70D1217AB2EB111F53D20123FC
:1059500052E0D0E911218A430546011D12A802F048
:105960002EF9442212A901A8FDF797FCDFF8C09098
:105970000026374609F144090DF104080AE000BF8A
:1059800008EB46001D2283884946281D009702F037
:10599000DBF8761C0198B042F2D8686CA688C04348
:1059A00002F0F4F8A0F57F41FF3917D005EB400075
:1059B0000123868032465146281D02F025F9012335
:1059C00032464946281D02F01FF9E07B02280BD021
:1059D00000231749A2884C31281D20E024B0042060
:1059E000BDE8F047FFF76EBC0123F2E70023A28871
:1059F0005146001D13E000230D490546A288503191
:105A0000001D02F001F9207A0221B1EB101F01D232
:105A1000012300E000230649A2885431281D24B048
:105A2000BDE8F04702F0F0B824B0BDE8F087000010
:105A30009023002030B50446134B85B008680D460E
:105A400060610FCB8DE80F0004F11201684662DF40
:105A5000002816D1A07C8DF8120041F22350ADF839
:105A60001000224604A90120A0DF002809D1294600
:105A7000204600F0A5FA002803D12946204600F070
:105A800044FF05B030BD00001488020030B4028825
:105A9000502A10D1034630F8062F4C88A2420AD172
:105AA0004289012A07D14C69002C04D0027B9888D6
:105AB000A44630BC604730BC7047007800F001005D
:105AC000704791F8392091F83A301A4411F8383F6C
:105AD0001A4440F2AB7312FB03F2A2F647524FF4A2
:105AE0007A7302F50052B2FBF3F24989521C114459
:105AF000018070472DE9F0410646174688461C464E
:105B0000184601F073FE050015D1A07838B921467A
:105B1000304602F043F9050001D146F08006D4F882
:105B200048C060783B4642463146E04784F854001E
:105B300008B16FF001052846BDE8F08170B5054653
:105B40000C46084601F052FE00280DD12146284699
:105B500001F0B0FE002807D12978090601D50121FE
:105B600000E0002184F8451070BD10B5044601F036
:105B70003DFE002811D1204600F0D0F900280CD1BC
:105B8000234601221946D020FFF7B4FF002804D194
:105B90002078612802D06FF0020010BD2046BDE8D9
:105BA000104000F029BD000010B5094800F05FF872
:105BB00007490848FFF785FF0648001F808802F064
:105BC00039FD0349BDE81040A1F15000FFF7B6BF11
:105BD000BC220020842100202DE9F0478AB08A46AB
:105BE00081461E46174628216846FDF76FFB304662
:105BF00001F0FCFD050036D197B3142F31D20024FB
:105C0000E8460CE0B07870B119F8041008F81410E8
:105C10001AF8041008EB4400641C4170A4B2BC42A2
:105C2000F0D35DB11FE019F80400314602F0B6F878
:105C3000054619F8040000F07F01E7E74FF0FF3058
:105C400000EB470083B2F46C9DF80010707808F107
:105C50000102A04786F8540028B16FF0010502E068
:105C6000FFE76FF003050AB02846BDE8F0877CB572
:105C7000054674208DF804000024284601F0B6FD86
:105C800000281AD12B46012269467420FFF732FF03
:105C9000A0B1002CF6D195F8441000290DD09DF844
:105CA0000020002861F301028DF8002005D12B4669
:105CB0000122694601A8FFF78FFF7CBD9DF8001007
:105CC00011F00304E7D021F003008DF800002B460B
:105CD0000122694601A8FFF77FFF296D0A20884746
:105CE000D0E72DE9F04786B0002706468DF8007012
:105CF00001970297039704970D463C4691F844A0FC
:105D0000084601F073FD00287DD1310702D52846F1
:105D100001F0CEFF85F8447010B92846FFF7A7FFC1
:105D2000F10601AF0DF10C081BD52B46072200210F
:105D300005F13B0000F019F9752428B92B46012222
:105D400069462046FFF7D6FE95F83B209DF80010E7
:105D50008DF8044062F384018DF800108DF80C106A
:105D60000124B1061FD52B460822002105F13D0074
:105D700000F0FBF84FF0700928B92B460122694664
:105D80004846FFF7B7FE9DF8001095F83D2021F03A
:105D9000080102F0080211438DF8001007F8049082
:105DA00008F80410641CB1072AD02B4605220021F4
:105DB00005F1390000F0D9F84FF0740928B92B46E5
:105DC000012269464846FFF795FEF10707D095F88E
:105DD00039209DF8001062F347118DF80010B107CB
:105DE00007D595F83A209DF8001062F384018DF8EC
:105DF000001007F804909DF8002008F80420641CA7
:105E000071071ED500E05BE02B460522002105F15D
:105E1000380000F0AAF84FF0720928B92B46012289
:105E200069464846FFF766FE95F838209DF8001051
:105E300062F302018DF8001007F8049008F80410CE
:105E4000641C16F0C00F32D02B460122002105F150
:105E50003E0000F08AF830B92B460A22002105F1F5
:105E60003C0000F082F84FF0710928B92B4601225E
:105E700069464846FFF73EFE710607D595F83E2075
:105E80009DF8001062F304118DF80010310607D55B
:105E900095F83C209DF8001062F303018DF8001086
:105EA00007F804909DF8002008F80420641C28B925
:105EB0002B46224603A901A8FFF78EFE85F844A0D1
:105EC00006B0BDE8F087000070B5104C77200125C2
:105ED0006070A5700E48A0640E48E0640E4820650E
:105EE00020462834FFF741FE022020740321A174CC
:105EF00004216174E0740020A075208360832577FD
:105F0000BDE8704017200149FFF7EBBEBC2200201E
:105F10004186020085860200358602007CB5054672
:105F2000E0208DF80000B6208DF80400284601F02E
:105F30005DFC040017D1A87820B9284600F0F9FBD1
:105F4000040010D12B46012201A96846FFF744FE48
:105F50000446296D0A2088472CB9A87818B9284624
:105F600000F0E7FB044620467CBD30B5002498B124
:105F700005788D4206D2017093F8461041F0010178
:105F800083F846100178914208D9027013F8460F41
:105F900040F00200187001E04FF0FF34204630BDA1
:105FA0000249085C012101F0C5BA0000F487020033
:105FB0000249085C002101F0BDBA0000F48702002C
:105FC00030B58FB00024054607949DF81C001C21B5
:105FD00020F00F00401C20F0F00010308DF81C0065
:105FE0009DF81D0020F00F00401C20F0F000103044
:105FF0008DF81D009DF81E0020F00600801C8DF815
:106000001E006846FDF762F99DF80000019440F01B
:1060100012008DF8000007A8CDE90440039406940F
:10602000A87C8DF83A0041F22450ADF838000D9468
:106030009DF83400142120F00F00401C20F0F000E7
:1060400010308DF834009DF8350020F0FF008DF8F9
:1060500035009DF8360020F00600801C20F0190065
:106060008DF8360008A8FDF731F90EA808900DA8A4
:1060700009900120ADF82800ADF82A40ADF82C00B9
:106080000C94288805F10A0308AA6946A2DF0FB01C
:1060900030BD00002DE9F041044692F936000F466C
:1060A000052180FB011040F23C528A1840F10003A8
:1060B0001B48002650F82710A2FB010503FB0151E5
:1060C00002FB06114FF480323346FDF7B5F8E303C7
:1060D0001B1841EB54424FF07F441C1942F1FF352D
:1060E0000F4A403252F82720A2FB007306FB003013
:1060F00002FB010138464FF400720023FDF79CF8C3
:1061000006460F460222002320462946FDF794F852
:106110008019794122462B46FDF78EF8BDE8F081C3
:106120009021002070B50A6BC82402EB82028032F5
:10613000D31702EB136291F90C301212534393FB05
:10614000F4F30C89644200EB0410C01A91F90D308D
:106150006424534393FBF4F591F90E30A6015343A5
:1061600093FBF4F3534393FBF6F32B444D8903F570
:1061700080436B43DD1703EB95539B125843CB7B56
:1061800091F91010514391FBF4F101EBC311CA17BF
:1061900001EB12710A11C11700EB914189134943B8
:1061A000CB1701EB935189124A4302EBD27100EBFA
:1061B0006100C11700EB915080124FF47A7148438F
:1061C000C11700EB115005490013884201DD084654
:1061D00070BD0028FCDA002070BD0000A086010020
:1061E00010B52DED028B017840780C0901F00F01FC
:1061F00061F31F10FDF7EEF841EC180B2046FDF798
:10620000E9F841EC110B9FED0D0BFDF7A9FE53ECE6
:10621000182B51EC100BFDF76BF89FED0A1B53EC9C
:10622000112BFDF765F8FDF7E2F800EE100ABDEC62
:10623000028BBCEEC00A10EE100A10BD0000000078
:10624000000000400AD7A3703D0AA73F70B50A6B53
:106250003E4B02EBD27203EB6203DA1703EB92724E
:1062600092105243D41702EB5455EE1291F9265076
:1062700002EBD4427543EE1705EB9675B1F9246035
:10628000AD105E4305EB4603DD1703EB95734D8CB4
:106290009B1003EB0543551391F92020B1F91E40E3
:1062A0006A436C435201D51702EB5572D21004EBCE
:1062B000D47402EB6402D41702EB9432941431F8D4
:1062C0001C2F04F500446243D41702EB5442DC1740
:1062D00003EB1453C0F58010A0EB233040F6354398
:1062E000D213584390FBF2F04000C31700EB5372F7
:1062F000D2105243D51702EBD542B1F90E405213DA
:106300005443E21704EB1252141300EB9372B1F9E9
:106310000C5092106A43D51702EBD54255130A7CF4
:1063200000EB13631B125A435B435A43D31702EB30
:10633000D332631991F90B1003EB624202EBC111E6
:10634000CA1701EB127100EB211070BD0006FFFFB0
:106350002DE9F0410E46C11700EB5170F18AC010D3
:10636000494200EB4104B6F91800E517A0FB04729E
:10637000C11701FB042100FB051138464FF40062F0
:106380000023FCF759FF0746022200232046294636
:10639000FCF752FFA0FB004201FB002200FB0121A1
:1063A0004FF4805200232046FCF746FF024696F940
:1063B0001A000301A3FB0205DC1704FB025203FBD6
:1063C00001214FF480420023FCF736FF3818306378
:1063D00000EB800000F180004FEAE07100EB1160FB
:1063E00040F30F20BDE8F0810249084490F93000E5
:1063F000704700005C24002070B5084C050009D0EF
:1064000010342168002907D00868206049682846B0
:106410008847F6E70834F4E770BD00004824002000
:106420002DE9F05F26484168F1B3DFF898B00E68B7
:106430008146DBF8004087688078E11B21F07F45CA
:10644000ED1CB0B9DFF880804FF48030C8F8440309
:10645000C8F804031120FDF74FFB1120FDF757FB8F
:106460004FF0010AC8F800A02F2000F0A5FE89F81F
:1064700002A0B54200D23546124BE8193C3320F059
:106480007F401860DBF800105A46091B21F07F415D
:10649000001B20F07F40C91C81420FD91068186092
:1064A0002F2000F089FE00E004E0BDE8F05F11203D
:1064B000FDF738BBBDE8F05F01F072BABDE8F09FB0
:1064C0002C22002004150140001001402DE9F0416C
:1064D00017880646B81D14460D46984202D90C206E
:1064E000BDE8F0813188072206290AD34FF4486CB1
:1064F0004FF6FF73614501D9994202D17088062891
:1065000001D21046ECE7604501D99842F9D1994291
:1065100003D0984201D08142F3D80520E855208865
:106520001221401C80B2208029542088401C80B257
:1065300020804119308802F044F82188084480B254
:1065400020804119708802F03CF82188084420809E
:106550000020C5E7FEF7B6BE38B54A7A0F4B62B1E8
:1065600000220A725969002906D001228DF8002004
:10657000ADF802006846884738BD0A7A62B19B6868
:106580004C68024619462046FEF7E4FE0028F3D088
:10659000BDE8384001F040BB5B68F1E774230020A0
:1065A0000E4910B50A784C780023A24212D0521C32
:1065B000D2B20A70022A00D10B70084A0B780C3252
:1065C00052F8232002608868104420F07F408860E1
:1065D000012010BD0360002010BD00002C2200200F
:1065E00082B0CDE9000121F0004001909DED000B4B
:1065F00002B051EC100B704710B592B00446442124
:106600006846FCF763FE204601F0F0F800287DD1D3
:106610002346192269468920FFF76CFA30B92346D0
:106620001022E1200DF11901FFF764FABDF82110E5
:10663000E182BDF8011021839DF80310A176BDF819
:106640000510A183BDF80710E1839DF8091084F8B7
:106650002010BDF80B106184BDF80D10A1849DF8C9
:10666000101084F826109DF80F1084F82710BDF83C
:1066700013102185BDF8151061859DF8171084F859
:106680002C109DF81B209DF81A1062F31F11218118
:106690009DF819109DF81A20090141EA1211618133
:1066A0009DF81C1021739DF81D1061739DF81E103C
:1066B000A1739DF81F10E1739DF8201021749DF8BF
:1066C00025106174BDF8231061829DF82610217594
:1066D00000218DF84410F8B92346012211A90220A7
:1066E000FFF708FA9DF84410C1F3011184F8341043
:1066F00090B92346012211A90020FFF7FBF99DF86C
:10670000441084F8351038B9234600E00FE0012228
:1067100011A90420FFF7EEF99DF8441049B221F0C9
:106720000F01CA1701EB1271091184F8361012B06B
:1067300010BDF8B5044601F059F805000FD101234A
:10674000A66C60786A46F321B04784F8540008B11B
:10675000AD1E04E09DF8000000F01000E070284637
:10676000F8BD00000146034802888A4200D000209C
:1067700070470000602300202DE9FF470D464FF4CD
:1067800092770446394601F00AF84FF002094FF0BB
:1067900001084FF4827640B13946204601F004F8F2
:1067A0003146204600F0FBFFB0B3B24631462046EA
:1067B00000F0F5FF4FF0FF36002770B3514620463A
:1067C00000F0F2FF05F10C0001AB07C883E80700F9
:1067D00095F8230078B1287B01282DD0D4F84C05FA
:1067E000C0B28DF80600287B022828D0D4F84C05CA
:1067F000C0B28DF807004FF4B071204600F0D4FF0E
:106800004FF4AE71204600F0CFFF95F8250080B31D
:1068100095F8230068BB3CE000E013E0A868C4F8EA
:106820000803C5F80890A868C4F80403C4F82080D9
:10683000C4F81480BDE8FF87D4F83C05D0E7D4F84D
:106840003C05D5E74FF4A471204600F0ADFF287B4E
:1068500080B14FF40070C4F80002801CA860C4F836
:106860000863A868C4F80403C4F80880C4F820804A
:10687000E0E708E005F10C0001AB07C883E807007A
:1068800095F8250028B90020C4F80002AF60C4F8CC
:106890000863D4F8C404C4F8C404810702D58DF891
:1068A000008006E0400702D58DF8009001E08DF8E9
:1068B000007095F8250008B985F82470D5E9002105
:1068C00068469047B6E7F0B58488A518944200D88A
:1068D0002246A41AC288D6189A4200D81346D21A61
:1068E0004B880788BB420CD34088834209D88888EC
:1068F000A04206D3A84204D8C888904201D3B0422F
:1069000001D90020F0BD0120F0BD30B58FB00546A3
:106910001C216846FCF7DAFC00249DF80000019475
:1069200040F00A008DF80000039404940594069446
:10693000A87C8DF8360041F22550ADF834000C9457
:106940009DF83000142120F00F00401C20F0F000D2
:1069500010308DF830009DF8310020F00F00401C01
:1069600020F0F00010308DF831009DF8320020F05A
:106970000600801C20F019008DF8320007A8FCF7F3
:10698000A5FC0DA807900CA808900120ADF82400E4
:10699000ADF82640ADF828000B942888AB1C07AA58
:1069A0006946A2DF0FB030BD4FF002000AB1FFF719
:1069B000FFBAFFF7F5BA0000064901200860064853
:1069C0000168C1F300410029FAD104490020887010
:1069D000704700000C0000401804004048240020CC
:1069E0001721018041800021017141711B218171BA
:1069F000C17170472DE9F047394E002780463D466A
:106A0000DFF8E090D6F804A057E003D00446D0F8B1
:106A10001C8035E099F8002002EB4201521CD2B2F2
:106A200089F8002009EBC10199F80230091D9A424A
:106A300001D189F8005048680A780446012A12D02A
:106A4000022A02D0032A3BD108E001F075FA00B116
:106A50000127257434E00574C06900E070680028DF
:106A6000F9D170602CE0207C50BB88686060C868F9
:106A7000A0600869E0604869A061F07800B16560D5
:106A80006268B168184B501A20F07F40984202D2D9
:106A9000A168084406E0881AA16820F07F4081427E
:106AA00002D9081A206000E0256065600120A56019
:106AB00020742046E56101F021FAB8F10000A4D16C
:106AC00099F8001099F801008142A3D117B97168B3
:106AD000514502D00120BDE8F0870020FBE700000F
:106AE0002C2200201C250020FFFF7F0090B0FEF725
:106AF00007FC08B1FEF7E6FB504A01215048FEF7BB
:106B0000EDFB08B1FEF7DEFB01F002FB00F0BEFD7D
:106B100008B1FEF7D7FB002469460120009400F07D
:106B200045FD08B1FEF7CEFB684600F085FD08B1D3
:106B3000FEF7C8FB9DF8080042A120F00F00401CA2
:106B400020F0F00010308DF80800142202A87CDF3D
:106B500008B1FEF7B7FB00945020ADF80000A0206C
:106B60000194ADF80200ADF804404FF4C870ADF8E0
:106B7000060068467ADF08B1FEF7A4FB002137481B
:106B800000F0C4F908B1FEF79DFB3548009033488A
:106B900069461838FEF74EFF08B1FEF793FB284D03
:106BA0003C2168680F902D481838807C8DF83E0095
:106BB0002A48AC38FCF78AFB28480221AC38012669
:106BC000017086700621C1703C216846FCF77EFB8F
:106BD0000FA805902148ADF810606946AC38FEF763
:106BE0000CFD08B1FEF76EFB1C216846FCF76EFB3E
:106BF0004FF42020CDE900408010029003208DF852
:106C00000C001848059018480690ADF80E408DF815
:106C100010406846FEF726FD08B1FEF753FBFFF76C
:106C200053F900224FF4F0112868FEF793FB00E0BF
:106C30003EDF0028FCD0FEF745FBF9E7456D02007A
:106C4000D48702003131323233333434353536367D
:106C50003737383839393030000000002C23002015
:106C6000A9690200057802005565020070B5144656
:106C700082880E4605462088111D0144921C9942C7
:106C800001D8FE2A01D90C2070BD521C3254208834
:106C9000FF21401C80B2208031542088401C80B2EB
:106CA00020808119288801F08CFC2188084480B25A
:106CB0002080AA8842B1A96841B13044FCF7EDFABE
:106CC0002088A98808442080002070BD072070BD5E
:106CD0003EB503208DF804000420184C8DF8080000
:106CE000012525702B4601AA4A211548009500F080
:106CF000E5FB20780128FCD02570104A0123921D65
:106D00004A210F4800F0C8FB20780128FCD02570EC
:106D1000012302AA4A210A48009500F0CFFB2078FF
:106D20000128FCD02570054A0123D21D4A210448C0
:106D300000F0B2FB20780128FCD03EBD802100206D
:106D4000DC870200F0B591B000259DF83C001C21C5
:106D500020F00F00401C20F0F00010308DF83C00B7
:106D600008A8FCF7B3FAFEF71FFFFFF7B1FF2E48A4
:106D70000A22B0F9041091FBF2F1C2680CB264214E
:106D80008068B2FBF1F7B0FBF1F62848FFF728FA6C
:106D900027498C4203DD4FF42F718C4200DB0C46F7
:106DA00004F5FA7404F00701C7F34413C4F3C702EF
:106DB00043EA411307F01F01C6F3C22444EAC107A6
:106DC00006F00701C6F3C70445EA411CC0F383314E
:106DD000C0F3871680064FEA106ECDF814E00097D6
:106DE000CDE90316284665F39F00CDE90650CDE9AD
:106DF000014C10A108A8FDF787F808A8FCF771FA64
:106E000082B208A90FA87CDF08B1FEF75BFA06483A
:106E100000211430FEF7F1FB08B1FEF753FAFEF73C
:106E2000F5F911B0F0BD00006C2200208621002091
:106E30000CFEFFFF253032582530325825303258AD
:106E400025303258253032582530325825303258C6
:106E50002530325825303258253032580000000095
:106E6000F8B50E46017814460546012901D1687827
:106E700030B12088821C9A422DD8012902D006E028
:106E80000720F8BD69780144891C994223D8181A53
:106E9000801E87B2ADF800702188B01C0844694696
:106EA0007DDF0028EDD12878022805D1BDF800103B
:106EB000B94201D809210AE00821012805D16878E2
:106EC000B84202D8ADF8000001E0ADF80070BDF89E
:106ED0000000FE2801D90C20F8BD2288401CB054C7
:106EE0002088401C80B2208031542088401C2080A3
:106EF000BDF80010084420800020F8BDC20800F052
:106F000007030120895C98400840704710B560B1C4
:106F10000161172120F8021B20F8021B1B2100F839
:106F2000021BFFF75DFD002010BD0E2010BD00000C
:106F30002DE9F04386888FB00C46002E39D10188A8
:106F40004E4F002524295ED006DC102909D01129D6
:106F50000CD0232909D172E03A290BD0552904D14C
:106F60002AE00146204600F05BFC7BE0A01DFFF715
:106F700037FD77E02246408934F8061F814200D869
:106F800008466080172800D217206080106970B111
:106F9000607960B1D7E90001CDE90001ADF8026088
:106FA0006088ADF80400136969461046984765711A
:106FB00025710FB0BDE8F083C088B14604F1060822
:106FC000172800D21720B8F80010814200D80846D0
:106FD000A8F8020088F804502846B8F80010ADDF81
:106FE00098F8050050BB206940B3D7E90201CDE90C
:106FF0000001ADF80290B8F80200ADF80400204698
:107000006946226919E0011D34226846FCF745F9FA
:10701000BDF80000BDF8042004EBC0014A732269EA
:1070200062B1D7E90423CDE90D23ADF83600487BE2
:107030008DF83800226920460DA9904712E000958E
:10704000019530F8041F04EBC1020179127B8A42DA
:1070500000D21146ADF80010ADF8021000880022F1
:10706000694690DFA07A0028A3D0E18830469EDFF1
:1070700000289ED1A5720120E0729AE7FC870200E9
:1070800000F180400068002800D00120704708B55A
:1070900000F18040002101600068009008BD000000
:1070A00000283ED01F49204A096800BF00BF00BF2A
:1070B00000BF00BF00BF00BF00BF91422FD000BF84
:1070C00000BF00BF00BF00BF00BF00BF00BF00BFC8
:1070D00000BF00BF00BF00BF00BF00BF00BF00BFB8
:1070E00000BF00BF00BF00BF00BF00BF00BF00BFA8
:1070F00000BF00BF00BF00BF00BF00BF00BF00BF98
:1071000000BF00BF00BF00BF00BF00BF00BF00BF87
:1071100000BF00BF00BF00BF00BF00BF00BF0138FD
:10712000C3D17047442200200024F40000283ED040
:107130001F49204A096800BF00BF00BF00BF00BF51
:1071400000BF00BF00BF91422FD000BF00BF00BFF3
:1071500000BF00BF00BF00BF00BF00BF00BF00BF37
:1071600000BF00BF00BF00BF00BF00BF00BF00BF27
:1071700000BF00BF00BF00BF00BF00BF00BF00BF17
:1071800000BF00BF00BF00BF00BF00BF00BF00BF07
:1071900000BF00BF00BF00BF00BF00BF00BF00BFF7
:1071A00000BF00BF00BF00BF00BF0138C3D17047A0
:1071B000442200200024F40000283ED01F49204A29
:1071C000096800BF00BF00BF00BF00BF00BF00BF15
:1071D00000BF91422FD000BF00BF00BF00BF00BF63
:1071E00000BF00BF00BF00BF00BF00BF00BF00BFA7
:1071F00000BF00BF00BF00BF00BF00BF00BF00BF97
:1072000000BF00BF00BF00BF00BF00BF00BF00BF86
:1072100000BF00BF00BF00BF00BF00BF00BF00BF76
:1072200000BF00BF00BF00BF00BF00BF00BF00BF66
:1072300000BF00BF00BF0138C3D170474422002007
:107240000024F40070B50F4C0025207808B1852586
:1072500016E00021A16061602161E1604FF0E02053
:10726000D0F80001012610F0010F03D10721002002
:1072700000F022F800F048FA08B9034806602670CA
:10728000284670BD482400201805004008B500209D
:107290008DF800006846FEF7B1F80648C168491E3F
:1072A000C160C06808B9FFF787FB9DF80000FEF7D2
:1072B000C9F808BD482400204907090E002806DA4D
:1072C00000F00F0202F1E02282F8141D03E000F149
:1072D000E02282F8001400F01F02012191404009D1
:1072E000800000F1E020C0F88012C0F80011704763
:1072F00010B5044600F0C6FA28B12046BDE810409B
:10730000002100F0FFB8204600F0C8FA00280FD096
:107310002046FFF769F8074A02EB8001D1F81035E3
:1073200023F00103C1F8103501218140C2F8081390
:1073300010BD0000006000402DE9F0418846054680
:1073400000F0A0FA234E002828461AD0FFF74CF888
:10735000304490F848008009032802D001280ED05C
:1073600007E04FF0A040D0F81005E84010F0010F02
:1073700005D003212846BDE8F04100F0C3B8022142
:10738000F8E700F08BFA002822D02846FFF72CF807
:1073900004464FF4807000EB84000F4F81B207EB7E
:1073A0008400D0F8102542F00102C0F810250846EC
:1073B00000F0E0F8B8F1000F0AD02846FFF714F803
:1073C00056F82000002803D00120A040C7F804038D
:1073D000BDE8F0815C240020006000400121B1EB99
:1073E000507F01D101207047002070470179064A83
:1073F00001EB8101006802EBC1010622C0F8002503
:10740000022081F822007047D424002070B506467F
:107410000D4600791F4900EB800001EBC00494F891
:10742000220008B1082070BD0020C4E90023A0603C
:1074300084F8250084F82400A87B84F82700687B62
:1074400010B1284600F006FE296840F20C60890061
:1074500001F1A041C1F800076968890001F1A0416C
:10746000C1F80007D5E900123068C0F80815C0F867
:107470000C25A968C0F82415206828B13068297B3C
:10748000000B40B2FFF718FF012084F82200002013
:1074900070BD0000D42400203EB5074D2C68AD68B7
:1074A00000948DF80110019202958DF802300022AF
:1074B000694600F015F83EBD288802003EB500255B
:1074C0000095069C8DF8011002958DF8023001920E
:1074D0000CB1202200E00022694600F001F83EBD18
:1074E00030B40379064C03EB830304EBC304006858
:1074F00013460A460146204630BC00F021BE00007B
:10750000D42400204FF0A04202EB8000D0F80027E6
:1075100022F44032C0F80027D0F8002742EA0141A7
:10752000C0F8001770474FF0A04201218140C2F817
:107530000815704701224FF0A043824011B1C3F8F3
:1075400008257047C3F80C257047000018B5084B94
:107550006C4601441B68009306E000BF54F82030DD
:10756000D3F81035401C08C28142F7D818BD00007E
:1075700024880200034908B508440021016000681E
:10758000009008BD0060004002494058012800D02A
:10759000002070470060004020B103490968016085
:1075A000002070470E207047AC880200FEB50246EE
:1075B0000D460846FFF7F0FF002839D1002400945B
:1075C0000194012603208DF80020ADF804000294F8
:1075D0008DF80260694620202A6869DF00948DF8E2
:1075E00000608DF80140019402948DF802406946D4
:1075F00040202A6869DF00940A208DF80000019479
:107600000294694601202A6869DF0A4801940294BD
:10761000406800906946A1202A6869DF00940194BF
:1076200002948DF800406946A0202A6869DF002096
:10763000FEBD0000AC88020060DF704730B593B03B
:107640005FF03805ADF8445011A903A861DF30B1EF
:10765000052816D013B0BDE83040FDF733BE03ACAB
:107660000949684600F074F807E000BFD0E900213E
:1076700020469047684600F082F802980028E1D042
:10768000F4E713B030BD0000B488020038B5124CE6
:10769000207808B1082038BD0125A570002000F031
:1076A00025FA112815D0002000F038FA0B480C49B3
:1076B00000680090684610DF0028ECD12570A070AB
:1076C0006070162000F0B0F90028E4D1012000F02D
:1076D00025FA002038BD0000402200204C8802001E
:1076E000955202000EB50749684600F031F805E0F2
:1076F000D0E900108847684600F041F80298002859
:10770000F6D10EBD6888020001480078704700007D
:10771000402200201FB5684648DF30B1052814D04C
:1077200004B0BDE81040FDF7CDBD084901A800F048
:107730000FF806E0D0E900210098904701A800F07A
:107740001EF803980028E6D0F4E71FBDD088020099
:10775000016009684160AFF3008010B5D0E90021F5
:107760005368994201D1002104E0D1E90034A342D9
:1077700002D01946816010BD08314160F0E7816890
:1077800000290BD0026892680A44826041684B6805
:107790009A4203D108314160FFF7DFBF704740587C
:1077A000002800D00120704708B500224250405800
:1077B000009008BD4058002800D00120704708B54F
:1077C000002242504058009008BDD0F80403084001
:1077D00000D0012070474058002800D00120704799
:1077E00008B5002242504058009008BD38B1816C65
:1077F00029B1C16C19B1006D08B1002070474FF07C
:10780000FF3070470078002807D104483B214088AA
:1078100076DF002801D0FDF755BD7047802100209C
:107820007CB58E88027900EBC605AC1D2A73C97B36
:10783000012902D0022904D101E0008800E040883B
:10784000208021886088814209D930469EDF01214D
:1078500010B1112802D002E0617100E02171A0791D
:10786000E17988420CD9002100910191297BADF882
:107870000010297BADF8021030460022694690DFE7
:107880007CBD00000449084490F93000082801DB61
:1078900001207047002070475C2400200449084400
:1078A00090F93000082801D201207047002070476D
:1078B0005C2400202DE9FF5F044600200090019029
:1078C000029003908B460A250846FFF78FFF064675
:1078D000002E5CD15B460F2269461D20FEF70AF997
:1078E00006469DF8000000F0800020709DF8001012
:1078F00001F00F0161709DF80110A1709DF8021058
:107900009DF80320090341EA02119DF8042041EA91
:10791000121A9DF805109DF80620090341EA02128B
:107920009DF8071042EA1112BDF808104FBA9DF8F1
:107930000D108B009DF80E1043EA911901F00F080D
:1079400001F02001084320709DF80E1001F0100195
:1079500008432070000616D559461046FEF7F8FC7D
:10796000A08059465046FEF771FCA0605946384643
:10797000FEF7D8FBE0605A4641464846FEF78AFBD0
:10798000206145B108E0DBF850100A2088476D1EE1
:1079900015F0FF059CD1022604B03046BDE8F09FEB
:1079A00070B5012670044FF0E0210025C1F8800178
:1079B000084C4010C4F84803C4F8080366602F2040
:1079C000FFF7FAFBA660044C2F20A560FFF7F4FB3D
:1079D000A57070BD001001402C22002070B5054636
:1079E000C87D0C4600284FF4847128460AD0FFF762
:1079F000E6FED5F81805627EE1688854607E401C7A
:107A0000607670BDFFF7DBFED5F8180570BD1FB5B9
:107A100001238DF800308DF808100192D0E9001292
:107A2000684690471FBD000010B50446FDF7A0F959
:107A300040B1002C09DA04F00F0000F1E02090F8CA
:107A4000140D06E042F2010010BD04F1E02090F8B0
:107A500000044109082912D289B101290FD0042953
:107A60000DD00C4A936804F01F0101208840610981
:107A700043B152F82130034342F8213007E042F28B
:107A8000020010BD890001F1E021C1F800010020D1
:107A900010BD00002826002038B50021012558B16E
:107AA00001280ED003280BD107210020FFF704FC8A
:107AB000BDE83840FFF7EABB4FF0E020C0F8805146
:107AC00038BD8DF800106846FDF798FC064C20780C
:107AD00008B9FFF7B7FBE068401CE060A5709DF8AF
:107AE0000000FDF7AFFC38BD482400203EB5044639
:107AF00009496846FFF72CFE08E000BFD0E90021E5
:107B00002046904730B16846FFF739FE02980028BA
:107B1000F4D13EBD11203EBD508802003EB5044662
:107B200008496846FFF714FE07E000BFD0E90021CE
:107B3000204690476846FFF722FE02980028F5D1BC
:107B40003EBD00005C88020070B50028049D18D07E
:107B5000002916D0002A14D05FF0000430F8146019
:107B60009E420FD100200123A34008E001EB8004D6
:107B700026680DB11E4300E09E43401C26609042E3
:107B8000F4D370BD641C202CE8D370BD70B50546DD
:107B900000242146284600F00AF808B1204670BDAE
:107BA000641CA4B2202CF4D34FF6FF7070BD0122E8
:107BB0008A40024201D001207047002070472DE921
:107BC000F04192B080464FF0000017460D00009043
:107BD00012D000246E46A1B23846FFF7E8FF40B14C
:107BE000009935F8140006EB410188800098401C8C
:107BF0000090641C202CEED3442269464046FBF7DB
:107C00004CFB12B0BDE8F08108B500931346012289
:107C1000FFF79AFF08BD000002498969002900D0DA
:107C200008477047742300202DE9F0410746806A19
:107C300014468846C8B3002531E000BFB96A05EB99
:107C4000450001EB8006B088801CFE2802D90C207C
:107C5000BDE8F0812288401C08F802002088162226
:107C6000401C80B2208008F800202088401C80B290
:107C7000208000EB0801308800F0A3FC2188084434
:107C800080B22080B28842B1B16871B14044FBF744
:107C900004FB2088B188084420806D1CEDB297F861
:107CA0002C00A842CAD80020D2E7FFE70720CFE780
:107CB0001CB50446FFF79AFD002804D194F844004F
:107CC000012801D001201CBD5A208DF80000B4F815
:107CD0004000C82801D2C82004E04FF4C87188428F
:107CE00000D9084694F9041094F9142011FB02F10C
:107CF0004FF47A7291FBF2F10A02B4F91210264B9A
:107D00001944414301EB8100642190FBF1F00A2307
:107D100000F5481090FBF3F094F9113003F544732B
:107D2000584300EBD07002EB600094F83420121D31
:107D300090FBF2F294F935008DF8011000EB40034E
:107D400003EBC01000F5803092FBF0F0FA3800EB46
:107D500000104000323090FBF1F08DF80400B4F8D0
:107D600042000021B0F57C6F04D3FF2007E08008BB
:107D7000491CC9B23F28FAD800EB8110C0B28DF877
:107D80000500002084F83C002346022201A9684631
:107D9000FDF722FF1CBD000099590200F8B5064608
:107DA0000C460846FFF722FD050028D17F2E00D99A
:107DB00000E01020E178814221D0E0700123A66C20
:107DC00060786A46F321B04784F854006FF00106EA
:107DD00008B1354613E09DF80000E17820F010006E
:107DE00001F0100101438DF800100123E76C607869
:107DF0006A467321B84784F854000028E9D1284620
:107E0000F8BD002801D1FEF7F7BA704700B52DED97
:107E1000048B83B041EC190BFBF763FD41EC180BAD
:107E200018EE100A18EE901A8DED008B002818BF7E
:107E30000120084320F00040C0F17F6000F1E040E5
:107E4000C00F14D019EE101A19EE900A8DED009B98
:107E5000002918BF0121084320F00040C0F17F60D5
:107E600000F1E040C00F04BF0120FCF793FF51EC8C
:107E7000180B03B0BDEC048B00BD00002DE9F84FDA
:107E80001D4C00256846D4E901A6FEF789FB0027B2
:107E900038B30023009A61681CE0D1F800C008469E
:107EA000944503D9ACEB02020A6015E0A2EB0C0288
:107EB00063440760D0F80CC0C1698146BCF1000F73
:107EC00008D006EB030828F07F48C0E9018CC9F808
:107ED0001C5005460029E0D128466160FEF78AFD66
:107EE00003E02846FEF786FD10B15046FEF798FAEB
:107EF000E770BDE8F88F00002C2200200D4B10B574
:107F0000596831B102680C68A24204D8A21A0A600A
:107F1000C161586010BD0B4603E00B46C969121BD6
:107F200021B10C689442F8D3A41A0C600260C161BC
:107F3000D86110BD2C2200202DE9F041144E776845
:107F40003D462C4603E0844204D02546E469002CDB
:107F5000F9D11BE0D4B1A5420BD1F869706040B9EA
:107F60000C49012088600021B160F0702F20FFF7DC
:107F700023F92168E069E86110B1026811440160E9
:107F80007068874202D00120BDE8F0810020FBE745
:107F90002C220020001001407CB5064600240D462E
:107FA0008DF800406846FDF729FA01A800F092FB21
:107FB00070B10570094946609DF8040048709DF84D
:107FC0000000FDF73FFA1420FBF7ACFD20467CBD16
:107FD00004249DF80000FDF735FAF7E71C25002082
:107FE0002DE9F041194D6C68002C2CD01848002761
:107FF0000068A968B846401A20F07F462068B04261
:108000000CD82146361A0744E469087C20B181F86F
:108010001080886949698847002CEFD129786878F1
:10802000814206D1401CC0B26870022801D185F897
:108030000180064869780C3040F82170BDE8F041B5
:108040001420FBF76FBDBDE8F08100002C2200205A
:10805000041501402DE9F041044640F20C6021680E
:10806000890001F1A041C1F800076168890001F1B0
:10807000A041C1F800072068FFF755FA6068FFF7D4
:1080800052FA216840F20D60890001F1A041C1F867
:1080900000076168890001F1A041C1F800070420D0
:1080A000FFF744F800274FF0A04601252179D6F8C4
:1080B0001005C84010F0010F02D0002F1DD010E0B5
:1080C000217805FA01F0C6F80C050420FFF72EF818
:1080D0002068FFF728FA0420FFF728F87F1C092FF3
:1080E000E4DB20798540C6F80C550420FFF71EF824
:1080F0006068BDE8F041FFF716BABDE8F081000006
:108100000178002901D101480170704780210020C9
:108110001FB5094B0FCB8DE80F0007480023074A16
:1081200069460838FFF772F908B1FDF7CBF8024845
:108130000838FFF75BF91FBDE487020001810200E8
:108140002DE9F05F06461F4615460C464FF0000A23
:108150004FF0080B4FF482795068FFF73FF9002881
:108160007ED04FF0FF30C4F8080396F8240028B101
:10817000B068C4F804031120BDE8F09F780703D469
:10818000F80601D4012000E0002086F8240095E8DC
:10819000070006F10C0383E80700C7F3001086F818
:1081A00025006878C4F888054FF482712046FFF7EF
:1081B000FBFA4FF492712046FFF7F6FAF8074FF0FA
:1081C000010800D04046C4F85005B80701D5404624
:1081D00000E00020C4F84005287800286CD0012871
:1081E0007DD002284ED0032814D04FF0070A38075C
:1081F00004D42878032801D044F80B803068002884
:108200006ED0780702D54FF40070B060B068C4F843
:108210000403ACE0A868FFF7E1F808B34FF48070FE
:10822000C4F80002A8786968C4F84415C4F8480581
:108230004FF4A8712046FFF7B7FA4FF4B07120460B
:10824000FFF7B2FA4FF4A4712046FFF7ADFAC4F875
:108250002080C4F8088000BF4FF4A871204600E0D9
:1082600028E0FFF79CFA0028F6D04FF4A8712046CA
:10827000FFF79AFAE878A968C4F84415C4F84805E5
:108280003C4815E0A8786968C4F84415C4F8480566
:10829000A868FFF7A3F868B1E878A968C4F83415AE
:1082A000C4F838054FF48450C4F8000240F20220AC
:1082B000B0609CE710205FE7A8786968C4F84415AF
:1082C000C4F84805B8060FD54FF48070C4F8000212
:1082D0002848B0604FF4A4794946204601E00CE0FC
:1082E0001BE0FFF761FA05E04FF40070C4F80002EC
:1082F000801CB060C4F8208079E7A8786968C4F869
:108300003415C4F838054FF48050C4F8000240F228
:108310000220B0604FF0000BECE747464FF4827547
:108320004FF492780BE041462046FFF738FA30B11F
:1083300041462046FFF738FA27626761A946494659
:108340002046FFF72CFA0028EDD0D4F8C404C4F876
:10835000C404002186F8241048B10321820701D506
:1083600048F20121400701D548F202218A465046D1
:1083700002E700000002040070B50C4605464FF409
:108380008E71FFF71CFAA18AA068415CA08A401C8C
:10839000A082C5F81C1570BD1FB500228DF8002005
:1083A0008DF80810816801918275D0E90012684645
:1083B00090471FBD2DE9FF470C4605464FF400715D
:1083C000FFF703FA01274FF40178002618B34FF4A2
:1083D000927949462846FFF7EDF9E0B1494628462B
:1083E000FFF7EDF9C5F80883A07E00B96F600220A1
:1083F0008DF80000D5F88004C5F880040390E07D76
:108400008DF80800E0680190E6752676D4E9001240
:108410006846904727E004212846FFF7D6F910B3B5
:108420004FF484712846FFF7C5F9E0B1214628468C
:10843000FFF7D4FAE07D617E884214D1207E38B106
:10844000617EE268E0752069E0602676667607E086
:10845000A07E00B96F60C5F80883E675617EE268AA
:108460002046FFF7D4FA4FF48E7841462846FFF7AE
:10847000A1F988B1A08AA17D884204D2214628466C
:10848000FFF77AFF08E041462846FFF798F9A17DFB
:1084900011B12046FFF780FF4FF4A27841462846ED
:1084A000FFF788F9002812D041462846FFF787F9E0
:1084B000A07E00B12F60E07D002808D0E675617EC7
:1084C000E26804B02046BDE8F047FFF7A0BABDE877
:1084D000FF872DE9FF410C464FF492770546394658
:1084E000FFF779F90026C0B139462846FFF778F939
:1084F00002208DF80000D5F88004C5F880040390B0
:10850000D5F83C058DF80800E0680190E675267600
:10851000D4E900126846904724E04FF48877394642
:108520002846FFF758F9E8B139462846FFF758F9C9
:10853000D5F83C05C1B2E07D884213D1207E60B100
:10854000E268D5F8000220F02000C5F80002207E85
:10855000E0752069E060267601E0E675E268204675
:10856000FFF755FA4FF4A27739462846FFF733F95B
:1085700068B139462846FFF733F9E07D38B1E67532
:10858000D5F83C05E268C1B22046FFF740FA4FF447
:10859000907631462846FFF71EF900280FD0314665
:1085A0002846FFF71DF9A07D002808D0D5F84C0516
:1085B00004B0C1B22046BDE8F041FFF7EDBEBDE812
:1085C000FF810870000A487002207047F8B5054620
:1085D00080B2FEF7C7F8040013D0154E207A0027AA
:1085E000317B88420ED2A8B204F10A0175DF28B1AE
:1085F000112806D0BDE8F840FFF70EBB207A401CDA
:108600002072F8BD2772307C38B1A8B23B2176DFEA
:1086100018B1082801D0FFF7FFFA71690029F0D0DE
:108620008DF80070ADF8025068468847F8BD00002C
:10863000742300204FF47A714843FEF731BD0000E7
:10864000FFB50E4C81B001251E46174625702B46FE
:1086500002AA77210A480095FEF730FF207801280A
:10866000FCD02570F3B23A4677210548FEF714FF97
:1086700040B221780129FCD005B0F0BD8021002056
:10868000DC87020070B5B4B00D461C461646C82102
:1086900001A8FAF71BFE8DF80450224631460DF171
:1086A0000500FAF7FAFD094D012028700020641C2E
:1086B0000090E3B201AA77210548FEF7FFFE40B221
:1086C00029780129FCD034B070BD00008021002041
:1086D000DC8702000A494A788B78521CD2B2934256
:1086E00000D100220B78934201D100207047027024
:1086F000487800EB400001EBC000001D704700000F
:108700001C2500202DE9FC411646DDE90854CDE981
:1087100000541F468046022200F00CF8002807D1C2
:10872000CDE900543B4610223146404600F002F8A5
:10873000BDE8FC812DE9FC5F0026DDE90C4B994684
:1087400092468E4680462788354630E0D8F80400A9
:10875000002200EB850069460068019001A864DFF3
:10876000002830D19DF8000050451FD10EB10021E6
:1087700000E00221228808441118594522D846B940
:10878000521C90B2208009F800E02088401C208014
:108790000126218801A801EB0902694664DF00284F
:1087A00011D120889DF80010084420806D1CB8F875
:1087B0000000A842CADC56B12088C01B401E80B20F
:1087C000FF2802D90C20BDE8FC9F09F80700002013
:1087D000F9E700004C220020231500000030004083
:1087E000000100001B0000001A00000000009801BA
:1087F00002000000111213140D0E0F10770A000072
:1088000000000000770A0000000000007ADA000093
:108810000000000023D1BCEA5F782315DEEF1212BE
:1088200000000000000000500100000000000000F7
:1088300000000000FC2400200300000000000000F5
:108840000000000000000000000000000100000720
:108850003C8802004C880200080000007488020076
:1088600084880200080000008488020094880200C6
:1088700008000000D0890200D88902000000000032
:1088800000000000C0890200D08902000000000042
:108890000000000090890200988902009889020077
:1088A000A0890200A0890200B8890200802100206E
:1088B0008005000094880200AC88020008000000D7
:1088C000B8890200C089020000000000000000001A
:1088D000C0880200D08802000800000000000000EC
:1088E000000000000000F03F000000000000F83F22
:1088F00000000000000000000000004003B8E23F5C
:10890000000000000000000006D0CF43EBFD4C3E0D
:10891000033333333333E33FFFAB6FDBB66DDB3F02
:108920004D268F515555D53F01411DA96074D13F4A
:1089300065DBC9934A86CD3FEF4E454A287ECA3F44
:108940003E5555555555C53F93BDBE166CC166BFC6
:108950002CDE25AF6A56113FF16BD2C541BDBBBEBF
:10896000D0A4BE726937663E00000000000000001F
:10897000D889020080210020CC000000504D020068
:10898000A48A02004C220020EC230000604D02006B
:1089900029590200000000002D57020000000000CD
:1089A0008D5A020014230020316F02002C23002076
:1089B0002D58020000000000037E020000000000AD
:1089C0003D76020000000000157702000000000064
:1089D000997A0200000000000000FFFF0000000084
:1089E0000000000000000000FFFFFF7FFFFFFF7F8F
:1089F000FFFFFF7FFFFFFF7FFFFFFF7FEA51B87E92
:108A0000FFFFFF7F21DBF97EFFFFFF7FFFFFFF7F7F
:108A1000C776BE7FF4285C7FFFFFFF7FEA51B87EF8
:108A2000FFFFFF7FFFFFFF7F000024F40000127AAA
:108A30000000093D0080841EFF583E0F548C9307B0
:108A40000090D0031038EC019062F40000127A001C
:108A500000093D0080841E0040420F0020A1070055
:108A600090D0030048E80100000000000000000072
:108A700000000000000000000000000000000000F6
:108A800000000000000000000000000000000000E6
:108A90000000000000000000000000000090D00373
:048AA00000000000D2
:0400000500023201C2
:00000001FF
